{
	"example/function.sol": {
		"Function": {
			"abi": [
				{
					"inputs": [],
					"name": "num",
					"outputs": [
						{
							"internalType": "uint256",
							"name": "",
							"type": "uint256"
						}
					],
					"stateMutability": "view",
					"type": "function"
				},
				{
					"inputs": [],
					"name": "returnMany",
					"outputs": [
						{
							"internalType": "uint256",
							"name": "",
							"type": "uint256"
						},
						{
							"internalType": "bool",
							"name": "",
							"type": "bool"
						},
						{
							"internalType": "string",
							"name": "",
							"type": "string"
						}
					],
					"stateMutability": "pure",
					"type": "function"
				},
				{
					"inputs": [],
					"name": "returnMany2",
					"outputs": [
						{
							"internalType": "uint256",
							"name": "",
							"type": "uint256"
						},
						{
							"internalType": "bool",
							"name": "",
							"type": "bool"
						},
						{
							"internalType": "string",
							"name": "",
							"type": "string"
						}
					],
					"stateMutability": "view",
					"type": "function"
				},
				{
					"inputs": [],
					"name": "returnMany3",
					"outputs": [
						{
							"internalType": "uint256",
							"name": "x",
							"type": "uint256"
						},
						{
							"internalType": "bool",
							"name": "b",
							"type": "bool"
						},
						{
							"internalType": "string",
							"name": "text",
							"type": "string"
						}
					],
					"stateMutability": "view",
					"type": "function"
				},
				{
					"inputs": [],
					"name": "returnMany4",
					"outputs": [
						{
							"internalType": "uint256",
							"name": "i",
							"type": "uint256"
						},
						{
							"internalType": "bool",
							"name": "b",
							"type": "bool"
						},
						{
							"internalType": "string",
							"name": "text",
							"type": "string"
						},
						{
							"internalType": "uint256",
							"name": "x",
							"type": "uint256"
						},
						{
							"internalType": "uint256",
							"name": "y",
							"type": "uint256"
						}
					],
					"stateMutability": "view",
					"type": "function"
				}
			],
			"devdoc": {
				"kind": "dev",
				"methods": {},
				"version": 1
			},
			"evm": {
				"assembly": "    /* \"example/function.sol\":63:1012  contract Function{... */\n  mstore(0x40, 0x80)\n    /* \"example/function.sol\":105:107  10 */\n  0x0a\n    /* \"example/function.sol\":87:107  uint public num = 10 */\n  0x00\n  sstore\n    /* \"example/function.sol\":63:1012  contract Function{... */\n  callvalue\n  dup1\n  iszero\n  tag_1\n  jumpi\n  revert(0x00, 0x00)\ntag_1:\n  pop\n  dataSize(sub_0)\n  dup1\n  dataOffset(sub_0)\n  0x00\n  codecopy\n  0x00\n  return\nstop\n\nsub_0: assembly {\n        /* \"example/function.sol\":63:1012  contract Function{... */\n      mstore(0x40, 0x80)\n      callvalue\n      dup1\n      iszero\n      tag_1\n      jumpi\n      revert(0x00, 0x00)\n    tag_1:\n      pop\n      jumpi(tag_2, lt(calldatasize, 0x04))\n      shr(0xe0, calldataload(0x00))\n      dup1\n      0x4e70b1dc\n      eq\n      tag_3\n      jumpi\n      dup1\n      0x65fd8204\n      eq\n      tag_4\n      jumpi\n      dup1\n      0x86887544\n      eq\n      tag_5\n      jumpi\n      dup1\n      0xbeab11c9\n      eq\n      tag_6\n      jumpi\n      dup1\n      0xe87e3e29\n      eq\n      tag_7\n      jumpi\n    tag_2:\n      revert(0x00, 0x00)\n        /* \"example/function.sol\":87:107  uint public num = 10 */\n    tag_3:\n      tag_8\n      tag_9\n      jump\t// in\n    tag_8:\n      mload(0x40)\n      tag_10\n      swap2\n      swap1\n      tag_11\n      jump\t// in\n    tag_10:\n      mload(0x40)\n      dup1\n      swap2\n      sub\n      swap1\n      return\n        /* \"example/function.sol\":376:527  function returnMany2() public view returns (uint, bool, string memory){... */\n    tag_4:\n      tag_12\n      tag_13\n      jump\t// in\n    tag_12:\n      mload(0x40)\n      tag_14\n      swap4\n      swap3\n      swap2\n      swap1\n      tag_15\n      jump\t// in\n    tag_14:\n      mload(0x40)\n      dup1\n      swap2\n      sub\n      swap1\n      return\n        /* \"example/function.sol\":184:298  function returnMany() public pure returns(uint, bool, string memory){... */\n    tag_5:\n      tag_16\n      tag_17\n      jump\t// in\n    tag_16:\n      mload(0x40)\n      tag_18\n      swap4\n      swap3\n      swap2\n      swap1\n      tag_15\n      jump\t// in\n    tag_18:\n      mload(0x40)\n      dup1\n      swap2\n      sub\n      swap1\n      return\n        /* \"example/function.sol\":572:727  function returnMany3() public view returns (uint x, bool b, string memory text){... */\n    tag_6:\n      tag_19\n      tag_20\n      jump\t// in\n    tag_19:\n      mload(0x40)\n      tag_21\n      swap4\n      swap3\n      swap2\n      swap1\n      tag_15\n      jump\t// in\n    tag_21:\n      mload(0x40)\n      dup1\n      swap2\n      sub\n      swap1\n      return\n        /* \"example/function.sol\":765:931  function returnMany4() public view returns(uint i, bool b, string memory text, uint x,uint y){... */\n    tag_7:\n      tag_22\n      tag_23\n      jump\t// in\n    tag_22:\n      mload(0x40)\n      tag_24\n      swap6\n      swap5\n      swap4\n      swap3\n      swap2\n      swap1\n      tag_25\n      jump\t// in\n    tag_24:\n      mload(0x40)\n      dup1\n      swap2\n      sub\n      swap1\n      return\n        /* \"example/function.sol\":87:107  uint public num = 10 */\n    tag_9:\n      sload(0x00)\n      dup2\n      jump\t// out\n        /* \"example/function.sol\":376:527  function returnMany2() public view returns (uint, bool, string memory){... */\n    tag_13:\n        /* \"example/function.sol\":420:424  uint */\n      0x00\n        /* \"example/function.sol\":426:430  bool */\n      0x00\n        /* \"example/function.sol\":432:445  string memory */\n      0x60\n        /* \"example/function.sol\":457:475  string memory text */\n      0x00\n        /* \"example/function.sol\":457:484  string memory text = \"lisi\" */\n      mload(0x40)\n      dup1\n      0x40\n      add\n      0x40\n      mstore\n      dup1\n      0x04\n      dup2\n      mstore\n      0x20\n      add\n      0x6c69736900000000000000000000000000000000000000000000000000000000\n      dup2\n      mstore\n      pop\n      swap1\n      pop\n        /* \"example/function.sol\":503:506  num */\n      sload(0x00)\n        /* \"example/function.sol\":508:512  true */\n      0x01\n        /* \"example/function.sol\":514:518  text */\n      dup3\n        /* \"example/function.sol\":495:519  return (num, true, text) */\n      swap4\n      pop\n      swap4\n      pop\n      swap4\n      pop\n      pop\n        /* \"example/function.sol\":376:527  function returnMany2() public view returns (uint, bool, string memory){... */\n      swap1\n      swap2\n      swap3\n      jump\t// out\n        /* \"example/function.sol\":184:298  function returnMany() public pure returns(uint, bool, string memory){... */\n    tag_17:\n        /* \"example/function.sol\":226:230  uint */\n      0x00\n        /* \"example/function.sol\":232:236  bool */\n      0x00\n        /* \"example/function.sol\":238:251  string memory */\n      0x60\n        /* \"example/function.sol\":271:273  10 */\n      0x0a\n        /* \"example/function.sol\":274:278  true */\n      0x01\n        /* \"example/function.sol\":263:290  return (10,true,\"zhangsan\") */\n      mload(0x40)\n      dup1\n      0x40\n      add\n      0x40\n      mstore\n      dup1\n      0x08\n      dup2\n      mstore\n      0x20\n      add\n      0x7a68616e6773616e000000000000000000000000000000000000000000000000\n      dup2\n      mstore\n      pop\n      swap3\n      pop\n      swap3\n      pop\n      swap3\n      pop\n        /* \"example/function.sol\":184:298  function returnMany() public pure returns(uint, bool, string memory){... */\n      swap1\n      swap2\n      swap3\n      jump\t// out\n        /* \"example/function.sol\":572:727  function returnMany3() public view returns (uint x, bool b, string memory text){... */\n    tag_20:\n        /* \"example/function.sol\":616:622  uint x */\n      0x00\n        /* \"example/function.sol\":624:630  bool b */\n      0x00\n        /* \"example/function.sol\":632:650  string memory text */\n      0x60\n        /* \"example/function.sol\":666:669  num */\n      sload(0x00)\n        /* \"example/function.sol\":662:669  x = num */\n      swap3\n      pop\n        /* \"example/function.sol\":684:688  true */\n      0x01\n        /* \"example/function.sol\":680:688  b = true */\n      swap2\n      pop\n        /* \"example/function.sol\":699:719  text = \"hello world\" */\n      mload(0x40)\n      dup1\n      0x40\n      add\n      0x40\n      mstore\n      dup1\n      0x0b\n      dup2\n      mstore\n      0x20\n      add\n      0x68656c6c6f20776f726c64000000000000000000000000000000000000000000\n      dup2\n      mstore\n      pop\n      swap1\n      pop\n        /* \"example/function.sol\":572:727  function returnMany3() public view returns (uint x, bool b, string memory text){... */\n      swap1\n      swap2\n      swap3\n      jump\t// out\n        /* \"example/function.sol\":765:931  function returnMany4() public view returns(uint i, bool b, string memory text, uint x,uint y){... */\n    tag_23:\n        /* \"example/function.sol\":808:814  uint i */\n      0x00\n        /* \"example/function.sol\":816:822  bool b */\n      0x00\n        /* \"example/function.sol\":824:842  string memory text */\n      0x60\n        /* \"example/function.sol\":844:850  uint x */\n      0x00\n        /* \"example/function.sol\":851:857  uint y */\n      0x00\n        /* \"example/function.sol\":882:895  returnMany2() */\n      tag_30\n        /* \"example/function.sol\":882:893  returnMany2 */\n      tag_13\n        /* \"example/function.sol\":882:895  returnMany2() */\n      jump\t// in\n    tag_30:\n        /* \"example/function.sol\":869:895  (i,b,text) = returnMany2() */\n      dup1\n      swap6\n      pop\n      dup2\n      swap7\n      pop\n      dup3\n      swap8\n      pop\n      pop\n      pop\n      pop\n        /* \"example/function.sol\":916:918  10 */\n      0x0a\n        /* \"example/function.sol\":920:922  20 */\n      0x14\n        /* \"example/function.sol\":906:923  (x, y) = (10, 20) */\n      dup1\n      swap3\n      pop\n      dup2\n      swap4\n      pop\n      pop\n      pop\n        /* \"example/function.sol\":765:931  function returnMany4() public view returns(uint i, bool b, string memory text, uint x,uint y){... */\n      swap1\n      swap2\n      swap3\n      swap4\n      swap5\n      jump\t// out\n        /* \"#utility.yul\":7:84   */\n    tag_31:\n        /* \"#utility.yul\":44:51   */\n      0x00\n        /* \"#utility.yul\":73:78   */\n      dup2\n        /* \"#utility.yul\":62:78   */\n      swap1\n      pop\n        /* \"#utility.yul\":7:84   */\n      swap2\n      swap1\n      pop\n      jump\t// out\n        /* \"#utility.yul\":90:208   */\n    tag_32:\n        /* \"#utility.yul\":177:201   */\n      tag_43\n        /* \"#utility.yul\":195:200   */\n      dup2\n        /* \"#utility.yul\":177:201   */\n      tag_31\n      jump\t// in\n    tag_43:\n        /* \"#utility.yul\":172:175   */\n      dup3\n        /* \"#utility.yul\":165:202   */\n      mstore\n        /* \"#utility.yul\":90:208   */\n      pop\n      pop\n      jump\t// out\n        /* \"#utility.yul\":214:436   */\n    tag_11:\n        /* \"#utility.yul\":307:311   */\n      0x00\n        /* \"#utility.yul\":345:347   */\n      0x20\n        /* \"#utility.yul\":334:343   */\n      dup3\n        /* \"#utility.yul\":330:348   */\n      add\n        /* \"#utility.yul\":322:348   */\n      swap1\n      pop\n        /* \"#utility.yul\":358:429   */\n      tag_45\n        /* \"#utility.yul\":426:427   */\n      0x00\n        /* \"#utility.yul\":415:424   */\n      dup4\n        /* \"#utility.yul\":411:428   */\n      add\n        /* \"#utility.yul\":402:408   */\n      dup5\n        /* \"#utility.yul\":358:429   */\n      tag_32\n      jump\t// in\n    tag_45:\n        /* \"#utility.yul\":214:436   */\n      swap3\n      swap2\n      pop\n      pop\n      jump\t// out\n        /* \"#utility.yul\":442:532   */\n    tag_33:\n        /* \"#utility.yul\":476:483   */\n      0x00\n        /* \"#utility.yul\":519:524   */\n      dup2\n        /* \"#utility.yul\":512:525   */\n      iszero\n        /* \"#utility.yul\":505:526   */\n      iszero\n        /* \"#utility.yul\":494:526   */\n      swap1\n      pop\n        /* \"#utility.yul\":442:532   */\n      swap2\n      swap1\n      pop\n      jump\t// out\n        /* \"#utility.yul\":538:647   */\n    tag_34:\n        /* \"#utility.yul\":619:640   */\n      tag_48\n        /* \"#utility.yul\":634:639   */\n      dup2\n        /* \"#utility.yul\":619:640   */\n      tag_33\n      jump\t// in\n    tag_48:\n        /* \"#utility.yul\":614:617   */\n      dup3\n        /* \"#utility.yul\":607:641   */\n      mstore\n        /* \"#utility.yul\":538:647   */\n      pop\n      pop\n      jump\t// out\n        /* \"#utility.yul\":653:752   */\n    tag_35:\n        /* \"#utility.yul\":705:711   */\n      0x00\n        /* \"#utility.yul\":739:744   */\n      dup2\n        /* \"#utility.yul\":733:745   */\n      mload\n        /* \"#utility.yul\":723:745   */\n      swap1\n      pop\n        /* \"#utility.yul\":653:752   */\n      swap2\n      swap1\n      pop\n      jump\t// out\n        /* \"#utility.yul\":758:927   */\n    tag_36:\n        /* \"#utility.yul\":842:853   */\n      0x00\n        /* \"#utility.yul\":876:882   */\n      dup3\n        /* \"#utility.yul\":871:874   */\n      dup3\n        /* \"#utility.yul\":864:883   */\n      mstore\n        /* \"#utility.yul\":916:920   */\n      0x20\n        /* \"#utility.yul\":911:914   */\n      dup3\n        /* \"#utility.yul\":907:921   */\n      add\n        /* \"#utility.yul\":892:921   */\n      swap1\n      pop\n        /* \"#utility.yul\":758:927   */\n      swap3\n      swap2\n      pop\n      pop\n      jump\t// out\n        /* \"#utility.yul\":933:1072   */\n    tag_37:\n        /* \"#utility.yul\":1022:1028   */\n      dup3\n        /* \"#utility.yul\":1017:1020   */\n      dup2\n        /* \"#utility.yul\":1012:1015   */\n      dup4\n        /* \"#utility.yul\":1006:1029   */\n      mcopy\n        /* \"#utility.yul\":1063:1064   */\n      0x00\n        /* \"#utility.yul\":1054:1060   */\n      dup4\n        /* \"#utility.yul\":1049:1052   */\n      dup4\n        /* \"#utility.yul\":1045:1061   */\n      add\n        /* \"#utility.yul\":1038:1065   */\n      mstore\n        /* \"#utility.yul\":933:1072   */\n      pop\n      pop\n      pop\n      jump\t// out\n        /* \"#utility.yul\":1078:1180   */\n    tag_38:\n        /* \"#utility.yul\":1119:1125   */\n      0x00\n        /* \"#utility.yul\":1170:1172   */\n      0x1f\n        /* \"#utility.yul\":1166:1173   */\n      not\n        /* \"#utility.yul\":1161:1163   */\n      0x1f\n        /* \"#utility.yul\":1154:1159   */\n      dup4\n        /* \"#utility.yul\":1150:1164   */\n      add\n        /* \"#utility.yul\":1146:1174   */\n      and\n        /* \"#utility.yul\":1136:1174   */\n      swap1\n      pop\n        /* \"#utility.yul\":1078:1180   */\n      swap2\n      swap1\n      pop\n      jump\t// out\n        /* \"#utility.yul\":1186:1563   */\n    tag_39:\n        /* \"#utility.yul\":1274:1277   */\n      0x00\n        /* \"#utility.yul\":1302:1341   */\n      tag_54\n        /* \"#utility.yul\":1335:1340   */\n      dup3\n        /* \"#utility.yul\":1302:1341   */\n      tag_35\n      jump\t// in\n    tag_54:\n        /* \"#utility.yul\":1357:1428   */\n      tag_55\n        /* \"#utility.yul\":1421:1427   */\n      dup2\n        /* \"#utility.yul\":1416:1419   */\n      dup6\n        /* \"#utility.yul\":1357:1428   */\n      tag_36\n      jump\t// in\n    tag_55:\n        /* \"#utility.yul\":1350:1428   */\n      swap4\n      pop\n        /* \"#utility.yul\":1437:1502   */\n      tag_56\n        /* \"#utility.yul\":1495:1501   */\n      dup2\n        /* \"#utility.yul\":1490:1493   */\n      dup6\n        /* \"#utility.yul\":1483:1487   */\n      0x20\n        /* \"#utility.yul\":1476:1481   */\n      dup7\n        /* \"#utility.yul\":1472:1488   */\n      add\n        /* \"#utility.yul\":1437:1502   */\n      tag_37\n      jump\t// in\n    tag_56:\n        /* \"#utility.yul\":1527:1556   */\n      tag_57\n        /* \"#utility.yul\":1549:1555   */\n      dup2\n        /* \"#utility.yul\":1527:1556   */\n      tag_38\n      jump\t// in\n    tag_57:\n        /* \"#utility.yul\":1522:1525   */\n      dup5\n        /* \"#utility.yul\":1518:1557   */\n      add\n        /* \"#utility.yul\":1511:1557   */\n      swap2\n      pop\n        /* \"#utility.yul\":1278:1563   */\n      pop\n        /* \"#utility.yul\":1186:1563   */\n      swap3\n      swap2\n      pop\n      pop\n      jump\t// out\n        /* \"#utility.yul\":1569:2090   */\n    tag_15:\n        /* \"#utility.yul\":1732:1736   */\n      0x00\n        /* \"#utility.yul\":1770:1772   */\n      0x60\n        /* \"#utility.yul\":1759:1768   */\n      dup3\n        /* \"#utility.yul\":1755:1773   */\n      add\n        /* \"#utility.yul\":1747:1773   */\n      swap1\n      pop\n        /* \"#utility.yul\":1783:1854   */\n      tag_59\n        /* \"#utility.yul\":1851:1852   */\n      0x00\n        /* \"#utility.yul\":1840:1849   */\n      dup4\n        /* \"#utility.yul\":1836:1853   */\n      add\n        /* \"#utility.yul\":1827:1833   */\n      dup7\n        /* \"#utility.yul\":1783:1854   */\n      tag_32\n      jump\t// in\n    tag_59:\n        /* \"#utility.yul\":1864:1930   */\n      tag_60\n        /* \"#utility.yul\":1926:1928   */\n      0x20\n        /* \"#utility.yul\":1915:1924   */\n      dup4\n        /* \"#utility.yul\":1911:1929   */\n      add\n        /* \"#utility.yul\":1902:1908   */\n      dup6\n        /* \"#utility.yul\":1864:1930   */\n      tag_34\n      jump\t// in\n    tag_60:\n        /* \"#utility.yul\":1977:1986   */\n      dup2\n        /* \"#utility.yul\":1971:1975   */\n      dup2\n        /* \"#utility.yul\":1967:1987   */\n      sub\n        /* \"#utility.yul\":1962:1964   */\n      0x40\n        /* \"#utility.yul\":1951:1960   */\n      dup4\n        /* \"#utility.yul\":1947:1965   */\n      add\n        /* \"#utility.yul\":1940:1988   */\n      mstore\n        /* \"#utility.yul\":2005:2083   */\n      tag_61\n        /* \"#utility.yul\":2078:2082   */\n      dup2\n        /* \"#utility.yul\":2069:2075   */\n      dup5\n        /* \"#utility.yul\":2005:2083   */\n      tag_39\n      jump\t// in\n    tag_61:\n        /* \"#utility.yul\":1997:2083   */\n      swap1\n      pop\n        /* \"#utility.yul\":1569:2090   */\n      swap5\n      swap4\n      pop\n      pop\n      pop\n      pop\n      jump\t// out\n        /* \"#utility.yul\":2096:2839   */\n    tag_25:\n        /* \"#utility.yul\":2315:2319   */\n      0x00\n        /* \"#utility.yul\":2353:2356   */\n      0xa0\n        /* \"#utility.yul\":2342:2351   */\n      dup3\n        /* \"#utility.yul\":2338:2357   */\n      add\n        /* \"#utility.yul\":2330:2357   */\n      swap1\n      pop\n        /* \"#utility.yul\":2367:2438   */\n      tag_63\n        /* \"#utility.yul\":2435:2436   */\n      0x00\n        /* \"#utility.yul\":2424:2433   */\n      dup4\n        /* \"#utility.yul\":2420:2437   */\n      add\n        /* \"#utility.yul\":2411:2417   */\n      dup9\n        /* \"#utility.yul\":2367:2438   */\n      tag_32\n      jump\t// in\n    tag_63:\n        /* \"#utility.yul\":2448:2514   */\n      tag_64\n        /* \"#utility.yul\":2510:2512   */\n      0x20\n        /* \"#utility.yul\":2499:2508   */\n      dup4\n        /* \"#utility.yul\":2495:2513   */\n      add\n        /* \"#utility.yul\":2486:2492   */\n      dup8\n        /* \"#utility.yul\":2448:2514   */\n      tag_34\n      jump\t// in\n    tag_64:\n        /* \"#utility.yul\":2561:2570   */\n      dup2\n        /* \"#utility.yul\":2555:2559   */\n      dup2\n        /* \"#utility.yul\":2551:2571   */\n      sub\n        /* \"#utility.yul\":2546:2548   */\n      0x40\n        /* \"#utility.yul\":2535:2544   */\n      dup4\n        /* \"#utility.yul\":2531:2549   */\n      add\n        /* \"#utility.yul\":2524:2572   */\n      mstore\n        /* \"#utility.yul\":2589:2667   */\n      tag_65\n        /* \"#utility.yul\":2662:2666   */\n      dup2\n        /* \"#utility.yul\":2653:2659   */\n      dup7\n        /* \"#utility.yul\":2589:2667   */\n      tag_39\n      jump\t// in\n    tag_65:\n        /* \"#utility.yul\":2581:2667   */\n      swap1\n      pop\n        /* \"#utility.yul\":2677:2749   */\n      tag_66\n        /* \"#utility.yul\":2745:2747   */\n      0x60\n        /* \"#utility.yul\":2734:2743   */\n      dup4\n        /* \"#utility.yul\":2730:2748   */\n      add\n        /* \"#utility.yul\":2721:2727   */\n      dup6\n        /* \"#utility.yul\":2677:2749   */\n      tag_32\n      jump\t// in\n    tag_66:\n        /* \"#utility.yul\":2759:2832   */\n      tag_67\n        /* \"#utility.yul\":2827:2830   */\n      0x80\n        /* \"#utility.yul\":2816:2825   */\n      dup4\n        /* \"#utility.yul\":2812:2831   */\n      add\n        /* \"#utility.yul\":2803:2809   */\n      dup5\n        /* \"#utility.yul\":2759:2832   */\n      tag_32\n      jump\t// in\n    tag_67:\n        /* \"#utility.yul\":2096:2839   */\n      swap7\n      swap6\n      pop\n      pop\n      pop\n      pop\n      pop\n      pop\n      jump\t// out\n\n    auxdata: 0xa264697066735822122076021b12c09ffea3652a563618715f0f13edf7e65b21c974e87e54317ce74f5064736f6c634300081e0033\n}\n",
				"bytecode": {
					"linkReferences": {},
					"object": "6080604052600a5f553480156012575f5ffd5b50610390806100205f395ff3fe608060405234801561000f575f5ffd5b5060043610610055575f3560e01c80634e70b1dc1461005957806365fd8204146100775780638688754414610097578063beab11c9146100b7578063e87e3e29146100d7575b5f5ffd5b6100616100f9565b60405161006e9190610223565b60405180910390f35b61007f6100fe565b60405161008e939291906102c6565b60405180910390f35b61009f61014c565b6040516100ae939291906102c6565b60405180910390f35b6100bf610195565b6040516100ce939291906102c6565b60405180910390f35b6100df6101de565b6040516100f0959493929190610302565b60405180910390f35b5f5481565b5f5f60605f6040518060400160405280600481526020017f6c6973690000000000000000000000000000000000000000000000000000000081525090505f5460018293509350935050909192565b5f5f6060600a60016040518060400160405280600881526020017f7a68616e6773616e000000000000000000000000000000000000000000000000815250925092509250909192565b5f5f60605f549250600191506040518060400160405280600b81526020017f68656c6c6f20776f726c640000000000000000000000000000000000000000008152509050909192565b5f5f60605f5f6101ec6100fe565b809550819650829750505050600a601480925081935050509091929394565b5f819050919050565b61021d8161020b565b82525050565b5f6020820190506102365f830184610214565b92915050565b5f8115159050919050565b6102508161023c565b82525050565b5f81519050919050565b5f82825260208201905092915050565b8281835e5f83830152505050565b5f601f19601f8301169050919050565b5f61029882610256565b6102a28185610260565b93506102b2818560208601610270565b6102bb8161027e565b840191505092915050565b5f6060820190506102d95f830186610214565b6102e66020830185610247565b81810360408301526102f8818461028e565b9050949350505050565b5f60a0820190506103155f830188610214565b6103226020830187610247565b8181036040830152610334818661028e565b90506103436060830185610214565b6103506080830184610214565b969550505050505056fea264697066735822122076021b12c09ffea3652a563618715f0f13edf7e65b21c974e87e54317ce74f5064736f6c634300081e0033",
					"opcodes": "PUSH1 0x80 PUSH1 0x40 MSTORE PUSH1 0xA PUSH0 SSTORE CALLVALUE DUP1 ISZERO PUSH1 0x12 JUMPI PUSH0 PUSH0 REVERT JUMPDEST POP PUSH2 0x390 DUP1 PUSH2 0x20 PUSH0 CODECOPY PUSH0 RETURN INVALID PUSH1 0x80 PUSH1 0x40 MSTORE CALLVALUE DUP1 ISZERO PUSH2 0xF JUMPI PUSH0 PUSH0 REVERT JUMPDEST POP PUSH1 0x4 CALLDATASIZE LT PUSH2 0x55 JUMPI PUSH0 CALLDATALOAD PUSH1 0xE0 SHR DUP1 PUSH4 0x4E70B1DC EQ PUSH2 0x59 JUMPI DUP1 PUSH4 0x65FD8204 EQ PUSH2 0x77 JUMPI DUP1 PUSH4 0x86887544 EQ PUSH2 0x97 JUMPI DUP1 PUSH4 0xBEAB11C9 EQ PUSH2 0xB7 JUMPI DUP1 PUSH4 0xE87E3E29 EQ PUSH2 0xD7 JUMPI JUMPDEST PUSH0 PUSH0 REVERT JUMPDEST PUSH2 0x61 PUSH2 0xF9 JUMP JUMPDEST PUSH1 0x40 MLOAD PUSH2 0x6E SWAP2 SWAP1 PUSH2 0x223 JUMP JUMPDEST PUSH1 0x40 MLOAD DUP1 SWAP2 SUB SWAP1 RETURN JUMPDEST PUSH2 0x7F PUSH2 0xFE JUMP JUMPDEST PUSH1 0x40 MLOAD PUSH2 0x8E SWAP4 SWAP3 SWAP2 SWAP1 PUSH2 0x2C6 JUMP JUMPDEST PUSH1 0x40 MLOAD DUP1 SWAP2 SUB SWAP1 RETURN JUMPDEST PUSH2 0x9F PUSH2 0x14C JUMP JUMPDEST PUSH1 0x40 MLOAD PUSH2 0xAE SWAP4 SWAP3 SWAP2 SWAP1 PUSH2 0x2C6 JUMP JUMPDEST PUSH1 0x40 MLOAD DUP1 SWAP2 SUB SWAP1 RETURN JUMPDEST PUSH2 0xBF PUSH2 0x195 JUMP JUMPDEST PUSH1 0x40 MLOAD PUSH2 0xCE SWAP4 SWAP3 SWAP2 SWAP1 PUSH2 0x2C6 JUMP JUMPDEST PUSH1 0x40 MLOAD DUP1 SWAP2 SUB SWAP1 RETURN JUMPDEST PUSH2 0xDF PUSH2 0x1DE JUMP JUMPDEST PUSH1 0x40 MLOAD PUSH2 0xF0 SWAP6 SWAP5 SWAP4 SWAP3 SWAP2 SWAP1 PUSH2 0x302 JUMP JUMPDEST PUSH1 0x40 MLOAD DUP1 SWAP2 SUB SWAP1 RETURN JUMPDEST PUSH0 SLOAD DUP2 JUMP JUMPDEST PUSH0 PUSH0 PUSH1 0x60 PUSH0 PUSH1 0x40 MLOAD DUP1 PUSH1 0x40 ADD PUSH1 0x40 MSTORE DUP1 PUSH1 0x4 DUP2 MSTORE PUSH1 0x20 ADD PUSH32 0x6C69736900000000000000000000000000000000000000000000000000000000 DUP2 MSTORE POP SWAP1 POP PUSH0 SLOAD PUSH1 0x1 DUP3 SWAP4 POP SWAP4 POP SWAP4 POP POP SWAP1 SWAP2 SWAP3 JUMP JUMPDEST PUSH0 PUSH0 PUSH1 0x60 PUSH1 0xA PUSH1 0x1 PUSH1 0x40 MLOAD DUP1 PUSH1 0x40 ADD PUSH1 0x40 MSTORE DUP1 PUSH1 0x8 DUP2 MSTORE PUSH1 0x20 ADD PUSH32 0x7A68616E6773616E000000000000000000000000000000000000000000000000 DUP2 MSTORE POP SWAP3 POP SWAP3 POP SWAP3 POP SWAP1 SWAP2 SWAP3 JUMP JUMPDEST PUSH0 PUSH0 PUSH1 0x60 PUSH0 SLOAD SWAP3 POP PUSH1 0x1 SWAP2 POP PUSH1 0x40 MLOAD DUP1 PUSH1 0x40 ADD PUSH1 0x40 MSTORE DUP1 PUSH1 0xB DUP2 MSTORE PUSH1 0x20 ADD PUSH32 0x68656C6C6F20776F726C64000000000000000000000000000000000000000000 DUP2 MSTORE POP SWAP1 POP SWAP1 SWAP2 SWAP3 JUMP JUMPDEST PUSH0 PUSH0 PUSH1 0x60 PUSH0 PUSH0 PUSH2 0x1EC PUSH2 0xFE JUMP JUMPDEST DUP1 SWAP6 POP DUP2 SWAP7 POP DUP3 SWAP8 POP POP POP POP PUSH1 0xA PUSH1 0x14 DUP1 SWAP3 POP DUP2 SWAP4 POP POP POP SWAP1 SWAP2 SWAP3 SWAP4 SWAP5 JUMP JUMPDEST PUSH0 DUP2 SWAP1 POP SWAP2 SWAP1 POP JUMP JUMPDEST PUSH2 0x21D DUP2 PUSH2 0x20B JUMP JUMPDEST DUP3 MSTORE POP POP JUMP JUMPDEST PUSH0 PUSH1 0x20 DUP3 ADD SWAP1 POP PUSH2 0x236 PUSH0 DUP4 ADD DUP5 PUSH2 0x214 JUMP JUMPDEST SWAP3 SWAP2 POP POP JUMP JUMPDEST PUSH0 DUP2 ISZERO ISZERO SWAP1 POP SWAP2 SWAP1 POP JUMP JUMPDEST PUSH2 0x250 DUP2 PUSH2 0x23C JUMP JUMPDEST DUP3 MSTORE POP POP JUMP JUMPDEST PUSH0 DUP2 MLOAD SWAP1 POP SWAP2 SWAP1 POP JUMP JUMPDEST PUSH0 DUP3 DUP3 MSTORE PUSH1 0x20 DUP3 ADD SWAP1 POP SWAP3 SWAP2 POP POP JUMP JUMPDEST DUP3 DUP2 DUP4 MCOPY PUSH0 DUP4 DUP4 ADD MSTORE POP POP POP JUMP JUMPDEST PUSH0 PUSH1 0x1F NOT PUSH1 0x1F DUP4 ADD AND SWAP1 POP SWAP2 SWAP1 POP JUMP JUMPDEST PUSH0 PUSH2 0x298 DUP3 PUSH2 0x256 JUMP JUMPDEST PUSH2 0x2A2 DUP2 DUP6 PUSH2 0x260 JUMP JUMPDEST SWAP4 POP PUSH2 0x2B2 DUP2 DUP6 PUSH1 0x20 DUP7 ADD PUSH2 0x270 JUMP JUMPDEST PUSH2 0x2BB DUP2 PUSH2 0x27E JUMP JUMPDEST DUP5 ADD SWAP2 POP POP SWAP3 SWAP2 POP POP JUMP JUMPDEST PUSH0 PUSH1 0x60 DUP3 ADD SWAP1 POP PUSH2 0x2D9 PUSH0 DUP4 ADD DUP7 PUSH2 0x214 JUMP JUMPDEST PUSH2 0x2E6 PUSH1 0x20 DUP4 ADD DUP6 PUSH2 0x247 JUMP JUMPDEST DUP2 DUP2 SUB PUSH1 0x40 DUP4 ADD MSTORE PUSH2 0x2F8 DUP2 DUP5 PUSH2 0x28E JUMP JUMPDEST SWAP1 POP SWAP5 SWAP4 POP POP POP POP JUMP JUMPDEST PUSH0 PUSH1 0xA0 DUP3 ADD SWAP1 POP PUSH2 0x315 PUSH0 DUP4 ADD DUP9 PUSH2 0x214 JUMP JUMPDEST PUSH2 0x322 PUSH1 0x20 DUP4 ADD DUP8 PUSH2 0x247 JUMP JUMPDEST DUP2 DUP2 SUB PUSH1 0x40 DUP4 ADD MSTORE PUSH2 0x334 DUP2 DUP7 PUSH2 0x28E JUMP JUMPDEST SWAP1 POP PUSH2 0x343 PUSH1 0x60 DUP4 ADD DUP6 PUSH2 0x214 JUMP JUMPDEST PUSH2 0x350 PUSH1 0x80 DUP4 ADD DUP5 PUSH2 0x214 JUMP JUMPDEST SWAP7 SWAP6 POP POP POP POP POP POP JUMP INVALID LOG2 PUSH5 0x6970667358 0x22 SLT KECCAK256 PUSH23 0x21B12C09FFEA3652A563618715F0F13EDF7E65B21C974 0xE8 PUSH31 0x54317CE74F5064736F6C634300081E00330000000000000000000000000000 "
				},
				"gasEstimates": {
					"creation": {
						"codeDepositCost": "182400",
						"executionCost": "22329",
						"totalCost": "204729"
					},
					"external": {
						"num()": "2402",
						"returnMany()": "infinite",
						"returnMany2()": "infinite",
						"returnMany3()": "infinite",
						"returnMany4()": "infinite"
					}
				},
				"methodIdentifiers": {
					"num()": "4e70b1dc",
					"returnMany()": "86887544",
					"returnMany2()": "65fd8204",
					"returnMany3()": "beab11c9",
					"returnMany4()": "e87e3e29"
				}
			},
			"storageLayout": {
				"storage": [
					{
						"astId": 4,
						"contract": "example/function.sol:Function",
						"label": "num",
						"offset": 0,
						"slot": "0",
						"type": "t_uint256"
					}
				],
				"types": {
					"t_uint256": {
						"encoding": "inplace",
						"label": "uint256",
						"numberOfBytes": "32"
					}
				}
			},
			"userdoc": {
				"kind": "user",
				"methods": {},
				"version": 1
			}
		}
	}
}