{
	"example/simpleStorage.sol": {
		"SimpleStorage": {
			"abi": [
				{
					"inputs": [
						{
							"internalType": "uint256",
							"name": "_age",
							"type": "uint256"
						},
						{
							"internalType": "string",
							"name": "_name",
							"type": "string"
						}
					],
					"name": "AddPeson",
					"outputs": [],
					"stateMutability": "nonpayable",
					"type": "function"
				},
				{
					"inputs": [
						{
							"internalType": "string",
							"name": "_name",
							"type": "string"
						}
					],
					"name": "GetAgeByName",
					"outputs": [
						{
							"internalType": "uint256",
							"name": "",
							"type": "uint256"
						}
					],
					"stateMutability": "view",
					"type": "function"
				},
				{
					"inputs": [],
					"name": "GetPeson",
					"outputs": [
						{
							"components": [
								{
									"internalType": "uint256",
									"name": "age",
									"type": "uint256"
								},
								{
									"internalType": "string",
									"name": "name",
									"type": "string"
								}
							],
							"internalType": "struct SimpleStorage.People[]",
							"name": "",
							"type": "tuple[]"
						}
					],
					"stateMutability": "view",
					"type": "function"
				},
				{
					"inputs": [],
					"name": "get",
					"outputs": [
						{
							"internalType": "uint256",
							"name": "",
							"type": "uint256"
						}
					],
					"stateMutability": "view",
					"type": "function"
				},
				{
					"inputs": [
						{
							"internalType": "string",
							"name": "",
							"type": "string"
						}
					],
					"name": "nameToAge",
					"outputs": [
						{
							"internalType": "uint256",
							"name": "",
							"type": "uint256"
						}
					],
					"stateMutability": "view",
					"type": "function"
				},
				{
					"inputs": [
						{
							"internalType": "uint256",
							"name": "",
							"type": "uint256"
						}
					],
					"name": "pesons",
					"outputs": [
						{
							"internalType": "uint256",
							"name": "age",
							"type": "uint256"
						},
						{
							"internalType": "string",
							"name": "name",
							"type": "string"
						}
					],
					"stateMutability": "view",
					"type": "function"
				},
				{
					"inputs": [
						{
							"internalType": "uint256",
							"name": "_num",
							"type": "uint256"
						}
					],
					"name": "store",
					"outputs": [],
					"stateMutability": "nonpayable",
					"type": "function"
				}
			],
			"devdoc": {
				"kind": "dev",
				"methods": {},
				"version": 1
			},
			"evm": {
				"assembly": "    /* \"example/simpleStorage.sol\":65:1149  contract SimpleStorage{... */\n  mstore(0x40, 0x80)\n  callvalue\n  dup1\n  iszero\n  tag_1\n  jumpi\n  revert(0x00, 0x00)\ntag_1:\n  pop\n  dataSize(sub_0)\n  dup1\n  dataOffset(sub_0)\n  0x00\n  codecopy\n  0x00\n  return\nstop\n\nsub_0: assembly {\n        /* \"example/simpleStorage.sol\":65:1149  contract SimpleStorage{... */\n      mstore(0x40, 0x80)\n      callvalue\n      dup1\n      iszero\n      tag_1\n      jumpi\n      revert(0x00, 0x00)\n    tag_1:\n      pop\n      jumpi(tag_2, lt(calldatasize, 0x04))\n      shr(0xe0, calldataload(0x00))\n      dup1\n      0x791fa7bd\n      gt\n      tag_10\n      jumpi\n      dup1\n      0x791fa7bd\n      eq\n      tag_6\n      jumpi\n      dup1\n      0x90c3ee4d\n      eq\n      tag_7\n      jumpi\n      dup1\n      0x9fcaa715\n      eq\n      tag_8\n      jumpi\n      dup1\n      0xd44db066\n      eq\n      tag_9\n      jumpi\n      jump(tag_2)\n    tag_10:\n      dup1\n      0x5a737480\n      eq\n      tag_3\n      jumpi\n      dup1\n      0x6057361d\n      eq\n      tag_4\n      jumpi\n      dup1\n      0x6d4ce63c\n      eq\n      tag_5\n      jumpi\n    tag_2:\n      revert(0x00, 0x00)\n        /* \"example/simpleStorage.sol\":179:201  People[] public pesons */\n    tag_3:\n      tag_11\n      0x04\n      dup1\n      calldatasize\n      sub\n      dup2\n      add\n      swap1\n      tag_12\n      swap2\n      swap1\n      tag_13\n      jump\t// in\n    tag_12:\n      tag_14\n      jump\t// in\n    tag_11:\n      mload(0x40)\n      tag_15\n      swap3\n      swap2\n      swap1\n      tag_16\n      jump\t// in\n    tag_15:\n      mload(0x40)\n      dup1\n      swap2\n      sub\n      swap1\n      return\n        /* \"example/simpleStorage.sol\":258:320  function store(uint _num) public {... */\n    tag_4:\n      tag_17\n      0x04\n      dup1\n      calldatasize\n      sub\n      dup2\n      add\n      swap1\n      tag_18\n      swap2\n      swap1\n      tag_13\n      jump\t// in\n    tag_18:\n      tag_19\n      jump\t// in\n    tag_17:\n      stop\n        /* \"example/simpleStorage.sol\":328:398  function get() public view returns (uint){... */\n    tag_5:\n      tag_20\n      tag_21\n      jump\t// in\n    tag_20:\n      mload(0x40)\n      tag_22\n      swap2\n      swap1\n      tag_23\n      jump\t// in\n    tag_22:\n      mload(0x40)\n      dup1\n      swap2\n      sub\n      swap1\n      return\n        /* \"example/simpleStorage.sol\":1035:1146  function GetAgeByName(string memory _name) public view returns (uint){... */\n    tag_6:\n      tag_24\n      0x04\n      dup1\n      calldatasize\n      sub\n      dup2\n      add\n      swap1\n      tag_25\n      swap2\n      swap1\n      tag_26\n      jump\t// in\n    tag_25:\n      tag_27\n      jump\t// in\n    tag_24:\n      mload(0x40)\n      tag_28\n      swap2\n      swap1\n      tag_23\n      jump\t// in\n    tag_28:\n      mload(0x40)\n      dup1\n      swap2\n      sub\n      swap1\n      return\n        /* \"example/simpleStorage.sol\":208:249  mapping (string => uint) public nameToAge */\n    tag_7:\n      tag_29\n      0x04\n      dup1\n      calldatasize\n      sub\n      dup2\n      add\n      swap1\n      tag_30\n      swap2\n      swap1\n      tag_26\n      jump\t// in\n    tag_30:\n      tag_31\n      jump\t// in\n    tag_29:\n      mload(0x40)\n      tag_32\n      swap2\n      swap1\n      tag_23\n      jump\t// in\n    tag_32:\n      mload(0x40)\n      dup1\n      swap2\n      sub\n      swap1\n      return\n        /* \"example/simpleStorage.sol\":939:1029  function GetPeson() public view returns (People[] memory){... */\n    tag_8:\n      tag_33\n      tag_34\n      jump\t// in\n    tag_33:\n      mload(0x40)\n      tag_35\n      swap2\n      swap1\n      tag_36\n      jump\t// in\n    tag_35:\n      mload(0x40)\n      dup1\n      swap2\n      sub\n      swap1\n      return\n        /* \"example/simpleStorage.sol\":733:931  function AddPeson(uint _age, string memory _name) public {... */\n    tag_9:\n      tag_37\n      0x04\n      dup1\n      calldatasize\n      sub\n      dup2\n      add\n      swap1\n      tag_38\n      swap2\n      swap1\n      tag_39\n      jump\t// in\n    tag_38:\n      tag_40\n      jump\t// in\n    tag_37:\n      stop\n        /* \"example/simpleStorage.sol\":179:201  People[] public pesons */\n    tag_14:\n      0x01\n      dup2\n      dup2\n      sload\n      dup2\n      lt\n      tag_41\n      jumpi\n      0x00\n      dup1\n      revert\n    tag_41:\n      swap1\n      0x00\n      mstore\n      keccak256(0x00, 0x20)\n      swap1\n      0x02\n      mul\n      add\n      0x00\n      swap2\n      pop\n      swap1\n      pop\n      dup1\n      0x00\n      add\n      sload\n      swap1\n      dup1\n      0x01\n      add\n      dup1\n      sload\n      tag_43\n      swap1\n      tag_44\n      jump\t// in\n    tag_43:\n      dup1\n      0x1f\n      add\n      0x20\n      dup1\n      swap2\n      div\n      mul\n      0x20\n      add\n      mload(0x40)\n      swap1\n      dup2\n      add\n      0x40\n      mstore\n      dup1\n      swap3\n      swap2\n      swap1\n      dup2\n      dup2\n      mstore\n      0x20\n      add\n      dup3\n      dup1\n      sload\n      tag_45\n      swap1\n      tag_44\n      jump\t// in\n    tag_45:\n      dup1\n      iszero\n      tag_46\n      jumpi\n      dup1\n      0x1f\n      lt\n      tag_47\n      jumpi\n      0x0100\n      dup1\n      dup4\n      sload\n      div\n      mul\n      dup4\n      mstore\n      swap2\n      0x20\n      add\n      swap2\n      jump(tag_46)\n    tag_47:\n      dup3\n      add\n      swap2\n      swap1\n      0x00\n      mstore\n      keccak256(0x00, 0x20)\n      swap1\n    tag_48:\n      dup2\n      sload\n      dup2\n      mstore\n      swap1\n      0x01\n      add\n      swap1\n      0x20\n      add\n      dup1\n      dup4\n      gt\n      tag_48\n      jumpi\n      dup3\n      swap1\n      sub\n      0x1f\n      and\n      dup3\n      add\n      swap2\n    tag_46:\n      pop\n      pop\n      pop\n      pop\n      pop\n      swap1\n      pop\n      dup3\n      jump\t// out\n        /* \"example/simpleStorage.sol\":258:320  function store(uint _num) public {... */\n    tag_19:\n        /* \"example/simpleStorage.sol\":308:312  _num */\n      dup1\n        /* \"example/simpleStorage.sol\":302:305  num */\n      0x00\n        /* \"example/simpleStorage.sol\":302:312  num = _num */\n      dup2\n      swap1\n      sstore\n      pop\n        /* \"example/simpleStorage.sol\":258:320  function store(uint _num) public {... */\n      pop\n      jump\t// out\n        /* \"example/simpleStorage.sol\":328:398  function get() public view returns (uint){... */\n    tag_21:\n        /* \"example/simpleStorage.sol\":364:368  uint */\n      0x00\n        /* \"example/simpleStorage.sol\":387:390  num */\n      sload(0x00)\n        /* \"example/simpleStorage.sol\":380:390  return num */\n      swap1\n      pop\n        /* \"example/simpleStorage.sol\":328:398  function get() public view returns (uint){... */\n      swap1\n      jump\t// out\n        /* \"example/simpleStorage.sol\":1035:1146  function GetAgeByName(string memory _name) public view returns (uint){... */\n    tag_27:\n        /* \"example/simpleStorage.sol\":1099:1103  uint */\n      0x00\n        /* \"example/simpleStorage.sol\":1122:1131  nameToAge */\n      0x02\n        /* \"example/simpleStorage.sol\":1132:1137  _name */\n      dup3\n        /* \"example/simpleStorage.sol\":1122:1138  nameToAge[_name] */\n      mload(0x40)\n      tag_52\n      swap2\n      swap1\n      tag_53\n      jump\t// in\n    tag_52:\n      swap1\n      dup2\n      mstore\n      0x20\n      add\n      mload(0x40)\n      dup1\n      swap2\n      sub\n      swap1\n      keccak256\n      sload\n        /* \"example/simpleStorage.sol\":1115:1138  return nameToAge[_name] */\n      swap1\n      pop\n        /* \"example/simpleStorage.sol\":1035:1146  function GetAgeByName(string memory _name) public view returns (uint){... */\n      swap2\n      swap1\n      pop\n      jump\t// out\n        /* \"example/simpleStorage.sol\":208:249  mapping (string => uint) public nameToAge */\n    tag_31:\n      0x02\n      dup2\n      dup1\n      mload\n      0x20\n      dup2\n      add\n      dup3\n      add\n      dup1\n      mload\n      dup5\n      dup3\n      mstore\n      0x20\n      dup4\n      add\n      0x20\n      dup6\n      add\n      keccak256\n      dup2\n      dup4\n      mstore\n      dup1\n      swap6\n      pop\n      pop\n      pop\n      pop\n      pop\n      pop\n      0x00\n      swap2\n      pop\n      swap1\n      pop\n      sload\n      dup2\n      jump\t// out\n        /* \"example/simpleStorage.sol\":939:1029  function GetPeson() public view returns (People[] memory){... */\n    tag_34:\n        /* \"example/simpleStorage.sol\":980:995  People[] memory */\n      0x60\n        /* \"example/simpleStorage.sol\":1015:1021  pesons */\n      0x01\n        /* \"example/simpleStorage.sol\":1007:1021  return  pesons */\n      dup1\n      sload\n      dup1\n      0x20\n      mul\n      0x20\n      add\n      mload(0x40)\n      swap1\n      dup2\n      add\n      0x40\n      mstore\n      dup1\n      swap3\n      swap2\n      swap1\n      dup2\n      dup2\n      mstore\n      0x20\n      add\n      0x00\n      swap1\n    tag_55:\n      dup3\n      dup3\n      lt\n      iszero\n      tag_56\n      jumpi\n      dup4\n      dup3\n      swap1\n      0x00\n      mstore\n      keccak256(0x00, 0x20)\n      swap1\n      0x02\n      mul\n      add\n      mload(0x40)\n      dup1\n      0x40\n      add\n      0x40\n      mstore\n      swap1\n      dup2\n      0x00\n      dup3\n      add\n      sload\n      dup2\n      mstore\n      0x20\n      add\n      0x01\n      dup3\n      add\n      dup1\n      sload\n      tag_58\n      swap1\n      tag_44\n      jump\t// in\n    tag_58:\n      dup1\n      0x1f\n      add\n      0x20\n      dup1\n      swap2\n      div\n      mul\n      0x20\n      add\n      mload(0x40)\n      swap1\n      dup2\n      add\n      0x40\n      mstore\n      dup1\n      swap3\n      swap2\n      swap1\n      dup2\n      dup2\n      mstore\n      0x20\n      add\n      dup3\n      dup1\n      sload\n      tag_59\n      swap1\n      tag_44\n      jump\t// in\n    tag_59:\n      dup1\n      iszero\n      tag_60\n      jumpi\n      dup1\n      0x1f\n      lt\n      tag_61\n      jumpi\n      0x0100\n      dup1\n      dup4\n      sload\n      div\n      mul\n      dup4\n      mstore\n      swap2\n      0x20\n      add\n      swap2\n      jump(tag_60)\n    tag_61:\n      dup3\n      add\n      swap2\n      swap1\n      0x00\n      mstore\n      keccak256(0x00, 0x20)\n      swap1\n    tag_62:\n      dup2\n      sload\n      dup2\n      mstore\n      swap1\n      0x01\n      add\n      swap1\n      0x20\n      add\n      dup1\n      dup4\n      gt\n      tag_62\n      jumpi\n      dup3\n      swap1\n      sub\n      0x1f\n      and\n      dup3\n      add\n      swap2\n    tag_60:\n      pop\n      pop\n      pop\n      pop\n      pop\n      dup2\n      mstore\n      pop\n      pop\n      dup2\n      mstore\n      0x20\n      add\n      swap1\n      0x01\n      add\n      swap1\n      jump(tag_55)\n    tag_56:\n      pop\n      pop\n      pop\n      pop\n      swap1\n      pop\n        /* \"example/simpleStorage.sol\":939:1029  function GetPeson() public view returns (People[] memory){... */\n      swap1\n      jump\t// out\n        /* \"example/simpleStorage.sol\":733:931  function AddPeson(uint _age, string memory _name) public {... */\n    tag_40:\n        /* \"example/simpleStorage.sol\":846:852  pesons */\n      0x01\n        /* \"example/simpleStorage.sol\":858:888  People({name: _name,age:_age}) */\n      mload(0x40)\n      dup1\n      0x40\n      add\n      0x40\n      mstore\n      dup1\n        /* \"example/simpleStorage.sol\":882:886  _age */\n      dup5\n        /* \"example/simpleStorage.sol\":858:888  People({name: _name,age:_age}) */\n      dup2\n      mstore\n      0x20\n      add\n        /* \"example/simpleStorage.sol\":872:877  _name */\n      dup4\n        /* \"example/simpleStorage.sol\":858:888  People({name: _name,age:_age}) */\n      dup2\n      mstore\n      pop\n        /* \"example/simpleStorage.sol\":846:889  pesons.push(People({name: _name,age:_age})) */\n      swap1\n      dup1\n      0x01\n      dup2\n      sload\n      add\n      dup1\n      dup3\n      sstore\n      dup1\n      swap2\n      pop\n      pop\n      0x01\n      swap1\n      sub\n      swap1\n      0x00\n      mstore\n      keccak256(0x00, 0x20)\n      swap1\n      0x02\n      mul\n      add\n      0x00\n      swap1\n      swap2\n      swap1\n      swap2\n      swap1\n      swap2\n      pop\n      0x00\n      dup3\n      add\n      mload\n      dup2\n      0x00\n      add\n      sstore\n      0x20\n      dup3\n      add\n      mload\n      dup2\n      0x01\n      add\n      swap1\n      dup2\n      tag_65\n      swap2\n      swap1\n      tag_66\n      jump\t// in\n    tag_65:\n      pop\n      pop\n      pop\n        /* \"example/simpleStorage.sol\":919:923  _age */\n      dup2\n        /* \"example/simpleStorage.sol\":900:909  nameToAge */\n      0x02\n        /* \"example/simpleStorage.sol\":910:915  _name */\n      dup3\n        /* \"example/simpleStorage.sol\":900:916  nameToAge[_name] */\n      mload(0x40)\n      tag_67\n      swap2\n      swap1\n      tag_53\n      jump\t// in\n    tag_67:\n      swap1\n      dup2\n      mstore\n      0x20\n      add\n      mload(0x40)\n      dup1\n      swap2\n      sub\n      swap1\n      keccak256\n        /* \"example/simpleStorage.sol\":900:923  nameToAge[_name] = _age */\n      dup2\n      swap1\n      sstore\n      pop\n        /* \"example/simpleStorage.sol\":733:931  function AddPeson(uint _age, string memory _name) public {... */\n      pop\n      pop\n      jump\t// out\n        /* \"#utility.yul\":7:82   */\n    tag_68:\n        /* \"#utility.yul\":40:46   */\n      0x00\n        /* \"#utility.yul\":73:75   */\n      0x40\n        /* \"#utility.yul\":67:76   */\n      mload\n        /* \"#utility.yul\":57:76   */\n      swap1\n      pop\n        /* \"#utility.yul\":7:82   */\n      swap1\n      jump\t// out\n        /* \"#utility.yul\":88:205   */\n    tag_69:\n        /* \"#utility.yul\":197:198   */\n      0x00\n        /* \"#utility.yul\":194:195   */\n      0x00\n        /* \"#utility.yul\":187:199   */\n      revert\n        /* \"#utility.yul\":211:328   */\n    tag_70:\n        /* \"#utility.yul\":320:321   */\n      0x00\n        /* \"#utility.yul\":317:318   */\n      0x00\n        /* \"#utility.yul\":310:322   */\n      revert\n        /* \"#utility.yul\":334:411   */\n    tag_71:\n        /* \"#utility.yul\":371:378   */\n      0x00\n        /* \"#utility.yul\":400:405   */\n      dup2\n        /* \"#utility.yul\":389:405   */\n      swap1\n      pop\n        /* \"#utility.yul\":334:411   */\n      swap2\n      swap1\n      pop\n      jump\t// out\n        /* \"#utility.yul\":417:539   */\n    tag_72:\n        /* \"#utility.yul\":490:514   */\n      tag_123\n        /* \"#utility.yul\":508:513   */\n      dup2\n        /* \"#utility.yul\":490:514   */\n      tag_71\n      jump\t// in\n    tag_123:\n        /* \"#utility.yul\":483:488   */\n      dup2\n        /* \"#utility.yul\":480:515   */\n      eq\n        /* \"#utility.yul\":470:533   */\n      tag_124\n      jumpi\n        /* \"#utility.yul\":529:530   */\n      0x00\n        /* \"#utility.yul\":526:527   */\n      0x00\n        /* \"#utility.yul\":519:531   */\n      revert\n        /* \"#utility.yul\":470:533   */\n    tag_124:\n        /* \"#utility.yul\":417:539   */\n      pop\n      jump\t// out\n        /* \"#utility.yul\":545:684   */\n    tag_73:\n        /* \"#utility.yul\":591:596   */\n      0x00\n        /* \"#utility.yul\":629:635   */\n      dup2\n        /* \"#utility.yul\":616:636   */\n      calldataload\n        /* \"#utility.yul\":607:636   */\n      swap1\n      pop\n        /* \"#utility.yul\":645:678   */\n      tag_126\n        /* \"#utility.yul\":672:677   */\n      dup2\n        /* \"#utility.yul\":645:678   */\n      tag_72\n      jump\t// in\n    tag_126:\n        /* \"#utility.yul\":545:684   */\n      swap3\n      swap2\n      pop\n      pop\n      jump\t// out\n        /* \"#utility.yul\":690:1019   */\n    tag_13:\n        /* \"#utility.yul\":749:755   */\n      0x00\n        /* \"#utility.yul\":798:800   */\n      0x20\n        /* \"#utility.yul\":786:795   */\n      dup3\n        /* \"#utility.yul\":777:784   */\n      dup5\n        /* \"#utility.yul\":773:796   */\n      sub\n        /* \"#utility.yul\":769:801   */\n      slt\n        /* \"#utility.yul\":766:885   */\n      iszero\n      tag_128\n      jumpi\n        /* \"#utility.yul\":804:883   */\n      tag_129\n      tag_69\n      jump\t// in\n    tag_129:\n        /* \"#utility.yul\":766:885   */\n    tag_128:\n        /* \"#utility.yul\":924:925   */\n      0x00\n        /* \"#utility.yul\":949:1002   */\n      tag_130\n        /* \"#utility.yul\":994:1001   */\n      dup5\n        /* \"#utility.yul\":985:991   */\n      dup3\n        /* \"#utility.yul\":974:983   */\n      dup6\n        /* \"#utility.yul\":970:992   */\n      add\n        /* \"#utility.yul\":949:1002   */\n      tag_73\n      jump\t// in\n    tag_130:\n        /* \"#utility.yul\":939:1002   */\n      swap2\n      pop\n        /* \"#utility.yul\":895:1012   */\n      pop\n        /* \"#utility.yul\":690:1019   */\n      swap3\n      swap2\n      pop\n      pop\n      jump\t// out\n        /* \"#utility.yul\":1025:1143   */\n    tag_74:\n        /* \"#utility.yul\":1112:1136   */\n      tag_132\n        /* \"#utility.yul\":1130:1135   */\n      dup2\n        /* \"#utility.yul\":1112:1136   */\n      tag_71\n      jump\t// in\n    tag_132:\n        /* \"#utility.yul\":1107:1110   */\n      dup3\n        /* \"#utility.yul\":1100:1137   */\n      mstore\n        /* \"#utility.yul\":1025:1143   */\n      pop\n      pop\n      jump\t// out\n        /* \"#utility.yul\":1149:1248   */\n    tag_75:\n        /* \"#utility.yul\":1201:1207   */\n      0x00\n        /* \"#utility.yul\":1235:1240   */\n      dup2\n        /* \"#utility.yul\":1229:1241   */\n      mload\n        /* \"#utility.yul\":1219:1241   */\n      swap1\n      pop\n        /* \"#utility.yul\":1149:1248   */\n      swap2\n      swap1\n      pop\n      jump\t// out\n        /* \"#utility.yul\":1254:1423   */\n    tag_76:\n        /* \"#utility.yul\":1338:1349   */\n      0x00\n        /* \"#utility.yul\":1372:1378   */\n      dup3\n        /* \"#utility.yul\":1367:1370   */\n      dup3\n        /* \"#utility.yul\":1360:1379   */\n      mstore\n        /* \"#utility.yul\":1412:1416   */\n      0x20\n        /* \"#utility.yul\":1407:1410   */\n      dup3\n        /* \"#utility.yul\":1403:1417   */\n      add\n        /* \"#utility.yul\":1388:1417   */\n      swap1\n      pop\n        /* \"#utility.yul\":1254:1423   */\n      swap3\n      swap2\n      pop\n      pop\n      jump\t// out\n        /* \"#utility.yul\":1429:1568   */\n    tag_77:\n        /* \"#utility.yul\":1518:1524   */\n      dup3\n        /* \"#utility.yul\":1513:1516   */\n      dup2\n        /* \"#utility.yul\":1508:1511   */\n      dup4\n        /* \"#utility.yul\":1502:1525   */\n      mcopy\n        /* \"#utility.yul\":1559:1560   */\n      0x00\n        /* \"#utility.yul\":1550:1556   */\n      dup4\n        /* \"#utility.yul\":1545:1548   */\n      dup4\n        /* \"#utility.yul\":1541:1557   */\n      add\n        /* \"#utility.yul\":1534:1561   */\n      mstore\n        /* \"#utility.yul\":1429:1568   */\n      pop\n      pop\n      pop\n      jump\t// out\n        /* \"#utility.yul\":1574:1676   */\n    tag_78:\n        /* \"#utility.yul\":1615:1621   */\n      0x00\n        /* \"#utility.yul\":1666:1668   */\n      0x1f\n        /* \"#utility.yul\":1662:1669   */\n      not\n        /* \"#utility.yul\":1657:1659   */\n      0x1f\n        /* \"#utility.yul\":1650:1655   */\n      dup4\n        /* \"#utility.yul\":1646:1660   */\n      add\n        /* \"#utility.yul\":1642:1670   */\n      and\n        /* \"#utility.yul\":1632:1670   */\n      swap1\n      pop\n        /* \"#utility.yul\":1574:1676   */\n      swap2\n      swap1\n      pop\n      jump\t// out\n        /* \"#utility.yul\":1682:2059   */\n    tag_79:\n        /* \"#utility.yul\":1770:1773   */\n      0x00\n        /* \"#utility.yul\":1798:1837   */\n      tag_138\n        /* \"#utility.yul\":1831:1836   */\n      dup3\n        /* \"#utility.yul\":1798:1837   */\n      tag_75\n      jump\t// in\n    tag_138:\n        /* \"#utility.yul\":1853:1924   */\n      tag_139\n        /* \"#utility.yul\":1917:1923   */\n      dup2\n        /* \"#utility.yul\":1912:1915   */\n      dup6\n        /* \"#utility.yul\":1853:1924   */\n      tag_76\n      jump\t// in\n    tag_139:\n        /* \"#utility.yul\":1846:1924   */\n      swap4\n      pop\n        /* \"#utility.yul\":1933:1998   */\n      tag_140\n        /* \"#utility.yul\":1991:1997   */\n      dup2\n        /* \"#utility.yul\":1986:1989   */\n      dup6\n        /* \"#utility.yul\":1979:1983   */\n      0x20\n        /* \"#utility.yul\":1972:1977   */\n      dup7\n        /* \"#utility.yul\":1968:1984   */\n      add\n        /* \"#utility.yul\":1933:1998   */\n      tag_77\n      jump\t// in\n    tag_140:\n        /* \"#utility.yul\":2023:2052   */\n      tag_141\n        /* \"#utility.yul\":2045:2051   */\n      dup2\n        /* \"#utility.yul\":2023:2052   */\n      tag_78\n      jump\t// in\n    tag_141:\n        /* \"#utility.yul\":2018:2021   */\n      dup5\n        /* \"#utility.yul\":2014:2053   */\n      add\n        /* \"#utility.yul\":2007:2053   */\n      swap2\n      pop\n        /* \"#utility.yul\":1774:2059   */\n      pop\n        /* \"#utility.yul\":1682:2059   */\n      swap3\n      swap2\n      pop\n      pop\n      jump\t// out\n        /* \"#utility.yul\":2065:2488   */\n    tag_16:\n        /* \"#utility.yul\":2206:2210   */\n      0x00\n        /* \"#utility.yul\":2244:2246   */\n      0x40\n        /* \"#utility.yul\":2233:2242   */\n      dup3\n        /* \"#utility.yul\":2229:2247   */\n      add\n        /* \"#utility.yul\":2221:2247   */\n      swap1\n      pop\n        /* \"#utility.yul\":2257:2328   */\n      tag_143\n        /* \"#utility.yul\":2325:2326   */\n      0x00\n        /* \"#utility.yul\":2314:2323   */\n      dup4\n        /* \"#utility.yul\":2310:2327   */\n      add\n        /* \"#utility.yul\":2301:2307   */\n      dup6\n        /* \"#utility.yul\":2257:2328   */\n      tag_74\n      jump\t// in\n    tag_143:\n        /* \"#utility.yul\":2375:2384   */\n      dup2\n        /* \"#utility.yul\":2369:2373   */\n      dup2\n        /* \"#utility.yul\":2365:2385   */\n      sub\n        /* \"#utility.yul\":2360:2362   */\n      0x20\n        /* \"#utility.yul\":2349:2358   */\n      dup4\n        /* \"#utility.yul\":2345:2363   */\n      add\n        /* \"#utility.yul\":2338:2386   */\n      mstore\n        /* \"#utility.yul\":2403:2481   */\n      tag_144\n        /* \"#utility.yul\":2476:2480   */\n      dup2\n        /* \"#utility.yul\":2467:2473   */\n      dup5\n        /* \"#utility.yul\":2403:2481   */\n      tag_79\n      jump\t// in\n    tag_144:\n        /* \"#utility.yul\":2395:2481   */\n      swap1\n      pop\n        /* \"#utility.yul\":2065:2488   */\n      swap4\n      swap3\n      pop\n      pop\n      pop\n      jump\t// out\n        /* \"#utility.yul\":2494:2716   */\n    tag_23:\n        /* \"#utility.yul\":2587:2591   */\n      0x00\n        /* \"#utility.yul\":2625:2627   */\n      0x20\n        /* \"#utility.yul\":2614:2623   */\n      dup3\n        /* \"#utility.yul\":2610:2628   */\n      add\n        /* \"#utility.yul\":2602:2628   */\n      swap1\n      pop\n        /* \"#utility.yul\":2638:2709   */\n      tag_146\n        /* \"#utility.yul\":2706:2707   */\n      0x00\n        /* \"#utility.yul\":2695:2704   */\n      dup4\n        /* \"#utility.yul\":2691:2708   */\n      add\n        /* \"#utility.yul\":2682:2688   */\n      dup5\n        /* \"#utility.yul\":2638:2709   */\n      tag_74\n      jump\t// in\n    tag_146:\n        /* \"#utility.yul\":2494:2716   */\n      swap3\n      swap2\n      pop\n      pop\n      jump\t// out\n        /* \"#utility.yul\":2722:2839   */\n    tag_80:\n        /* \"#utility.yul\":2831:2832   */\n      0x00\n        /* \"#utility.yul\":2828:2829   */\n      0x00\n        /* \"#utility.yul\":2821:2833   */\n      revert\n        /* \"#utility.yul\":2845:2962   */\n    tag_81:\n        /* \"#utility.yul\":2954:2955   */\n      0x00\n        /* \"#utility.yul\":2951:2952   */\n      0x00\n        /* \"#utility.yul\":2944:2956   */\n      revert\n        /* \"#utility.yul\":2968:3148   */\n    tag_82:\n        /* \"#utility.yul\":3016:3093   */\n      0x4e487b7100000000000000000000000000000000000000000000000000000000\n        /* \"#utility.yul\":3013:3014   */\n      0x00\n        /* \"#utility.yul\":3006:3094   */\n      mstore\n        /* \"#utility.yul\":3113:3117   */\n      0x41\n        /* \"#utility.yul\":3110:3111   */\n      0x04\n        /* \"#utility.yul\":3103:3118   */\n      mstore\n        /* \"#utility.yul\":3137:3141   */\n      0x24\n        /* \"#utility.yul\":3134:3135   */\n      0x00\n        /* \"#utility.yul\":3127:3142   */\n      revert\n        /* \"#utility.yul\":3154:3435   */\n    tag_83:\n        /* \"#utility.yul\":3237:3264   */\n      tag_151\n        /* \"#utility.yul\":3259:3263   */\n      dup3\n        /* \"#utility.yul\":3237:3264   */\n      tag_78\n      jump\t// in\n    tag_151:\n        /* \"#utility.yul\":3229:3235   */\n      dup2\n        /* \"#utility.yul\":3225:3265   */\n      add\n        /* \"#utility.yul\":3367:3373   */\n      dup2\n        /* \"#utility.yul\":3355:3365   */\n      dup2\n        /* \"#utility.yul\":3352:3374   */\n      lt\n        /* \"#utility.yul\":3331:3349   */\n      0xffffffffffffffff\n        /* \"#utility.yul\":3319:3329   */\n      dup3\n        /* \"#utility.yul\":3316:3350   */\n      gt\n        /* \"#utility.yul\":3313:3375   */\n      or\n        /* \"#utility.yul\":3310:3398   */\n      iszero\n      tag_152\n      jumpi\n        /* \"#utility.yul\":3378:3396   */\n      tag_153\n      tag_82\n      jump\t// in\n    tag_153:\n        /* \"#utility.yul\":3310:3398   */\n    tag_152:\n        /* \"#utility.yul\":3418:3428   */\n      dup1\n        /* \"#utility.yul\":3414:3416   */\n      0x40\n        /* \"#utility.yul\":3407:3429   */\n      mstore\n        /* \"#utility.yul\":3197:3435   */\n      pop\n        /* \"#utility.yul\":3154:3435   */\n      pop\n      pop\n      jump\t// out\n        /* \"#utility.yul\":3441:3570   */\n    tag_84:\n        /* \"#utility.yul\":3475:3481   */\n      0x00\n        /* \"#utility.yul\":3502:3522   */\n      tag_155\n      tag_68\n      jump\t// in\n    tag_155:\n        /* \"#utility.yul\":3492:3522   */\n      swap1\n      pop\n        /* \"#utility.yul\":3531:3564   */\n      tag_156\n        /* \"#utility.yul\":3559:3563   */\n      dup3\n        /* \"#utility.yul\":3551:3557   */\n      dup3\n        /* \"#utility.yul\":3531:3564   */\n      tag_83\n      jump\t// in\n    tag_156:\n        /* \"#utility.yul\":3441:3570   */\n      swap2\n      swap1\n      pop\n      jump\t// out\n        /* \"#utility.yul\":3576:3884   */\n    tag_85:\n        /* \"#utility.yul\":3638:3642   */\n      0x00\n        /* \"#utility.yul\":3728:3746   */\n      0xffffffffffffffff\n        /* \"#utility.yul\":3720:3726   */\n      dup3\n        /* \"#utility.yul\":3717:3747   */\n      gt\n        /* \"#utility.yul\":3714:3770   */\n      iszero\n      tag_158\n      jumpi\n        /* \"#utility.yul\":3750:3768   */\n      tag_159\n      tag_82\n      jump\t// in\n    tag_159:\n        /* \"#utility.yul\":3714:3770   */\n    tag_158:\n        /* \"#utility.yul\":3788:3817   */\n      tag_160\n        /* \"#utility.yul\":3810:3816   */\n      dup3\n        /* \"#utility.yul\":3788:3817   */\n      tag_78\n      jump\t// in\n    tag_160:\n        /* \"#utility.yul\":3780:3817   */\n      swap1\n      pop\n        /* \"#utility.yul\":3872:3876   */\n      0x20\n        /* \"#utility.yul\":3866:3870   */\n      dup2\n        /* \"#utility.yul\":3862:3877   */\n      add\n        /* \"#utility.yul\":3854:3877   */\n      swap1\n      pop\n        /* \"#utility.yul\":3576:3884   */\n      swap2\n      swap1\n      pop\n      jump\t// out\n        /* \"#utility.yul\":3890:4038   */\n    tag_86:\n        /* \"#utility.yul\":3988:3994   */\n      dup3\n        /* \"#utility.yul\":3983:3986   */\n      dup2\n        /* \"#utility.yul\":3978:3981   */\n      dup4\n        /* \"#utility.yul\":3965:3995   */\n      calldatacopy\n        /* \"#utility.yul\":4029:4030   */\n      0x00\n        /* \"#utility.yul\":4020:4026   */\n      dup4\n        /* \"#utility.yul\":4015:4018   */\n      dup4\n        /* \"#utility.yul\":4011:4027   */\n      add\n        /* \"#utility.yul\":4004:4031   */\n      mstore\n        /* \"#utility.yul\":3890:4038   */\n      pop\n      pop\n      pop\n      jump\t// out\n        /* \"#utility.yul\":4044:4469   */\n    tag_87:\n        /* \"#utility.yul\":4122:4127   */\n      0x00\n        /* \"#utility.yul\":4147:4213   */\n      tag_163\n        /* \"#utility.yul\":4163:4212   */\n      tag_164\n        /* \"#utility.yul\":4205:4211   */\n      dup5\n        /* \"#utility.yul\":4163:4212   */\n      tag_85\n      jump\t// in\n    tag_164:\n        /* \"#utility.yul\":4147:4213   */\n      tag_84\n      jump\t// in\n    tag_163:\n        /* \"#utility.yul\":4138:4213   */\n      swap1\n      pop\n        /* \"#utility.yul\":4236:4242   */\n      dup3\n        /* \"#utility.yul\":4229:4234   */\n      dup2\n        /* \"#utility.yul\":4222:4243   */\n      mstore\n        /* \"#utility.yul\":4274:4278   */\n      0x20\n        /* \"#utility.yul\":4267:4272   */\n      dup2\n        /* \"#utility.yul\":4263:4279   */\n      add\n        /* \"#utility.yul\":4312:4315   */\n      dup5\n        /* \"#utility.yul\":4303:4309   */\n      dup5\n        /* \"#utility.yul\":4298:4301   */\n      dup5\n        /* \"#utility.yul\":4294:4310   */\n      add\n        /* \"#utility.yul\":4291:4316   */\n      gt\n        /* \"#utility.yul\":4288:4400   */\n      iszero\n      tag_165\n      jumpi\n        /* \"#utility.yul\":4319:4398   */\n      tag_166\n      tag_81\n      jump\t// in\n    tag_166:\n        /* \"#utility.yul\":4288:4400   */\n    tag_165:\n        /* \"#utility.yul\":4409:4463   */\n      tag_167\n        /* \"#utility.yul\":4456:4462   */\n      dup5\n        /* \"#utility.yul\":4451:4454   */\n      dup3\n        /* \"#utility.yul\":4446:4449   */\n      dup6\n        /* \"#utility.yul\":4409:4463   */\n      tag_86\n      jump\t// in\n    tag_167:\n        /* \"#utility.yul\":4128:4469   */\n      pop\n        /* \"#utility.yul\":4044:4469   */\n      swap4\n      swap3\n      pop\n      pop\n      pop\n      jump\t// out\n        /* \"#utility.yul\":4489:4829   */\n    tag_88:\n        /* \"#utility.yul\":4545:4550   */\n      0x00\n        /* \"#utility.yul\":4594:4597   */\n      dup3\n        /* \"#utility.yul\":4587:4591   */\n      0x1f\n        /* \"#utility.yul\":4579:4585   */\n      dup4\n        /* \"#utility.yul\":4575:4592   */\n      add\n        /* \"#utility.yul\":4571:4598   */\n      slt\n        /* \"#utility.yul\":4561:4683   */\n      tag_169\n      jumpi\n        /* \"#utility.yul\":4602:4681   */\n      tag_170\n      tag_80\n      jump\t// in\n    tag_170:\n        /* \"#utility.yul\":4561:4683   */\n    tag_169:\n        /* \"#utility.yul\":4719:4725   */\n      dup2\n        /* \"#utility.yul\":4706:4726   */\n      calldataload\n        /* \"#utility.yul\":4744:4823   */\n      tag_171\n        /* \"#utility.yul\":4819:4822   */\n      dup5\n        /* \"#utility.yul\":4811:4817   */\n      dup3\n        /* \"#utility.yul\":4804:4808   */\n      0x20\n        /* \"#utility.yul\":4796:4802   */\n      dup7\n        /* \"#utility.yul\":4792:4809   */\n      add\n        /* \"#utility.yul\":4744:4823   */\n      tag_87\n      jump\t// in\n    tag_171:\n        /* \"#utility.yul\":4735:4823   */\n      swap2\n      pop\n        /* \"#utility.yul\":4551:4829   */\n      pop\n        /* \"#utility.yul\":4489:4829   */\n      swap3\n      swap2\n      pop\n      pop\n      jump\t// out\n        /* \"#utility.yul\":4835:5344   */\n    tag_26:\n        /* \"#utility.yul\":4904:4910   */\n      0x00\n        /* \"#utility.yul\":4953:4955   */\n      0x20\n        /* \"#utility.yul\":4941:4950   */\n      dup3\n        /* \"#utility.yul\":4932:4939   */\n      dup5\n        /* \"#utility.yul\":4928:4951   */\n      sub\n        /* \"#utility.yul\":4924:4956   */\n      slt\n        /* \"#utility.yul\":4921:5040   */\n      iszero\n      tag_173\n      jumpi\n        /* \"#utility.yul\":4959:5038   */\n      tag_174\n      tag_69\n      jump\t// in\n    tag_174:\n        /* \"#utility.yul\":4921:5040   */\n    tag_173:\n        /* \"#utility.yul\":5107:5108   */\n      0x00\n        /* \"#utility.yul\":5096:5105   */\n      dup3\n        /* \"#utility.yul\":5092:5109   */\n      add\n        /* \"#utility.yul\":5079:5110   */\n      calldataload\n        /* \"#utility.yul\":5137:5155   */\n      0xffffffffffffffff\n        /* \"#utility.yul\":5129:5135   */\n      dup2\n        /* \"#utility.yul\":5126:5156   */\n      gt\n        /* \"#utility.yul\":5123:5240   */\n      iszero\n      tag_175\n      jumpi\n        /* \"#utility.yul\":5159:5238   */\n      tag_176\n      tag_70\n      jump\t// in\n    tag_176:\n        /* \"#utility.yul\":5123:5240   */\n    tag_175:\n        /* \"#utility.yul\":5264:5327   */\n      tag_177\n        /* \"#utility.yul\":5319:5326   */\n      dup5\n        /* \"#utility.yul\":5310:5316   */\n      dup3\n        /* \"#utility.yul\":5299:5308   */\n      dup6\n        /* \"#utility.yul\":5295:5317   */\n      add\n        /* \"#utility.yul\":5264:5327   */\n      tag_88\n      jump\t// in\n    tag_177:\n        /* \"#utility.yul\":5254:5327   */\n      swap2\n      pop\n        /* \"#utility.yul\":5050:5337   */\n      pop\n        /* \"#utility.yul\":4835:5344   */\n      swap3\n      swap2\n      pop\n      pop\n      jump\t// out\n        /* \"#utility.yul\":5350:5485   */\n    tag_89:\n        /* \"#utility.yul\":5438:5444   */\n      0x00\n        /* \"#utility.yul\":5472:5477   */\n      dup2\n        /* \"#utility.yul\":5466:5478   */\n      mload\n        /* \"#utility.yul\":5456:5478   */\n      swap1\n      pop\n        /* \"#utility.yul\":5350:5485   */\n      swap2\n      swap1\n      pop\n      jump\t// out\n        /* \"#utility.yul\":5491:5696   */\n    tag_90:\n        /* \"#utility.yul\":5611:5622   */\n      0x00\n        /* \"#utility.yul\":5645:5651   */\n      dup3\n        /* \"#utility.yul\":5640:5643   */\n      dup3\n        /* \"#utility.yul\":5633:5652   */\n      mstore\n        /* \"#utility.yul\":5685:5689   */\n      0x20\n        /* \"#utility.yul\":5680:5683   */\n      dup3\n        /* \"#utility.yul\":5676:5690   */\n      add\n        /* \"#utility.yul\":5661:5690   */\n      swap1\n      pop\n        /* \"#utility.yul\":5491:5696   */\n      swap3\n      swap2\n      pop\n      pop\n      jump\t// out\n        /* \"#utility.yul\":5702:5855   */\n    tag_91:\n        /* \"#utility.yul\":5790:5794   */\n      0x00\n        /* \"#utility.yul\":5813:5816   */\n      dup2\n        /* \"#utility.yul\":5805:5816   */\n      swap1\n      pop\n        /* \"#utility.yul\":5843:5847   */\n      0x20\n        /* \"#utility.yul\":5838:5841   */\n      dup3\n        /* \"#utility.yul\":5834:5848   */\n      add\n        /* \"#utility.yul\":5826:5848   */\n      swap1\n      pop\n        /* \"#utility.yul\":5702:5855   */\n      swap2\n      swap1\n      pop\n      jump\t// out\n        /* \"#utility.yul\":5861:5969   */\n    tag_92:\n        /* \"#utility.yul\":5938:5962   */\n      tag_182\n        /* \"#utility.yul\":5956:5961   */\n      dup2\n        /* \"#utility.yul\":5938:5962   */\n      tag_71\n      jump\t// in\n    tag_182:\n        /* \"#utility.yul\":5933:5936   */\n      dup3\n        /* \"#utility.yul\":5926:5963   */\n      mstore\n        /* \"#utility.yul\":5861:5969   */\n      pop\n      pop\n      jump\t// out\n        /* \"#utility.yul\":5975:6134   */\n    tag_93:\n        /* \"#utility.yul\":6049:6060   */\n      0x00\n        /* \"#utility.yul\":6083:6089   */\n      dup3\n        /* \"#utility.yul\":6078:6081   */\n      dup3\n        /* \"#utility.yul\":6071:6090   */\n      mstore\n        /* \"#utility.yul\":6123:6127   */\n      0x20\n        /* \"#utility.yul\":6118:6121   */\n      dup3\n        /* \"#utility.yul\":6114:6128   */\n      add\n        /* \"#utility.yul\":6099:6128   */\n      swap1\n      pop\n        /* \"#utility.yul\":5975:6134   */\n      swap3\n      swap2\n      pop\n      pop\n      jump\t// out\n        /* \"#utility.yul\":6140:6497   */\n    tag_94:\n        /* \"#utility.yul\":6218:6221   */\n      0x00\n        /* \"#utility.yul\":6246:6285   */\n      tag_185\n        /* \"#utility.yul\":6279:6284   */\n      dup3\n        /* \"#utility.yul\":6246:6285   */\n      tag_75\n      jump\t// in\n    tag_185:\n        /* \"#utility.yul\":6301:6362   */\n      tag_186\n        /* \"#utility.yul\":6355:6361   */\n      dup2\n        /* \"#utility.yul\":6350:6353   */\n      dup6\n        /* \"#utility.yul\":6301:6362   */\n      tag_93\n      jump\t// in\n    tag_186:\n        /* \"#utility.yul\":6294:6362   */\n      swap4\n      pop\n        /* \"#utility.yul\":6371:6436   */\n      tag_187\n        /* \"#utility.yul\":6429:6435   */\n      dup2\n        /* \"#utility.yul\":6424:6427   */\n      dup6\n        /* \"#utility.yul\":6417:6421   */\n      0x20\n        /* \"#utility.yul\":6410:6415   */\n      dup7\n        /* \"#utility.yul\":6406:6422   */\n      add\n        /* \"#utility.yul\":6371:6436   */\n      tag_77\n      jump\t// in\n    tag_187:\n        /* \"#utility.yul\":6461:6490   */\n      tag_188\n        /* \"#utility.yul\":6483:6489   */\n      dup2\n        /* \"#utility.yul\":6461:6490   */\n      tag_78\n      jump\t// in\n    tag_188:\n        /* \"#utility.yul\":6456:6459   */\n      dup5\n        /* \"#utility.yul\":6452:6491   */\n      add\n        /* \"#utility.yul\":6445:6491   */\n      swap2\n      pop\n        /* \"#utility.yul\":6222:6497   */\n      pop\n        /* \"#utility.yul\":6140:6497   */\n      swap3\n      swap2\n      pop\n      pop\n      jump\t// out\n        /* \"#utility.yul\":6569:7156   */\n    tag_95:\n        /* \"#utility.yul\":6670:6673   */\n      0x00\n        /* \"#utility.yul\":6706:6710   */\n      0x40\n        /* \"#utility.yul\":6701:6704   */\n      dup4\n        /* \"#utility.yul\":6697:6711   */\n      add\n        /* \"#utility.yul\":6792:6796   */\n      0x00\n        /* \"#utility.yul\":6785:6790   */\n      dup4\n        /* \"#utility.yul\":6781:6797   */\n      add\n        /* \"#utility.yul\":6775:6798   */\n      mload\n        /* \"#utility.yul\":6811:6874   */\n      tag_190\n        /* \"#utility.yul\":6868:6872   */\n      0x00\n        /* \"#utility.yul\":6863:6866   */\n      dup7\n        /* \"#utility.yul\":6859:6873   */\n      add\n        /* \"#utility.yul\":6845:6857   */\n      dup3\n        /* \"#utility.yul\":6811:6874   */\n      tag_92\n      jump\t// in\n    tag_190:\n        /* \"#utility.yul\":6721:6884   */\n      pop\n        /* \"#utility.yul\":6966:6970   */\n      0x20\n        /* \"#utility.yul\":6959:6964   */\n      dup4\n        /* \"#utility.yul\":6955:6971   */\n      add\n        /* \"#utility.yul\":6949:6972   */\n      mload\n        /* \"#utility.yul\":7019:7022   */\n      dup5\n        /* \"#utility.yul\":7013:7017   */\n      dup3\n        /* \"#utility.yul\":7009:7023   */\n      sub\n        /* \"#utility.yul\":7002:7006   */\n      0x20\n        /* \"#utility.yul\":6997:7000   */\n      dup7\n        /* \"#utility.yul\":6993:7007   */\n      add\n        /* \"#utility.yul\":6986:7024   */\n      mstore\n        /* \"#utility.yul\":7045:7118   */\n      tag_191\n        /* \"#utility.yul\":7113:7117   */\n      dup3\n        /* \"#utility.yul\":7099:7111   */\n      dup3\n        /* \"#utility.yul\":7045:7118   */\n      tag_94\n      jump\t// in\n    tag_191:\n        /* \"#utility.yul\":7037:7118   */\n      swap2\n      pop\n        /* \"#utility.yul\":6894:7129   */\n      pop\n        /* \"#utility.yul\":7146:7150   */\n      dup1\n        /* \"#utility.yul\":7139:7150   */\n      swap2\n      pop\n        /* \"#utility.yul\":6675:7156   */\n      pop\n        /* \"#utility.yul\":6569:7156   */\n      swap3\n      swap2\n      pop\n      pop\n      jump\t// out\n        /* \"#utility.yul\":7162:7402   */\n    tag_96:\n        /* \"#utility.yul\":7273:7283   */\n      0x00\n        /* \"#utility.yul\":7308:7396   */\n      tag_193\n        /* \"#utility.yul\":7392:7395   */\n      dup4\n        /* \"#utility.yul\":7384:7390   */\n      dup4\n        /* \"#utility.yul\":7308:7396   */\n      tag_95\n      jump\t// in\n    tag_193:\n        /* \"#utility.yul\":7294:7396   */\n      swap1\n      pop\n        /* \"#utility.yul\":7162:7402   */\n      swap3\n      swap2\n      pop\n      pop\n      jump\t// out\n        /* \"#utility.yul\":7408:7542   */\n    tag_97:\n        /* \"#utility.yul\":7499:7503   */\n      0x00\n        /* \"#utility.yul\":7531:7535   */\n      0x20\n        /* \"#utility.yul\":7526:7529   */\n      dup3\n        /* \"#utility.yul\":7522:7536   */\n      add\n        /* \"#utility.yul\":7514:7536   */\n      swap1\n      pop\n        /* \"#utility.yul\":7408:7542   */\n      swap2\n      swap1\n      pop\n      jump\t// out\n        /* \"#utility.yul\":7618:8697   */\n    tag_98:\n        /* \"#utility.yul\":7779:7782   */\n      0x00\n        /* \"#utility.yul\":7808:7883   */\n      tag_196\n        /* \"#utility.yul\":7877:7882   */\n      dup3\n        /* \"#utility.yul\":7808:7883   */\n      tag_89\n      jump\t// in\n    tag_196:\n        /* \"#utility.yul\":7899:8006   */\n      tag_197\n        /* \"#utility.yul\":7999:8005   */\n      dup2\n        /* \"#utility.yul\":7994:7997   */\n      dup6\n        /* \"#utility.yul\":7899:8006   */\n      tag_90\n      jump\t// in\n    tag_197:\n        /* \"#utility.yul\":7892:8006   */\n      swap4\n      pop\n        /* \"#utility.yul\":8032:8035   */\n      dup4\n        /* \"#utility.yul\":8077:8081   */\n      0x20\n        /* \"#utility.yul\":8069:8075   */\n      dup3\n        /* \"#utility.yul\":8065:8082   */\n      mul\n        /* \"#utility.yul\":8060:8063   */\n      dup6\n        /* \"#utility.yul\":8056:8083   */\n      add\n        /* \"#utility.yul\":8107:8184   */\n      tag_198\n        /* \"#utility.yul\":8178:8183   */\n      dup6\n        /* \"#utility.yul\":8107:8184   */\n      tag_91\n      jump\t// in\n    tag_198:\n        /* \"#utility.yul\":8207:8214   */\n      dup1\n        /* \"#utility.yul\":8238:8239   */\n      0x00\n        /* \"#utility.yul\":8223:8652   */\n    tag_199:\n        /* \"#utility.yul\":8248:8254   */\n      dup6\n        /* \"#utility.yul\":8245:8246   */\n      dup2\n        /* \"#utility.yul\":8242:8255   */\n      lt\n        /* \"#utility.yul\":8223:8652   */\n      iszero\n      tag_201\n      jumpi\n        /* \"#utility.yul\":8319:8328   */\n      dup5\n        /* \"#utility.yul\":8313:8317   */\n      dup5\n        /* \"#utility.yul\":8309:8329   */\n      sub\n        /* \"#utility.yul\":8304:8307   */\n      dup10\n        /* \"#utility.yul\":8297:8330   */\n      mstore\n        /* \"#utility.yul\":8370:8376   */\n      dup2\n        /* \"#utility.yul\":8364:8377   */\n      mload\n        /* \"#utility.yul\":8398:8504   */\n      tag_202\n        /* \"#utility.yul\":8499:8503   */\n      dup6\n        /* \"#utility.yul\":8484:8497   */\n      dup3\n        /* \"#utility.yul\":8398:8504   */\n      tag_96\n      jump\t// in\n    tag_202:\n        /* \"#utility.yul\":8390:8504   */\n      swap5\n      pop\n        /* \"#utility.yul\":8527:8608   */\n      tag_203\n        /* \"#utility.yul\":8601:8607   */\n      dup4\n        /* \"#utility.yul\":8527:8608   */\n      tag_97\n      jump\t// in\n    tag_203:\n        /* \"#utility.yul\":8517:8608   */\n      swap3\n      pop\n        /* \"#utility.yul\":8637:8641   */\n      0x20\n        /* \"#utility.yul\":8632:8635   */\n      dup11\n        /* \"#utility.yul\":8628:8642   */\n      add\n        /* \"#utility.yul\":8621:8642   */\n      swap10\n      pop\n        /* \"#utility.yul\":8283:8652   */\n      pop\n        /* \"#utility.yul\":8270:8271   */\n      0x01\n        /* \"#utility.yul\":8267:8268   */\n      dup2\n        /* \"#utility.yul\":8263:8272   */\n      add\n        /* \"#utility.yul\":8258:8272   */\n      swap1\n      pop\n        /* \"#utility.yul\":8223:8652   */\n      jump(tag_199)\n    tag_201:\n        /* \"#utility.yul\":8227:8241   */\n      pop\n        /* \"#utility.yul\":8668:8672   */\n      dup3\n        /* \"#utility.yul\":8661:8672   */\n      swap8\n      pop\n        /* \"#utility.yul\":8688:8691   */\n      dup8\n        /* \"#utility.yul\":8681:8691   */\n      swap6\n      pop\n        /* \"#utility.yul\":7784:8697   */\n      pop\n      pop\n      pop\n      pop\n      pop\n        /* \"#utility.yul\":7618:8697   */\n      swap3\n      swap2\n      pop\n      pop\n      jump\t// out\n        /* \"#utility.yul\":8703:9160   */\n    tag_36:\n        /* \"#utility.yul\":8888:8892   */\n      0x00\n        /* \"#utility.yul\":8926:8928   */\n      0x20\n        /* \"#utility.yul\":8915:8924   */\n      dup3\n        /* \"#utility.yul\":8911:8929   */\n      add\n        /* \"#utility.yul\":8903:8929   */\n      swap1\n      pop\n        /* \"#utility.yul\":8975:8984   */\n      dup2\n        /* \"#utility.yul\":8969:8973   */\n      dup2\n        /* \"#utility.yul\":8965:8985   */\n      sub\n        /* \"#utility.yul\":8961:8962   */\n      0x00\n        /* \"#utility.yul\":8950:8959   */\n      dup4\n        /* \"#utility.yul\":8946:8963   */\n      add\n        /* \"#utility.yul\":8939:8986   */\n      mstore\n        /* \"#utility.yul\":9003:9153   */\n      tag_205\n        /* \"#utility.yul\":9148:9152   */\n      dup2\n        /* \"#utility.yul\":9139:9145   */\n      dup5\n        /* \"#utility.yul\":9003:9153   */\n      tag_98\n      jump\t// in\n    tag_205:\n        /* \"#utility.yul\":8995:9153   */\n      swap1\n      pop\n        /* \"#utility.yul\":8703:9160   */\n      swap3\n      swap2\n      pop\n      pop\n      jump\t// out\n        /* \"#utility.yul\":9166:9820   */\n    tag_39:\n        /* \"#utility.yul\":9244:9250   */\n      0x00\n        /* \"#utility.yul\":9252:9258   */\n      0x00\n        /* \"#utility.yul\":9301:9303   */\n      0x40\n        /* \"#utility.yul\":9289:9298   */\n      dup4\n        /* \"#utility.yul\":9280:9287   */\n      dup6\n        /* \"#utility.yul\":9276:9299   */\n      sub\n        /* \"#utility.yul\":9272:9304   */\n      slt\n        /* \"#utility.yul\":9269:9388   */\n      iszero\n      tag_207\n      jumpi\n        /* \"#utility.yul\":9307:9386   */\n      tag_208\n      tag_69\n      jump\t// in\n    tag_208:\n        /* \"#utility.yul\":9269:9388   */\n    tag_207:\n        /* \"#utility.yul\":9427:9428   */\n      0x00\n        /* \"#utility.yul\":9452:9505   */\n      tag_209\n        /* \"#utility.yul\":9497:9504   */\n      dup6\n        /* \"#utility.yul\":9488:9494   */\n      dup3\n        /* \"#utility.yul\":9477:9486   */\n      dup7\n        /* \"#utility.yul\":9473:9495   */\n      add\n        /* \"#utility.yul\":9452:9505   */\n      tag_73\n      jump\t// in\n    tag_209:\n        /* \"#utility.yul\":9442:9505   */\n      swap3\n      pop\n        /* \"#utility.yul\":9398:9515   */\n      pop\n        /* \"#utility.yul\":9582:9584   */\n      0x20\n        /* \"#utility.yul\":9571:9580   */\n      dup4\n        /* \"#utility.yul\":9567:9585   */\n      add\n        /* \"#utility.yul\":9554:9586   */\n      calldataload\n        /* \"#utility.yul\":9613:9631   */\n      0xffffffffffffffff\n        /* \"#utility.yul\":9605:9611   */\n      dup2\n        /* \"#utility.yul\":9602:9632   */\n      gt\n        /* \"#utility.yul\":9599:9716   */\n      iszero\n      tag_210\n      jumpi\n        /* \"#utility.yul\":9635:9714   */\n      tag_211\n      tag_70\n      jump\t// in\n    tag_211:\n        /* \"#utility.yul\":9599:9716   */\n    tag_210:\n        /* \"#utility.yul\":9740:9803   */\n      tag_212\n        /* \"#utility.yul\":9795:9802   */\n      dup6\n        /* \"#utility.yul\":9786:9792   */\n      dup3\n        /* \"#utility.yul\":9775:9784   */\n      dup7\n        /* \"#utility.yul\":9771:9793   */\n      add\n        /* \"#utility.yul\":9740:9803   */\n      tag_88\n      jump\t// in\n    tag_212:\n        /* \"#utility.yul\":9730:9803   */\n      swap2\n      pop\n        /* \"#utility.yul\":9525:9813   */\n      pop\n        /* \"#utility.yul\":9166:9820   */\n      swap3\n      pop\n      swap3\n      swap1\n      pop\n      jump\t// out\n        /* \"#utility.yul\":9826:10006   */\n    tag_99:\n        /* \"#utility.yul\":9874:9951   */\n      0x4e487b7100000000000000000000000000000000000000000000000000000000\n        /* \"#utility.yul\":9871:9872   */\n      0x00\n        /* \"#utility.yul\":9864:9952   */\n      mstore\n        /* \"#utility.yul\":9971:9975   */\n      0x22\n        /* \"#utility.yul\":9968:9969   */\n      0x04\n        /* \"#utility.yul\":9961:9976   */\n      mstore\n        /* \"#utility.yul\":9995:9999   */\n      0x24\n        /* \"#utility.yul\":9992:9993   */\n      0x00\n        /* \"#utility.yul\":9985:10000   */\n      revert\n        /* \"#utility.yul\":10012:10332   */\n    tag_44:\n        /* \"#utility.yul\":10056:10062   */\n      0x00\n        /* \"#utility.yul\":10093:10094   */\n      0x02\n        /* \"#utility.yul\":10087:10091   */\n      dup3\n        /* \"#utility.yul\":10083:10095   */\n      div\n        /* \"#utility.yul\":10073:10095   */\n      swap1\n      pop\n        /* \"#utility.yul\":10140:10141   */\n      0x01\n        /* \"#utility.yul\":10134:10138   */\n      dup3\n        /* \"#utility.yul\":10130:10142   */\n      and\n        /* \"#utility.yul\":10161:10179   */\n      dup1\n        /* \"#utility.yul\":10151:10232   */\n      tag_215\n      jumpi\n        /* \"#utility.yul\":10217:10221   */\n      0x7f\n        /* \"#utility.yul\":10209:10215   */\n      dup3\n        /* \"#utility.yul\":10205:10222   */\n      and\n        /* \"#utility.yul\":10195:10222   */\n      swap2\n      pop\n        /* \"#utility.yul\":10151:10232   */\n    tag_215:\n        /* \"#utility.yul\":10279:10281   */\n      0x20\n        /* \"#utility.yul\":10271:10277   */\n      dup3\n        /* \"#utility.yul\":10268:10282   */\n      lt\n        /* \"#utility.yul\":10248:10266   */\n      dup2\n        /* \"#utility.yul\":10245:10283   */\n      sub\n        /* \"#utility.yul\":10242:10326   */\n      tag_216\n      jumpi\n        /* \"#utility.yul\":10298:10316   */\n      tag_217\n      tag_99\n      jump\t// in\n    tag_217:\n        /* \"#utility.yul\":10242:10326   */\n    tag_216:\n        /* \"#utility.yul\":10063:10332   */\n      pop\n        /* \"#utility.yul\":10012:10332   */\n      swap2\n      swap1\n      pop\n      jump\t// out\n        /* \"#utility.yul\":10338:10486   */\n    tag_100:\n        /* \"#utility.yul\":10440:10451   */\n      0x00\n        /* \"#utility.yul\":10477:10480   */\n      dup2\n        /* \"#utility.yul\":10462:10480   */\n      swap1\n      pop\n        /* \"#utility.yul\":10338:10486   */\n      swap3\n      swap2\n      pop\n      pop\n      jump\t// out\n        /* \"#utility.yul\":10492:10882   */\n    tag_101:\n        /* \"#utility.yul\":10598:10601   */\n      0x00\n        /* \"#utility.yul\":10626:10665   */\n      tag_220\n        /* \"#utility.yul\":10659:10664   */\n      dup3\n        /* \"#utility.yul\":10626:10665   */\n      tag_75\n      jump\t// in\n    tag_220:\n        /* \"#utility.yul\":10681:10770   */\n      tag_221\n        /* \"#utility.yul\":10763:10769   */\n      dup2\n        /* \"#utility.yul\":10758:10761   */\n      dup6\n        /* \"#utility.yul\":10681:10770   */\n      tag_100\n      jump\t// in\n    tag_221:\n        /* \"#utility.yul\":10674:10770   */\n      swap4\n      pop\n        /* \"#utility.yul\":10779:10844   */\n      tag_222\n        /* \"#utility.yul\":10837:10843   */\n      dup2\n        /* \"#utility.yul\":10832:10835   */\n      dup6\n        /* \"#utility.yul\":10825:10829   */\n      0x20\n        /* \"#utility.yul\":10818:10823   */\n      dup7\n        /* \"#utility.yul\":10814:10830   */\n      add\n        /* \"#utility.yul\":10779:10844   */\n      tag_77\n      jump\t// in\n    tag_222:\n        /* \"#utility.yul\":10869:10875   */\n      dup1\n        /* \"#utility.yul\":10864:10867   */\n      dup5\n        /* \"#utility.yul\":10860:10876   */\n      add\n        /* \"#utility.yul\":10853:10876   */\n      swap2\n      pop\n        /* \"#utility.yul\":10602:10882   */\n      pop\n        /* \"#utility.yul\":10492:10882   */\n      swap3\n      swap2\n      pop\n      pop\n      jump\t// out\n        /* \"#utility.yul\":10888:11163   */\n    tag_53:\n        /* \"#utility.yul\":11020:11023   */\n      0x00\n        /* \"#utility.yul\":11042:11137   */\n      tag_224\n        /* \"#utility.yul\":11133:11136   */\n      dup3\n        /* \"#utility.yul\":11124:11130   */\n      dup5\n        /* \"#utility.yul\":11042:11137   */\n      tag_101\n      jump\t// in\n    tag_224:\n        /* \"#utility.yul\":11035:11137   */\n      swap2\n      pop\n        /* \"#utility.yul\":11154:11157   */\n      dup2\n        /* \"#utility.yul\":11147:11157   */\n      swap1\n      pop\n        /* \"#utility.yul\":10888:11163   */\n      swap3\n      swap2\n      pop\n      pop\n      jump\t// out\n        /* \"#utility.yul\":11169:11310   */\n    tag_102:\n        /* \"#utility.yul\":11218:11222   */\n      0x00\n        /* \"#utility.yul\":11241:11244   */\n      dup2\n        /* \"#utility.yul\":11233:11244   */\n      swap1\n      pop\n        /* \"#utility.yul\":11264:11267   */\n      dup2\n        /* \"#utility.yul\":11261:11262   */\n      0x00\n        /* \"#utility.yul\":11254:11268   */\n      mstore\n        /* \"#utility.yul\":11298:11302   */\n      0x20\n        /* \"#utility.yul\":11295:11296   */\n      0x00\n        /* \"#utility.yul\":11285:11303   */\n      keccak256\n        /* \"#utility.yul\":11277:11303   */\n      swap1\n      pop\n        /* \"#utility.yul\":11169:11310   */\n      swap2\n      swap1\n      pop\n      jump\t// out\n        /* \"#utility.yul\":11316:11409   */\n    tag_103:\n        /* \"#utility.yul\":11353:11359   */\n      0x00\n        /* \"#utility.yul\":11400:11402   */\n      0x20\n        /* \"#utility.yul\":11395:11397   */\n      0x1f\n        /* \"#utility.yul\":11388:11393   */\n      dup4\n        /* \"#utility.yul\":11384:11398   */\n      add\n        /* \"#utility.yul\":11380:11403   */\n      div\n        /* \"#utility.yul\":11370:11403   */\n      swap1\n      pop\n        /* \"#utility.yul\":11316:11409   */\n      swap2\n      swap1\n      pop\n      jump\t// out\n        /* \"#utility.yul\":11415:11522   */\n    tag_104:\n        /* \"#utility.yul\":11459:11467   */\n      0x00\n        /* \"#utility.yul\":11509:11514   */\n      dup3\n        /* \"#utility.yul\":11503:11507   */\n      dup3\n        /* \"#utility.yul\":11499:11515   */\n      shl\n        /* \"#utility.yul\":11478:11515   */\n      swap1\n      pop\n        /* \"#utility.yul\":11415:11522   */\n      swap3\n      swap2\n      pop\n      pop\n      jump\t// out\n        /* \"#utility.yul\":11528:11921   */\n    tag_105:\n        /* \"#utility.yul\":11597:11603   */\n      0x00\n        /* \"#utility.yul\":11647:11648   */\n      0x08\n        /* \"#utility.yul\":11635:11645   */\n      dup4\n        /* \"#utility.yul\":11631:11649   */\n      mul\n        /* \"#utility.yul\":11670:11767   */\n      tag_229\n        /* \"#utility.yul\":11700:11766   */\n      0xffffffffffffffffffffffffffffffffffffffffffffffffffffffffffffffff\n        /* \"#utility.yul\":11689:11698   */\n      dup3\n        /* \"#utility.yul\":11670:11767   */\n      tag_104\n      jump\t// in\n    tag_229:\n        /* \"#utility.yul\":11788:11827   */\n      tag_230\n        /* \"#utility.yul\":11818:11826   */\n      dup7\n        /* \"#utility.yul\":11807:11816   */\n      dup4\n        /* \"#utility.yul\":11788:11827   */\n      tag_104\n      jump\t// in\n    tag_230:\n        /* \"#utility.yul\":11776:11827   */\n      swap6\n      pop\n        /* \"#utility.yul\":11860:11864   */\n      dup1\n        /* \"#utility.yul\":11856:11865   */\n      not\n        /* \"#utility.yul\":11849:11854   */\n      dup5\n        /* \"#utility.yul\":11845:11866   */\n      and\n        /* \"#utility.yul\":11836:11866   */\n      swap4\n      pop\n        /* \"#utility.yul\":11909:11913   */\n      dup1\n        /* \"#utility.yul\":11899:11907   */\n      dup7\n        /* \"#utility.yul\":11895:11914   */\n      and\n        /* \"#utility.yul\":11888:11893   */\n      dup5\n        /* \"#utility.yul\":11885:11915   */\n      or\n        /* \"#utility.yul\":11875:11915   */\n      swap3\n      pop\n        /* \"#utility.yul\":11604:11921   */\n      pop\n      pop\n        /* \"#utility.yul\":11528:11921   */\n      swap4\n      swap3\n      pop\n      pop\n      pop\n      jump\t// out\n        /* \"#utility.yul\":11927:11987   */\n    tag_106:\n        /* \"#utility.yul\":11955:11958   */\n      0x00\n        /* \"#utility.yul\":11976:11981   */\n      dup2\n        /* \"#utility.yul\":11969:11981   */\n      swap1\n      pop\n        /* \"#utility.yul\":11927:11987   */\n      swap2\n      swap1\n      pop\n      jump\t// out\n        /* \"#utility.yul\":11993:12135   */\n    tag_107:\n        /* \"#utility.yul\":12043:12052   */\n      0x00\n        /* \"#utility.yul\":12076:12129   */\n      tag_233\n        /* \"#utility.yul\":12094:12128   */\n      tag_234\n        /* \"#utility.yul\":12103:12127   */\n      tag_235\n        /* \"#utility.yul\":12121:12126   */\n      dup5\n        /* \"#utility.yul\":12103:12127   */\n      tag_71\n      jump\t// in\n    tag_235:\n        /* \"#utility.yul\":12094:12128   */\n      tag_106\n      jump\t// in\n    tag_234:\n        /* \"#utility.yul\":12076:12129   */\n      tag_71\n      jump\t// in\n    tag_233:\n        /* \"#utility.yul\":12063:12129   */\n      swap1\n      pop\n        /* \"#utility.yul\":11993:12135   */\n      swap2\n      swap1\n      pop\n      jump\t// out\n        /* \"#utility.yul\":12141:12216   */\n    tag_108:\n        /* \"#utility.yul\":12184:12187   */\n      0x00\n        /* \"#utility.yul\":12205:12210   */\n      dup2\n        /* \"#utility.yul\":12198:12210   */\n      swap1\n      pop\n        /* \"#utility.yul\":12141:12216   */\n      swap2\n      swap1\n      pop\n      jump\t// out\n        /* \"#utility.yul\":12222:12491   */\n    tag_109:\n        /* \"#utility.yul\":12332:12371   */\n      tag_238\n        /* \"#utility.yul\":12363:12370   */\n      dup4\n        /* \"#utility.yul\":12332:12371   */\n      tag_107\n      jump\t// in\n    tag_238:\n        /* \"#utility.yul\":12393:12484   */\n      tag_239\n        /* \"#utility.yul\":12442:12483   */\n      tag_240\n        /* \"#utility.yul\":12466:12482   */\n      dup3\n        /* \"#utility.yul\":12442:12483   */\n      tag_108\n      jump\t// in\n    tag_240:\n        /* \"#utility.yul\":12434:12440   */\n      dup5\n        /* \"#utility.yul\":12427:12431   */\n      dup5\n        /* \"#utility.yul\":12421:12432   */\n      sload\n        /* \"#utility.yul\":12393:12484   */\n      tag_105\n      jump\t// in\n    tag_239:\n        /* \"#utility.yul\":12387:12391   */\n      dup3\n        /* \"#utility.yul\":12380:12485   */\n      sstore\n        /* \"#utility.yul\":12298:12491   */\n      pop\n        /* \"#utility.yul\":12222:12491   */\n      pop\n      pop\n      pop\n      jump\t// out\n        /* \"#utility.yul\":12497:12570   */\n    tag_110:\n        /* \"#utility.yul\":12542:12545   */\n      0x00\n        /* \"#utility.yul\":12563:12564   */\n      0x00\n        /* \"#utility.yul\":12556:12564   */\n      swap1\n      pop\n        /* \"#utility.yul\":12497:12570   */\n      swap1\n      jump\t// out\n        /* \"#utility.yul\":12576:12765   */\n    tag_111:\n        /* \"#utility.yul\":12653:12685   */\n      tag_243\n      tag_110\n      jump\t// in\n    tag_243:\n        /* \"#utility.yul\":12694:12759   */\n      tag_244\n        /* \"#utility.yul\":12752:12758   */\n      dup2\n        /* \"#utility.yul\":12744:12750   */\n      dup5\n        /* \"#utility.yul\":12738:12742   */\n      dup5\n        /* \"#utility.yul\":12694:12759   */\n      tag_109\n      jump\t// in\n    tag_244:\n        /* \"#utility.yul\":12629:12765   */\n      pop\n        /* \"#utility.yul\":12576:12765   */\n      pop\n      pop\n      jump\t// out\n        /* \"#utility.yul\":12771:12957   */\n    tag_112:\n        /* \"#utility.yul\":12831:12951   */\n    tag_246:\n        /* \"#utility.yul\":12848:12851   */\n      dup2\n        /* \"#utility.yul\":12841:12846   */\n      dup2\n        /* \"#utility.yul\":12838:12852   */\n      lt\n        /* \"#utility.yul\":12831:12951   */\n      iszero\n      tag_248\n      jumpi\n        /* \"#utility.yul\":12902:12941   */\n      tag_249\n        /* \"#utility.yul\":12939:12940   */\n      0x00\n        /* \"#utility.yul\":12932:12937   */\n      dup3\n        /* \"#utility.yul\":12902:12941   */\n      tag_111\n      jump\t// in\n    tag_249:\n        /* \"#utility.yul\":12875:12876   */\n      0x01\n        /* \"#utility.yul\":12868:12873   */\n      dup2\n        /* \"#utility.yul\":12864:12877   */\n      add\n        /* \"#utility.yul\":12855:12877   */\n      swap1\n      pop\n        /* \"#utility.yul\":12831:12951   */\n      jump(tag_246)\n    tag_248:\n        /* \"#utility.yul\":12771:12957   */\n      pop\n      pop\n      jump\t// out\n        /* \"#utility.yul\":12963:13506   */\n    tag_113:\n        /* \"#utility.yul\":13064:13066   */\n      0x1f\n        /* \"#utility.yul\":13059:13062   */\n      dup3\n        /* \"#utility.yul\":13056:13067   */\n      gt\n        /* \"#utility.yul\":13053:13499   */\n      iszero\n      tag_251\n      jumpi\n        /* \"#utility.yul\":13098:13136   */\n      tag_252\n        /* \"#utility.yul\":13130:13135   */\n      dup2\n        /* \"#utility.yul\":13098:13136   */\n      tag_102\n      jump\t// in\n    tag_252:\n        /* \"#utility.yul\":13182:13211   */\n      tag_253\n        /* \"#utility.yul\":13200:13210   */\n      dup5\n        /* \"#utility.yul\":13182:13211   */\n      tag_103\n      jump\t// in\n    tag_253:\n        /* \"#utility.yul\":13172:13180   */\n      dup2\n        /* \"#utility.yul\":13168:13212   */\n      add\n        /* \"#utility.yul\":13365:13367   */\n      0x20\n        /* \"#utility.yul\":13353:13363   */\n      dup6\n        /* \"#utility.yul\":13350:13368   */\n      lt\n        /* \"#utility.yul\":13347:13396   */\n      iszero\n      tag_254\n      jumpi\n        /* \"#utility.yul\":13386:13394   */\n      dup2\n        /* \"#utility.yul\":13371:13394   */\n      swap1\n      pop\n        /* \"#utility.yul\":13347:13396   */\n    tag_254:\n        /* \"#utility.yul\":13409:13489   */\n      tag_255\n        /* \"#utility.yul\":13465:13487   */\n      tag_256\n        /* \"#utility.yul\":13483:13486   */\n      dup6\n        /* \"#utility.yul\":13465:13487   */\n      tag_103\n      jump\t// in\n    tag_256:\n        /* \"#utility.yul\":13455:13463   */\n      dup4\n        /* \"#utility.yul\":13451:13488   */\n      add\n        /* \"#utility.yul\":13438:13449   */\n      dup3\n        /* \"#utility.yul\":13409:13489   */\n      tag_112\n      jump\t// in\n    tag_255:\n        /* \"#utility.yul\":13068:13499   */\n      pop\n      pop\n        /* \"#utility.yul\":13053:13499   */\n    tag_251:\n        /* \"#utility.yul\":12963:13506   */\n      pop\n      pop\n      pop\n      jump\t// out\n        /* \"#utility.yul\":13512:13629   */\n    tag_114:\n        /* \"#utility.yul\":13566:13574   */\n      0x00\n        /* \"#utility.yul\":13616:13621   */\n      dup3\n        /* \"#utility.yul\":13610:13614   */\n      dup3\n        /* \"#utility.yul\":13606:13622   */\n      shr\n        /* \"#utility.yul\":13585:13622   */\n      swap1\n      pop\n        /* \"#utility.yul\":13512:13629   */\n      swap3\n      swap2\n      pop\n      pop\n      jump\t// out\n        /* \"#utility.yul\":13635:13804   */\n    tag_115:\n        /* \"#utility.yul\":13679:13685   */\n      0x00\n        /* \"#utility.yul\":13712:13763   */\n      tag_259\n        /* \"#utility.yul\":13760:13761   */\n      0x00\n        /* \"#utility.yul\":13756:13762   */\n      not\n        /* \"#utility.yul\":13748:13753   */\n      dup5\n        /* \"#utility.yul\":13745:13746   */\n      0x08\n        /* \"#utility.yul\":13741:13754   */\n      mul\n        /* \"#utility.yul\":13712:13763   */\n      tag_114\n      jump\t// in\n    tag_259:\n        /* \"#utility.yul\":13708:13764   */\n      not\n        /* \"#utility.yul\":13793:13797   */\n      dup1\n        /* \"#utility.yul\":13787:13791   */\n      dup4\n        /* \"#utility.yul\":13783:13798   */\n      and\n        /* \"#utility.yul\":13773:13798   */\n      swap2\n      pop\n        /* \"#utility.yul\":13686:13804   */\n      pop\n        /* \"#utility.yul\":13635:13804   */\n      swap3\n      swap2\n      pop\n      pop\n      jump\t// out\n        /* \"#utility.yul\":13809:14104   */\n    tag_116:\n        /* \"#utility.yul\":13885:13889   */\n      0x00\n        /* \"#utility.yul\":14031:14060   */\n      tag_261\n        /* \"#utility.yul\":14056:14059   */\n      dup4\n        /* \"#utility.yul\":14050:14054   */\n      dup4\n        /* \"#utility.yul\":14031:14060   */\n      tag_115\n      jump\t// in\n    tag_261:\n        /* \"#utility.yul\":14023:14060   */\n      swap2\n      pop\n        /* \"#utility.yul\":14093:14096   */\n      dup3\n        /* \"#utility.yul\":14090:14091   */\n      0x02\n        /* \"#utility.yul\":14086:14097   */\n      mul\n        /* \"#utility.yul\":14080:14084   */\n      dup3\n        /* \"#utility.yul\":14077:14098   */\n      or\n        /* \"#utility.yul\":14069:14098   */\n      swap1\n      pop\n        /* \"#utility.yul\":13809:14104   */\n      swap3\n      swap2\n      pop\n      pop\n      jump\t// out\n        /* \"#utility.yul\":14109:15504   */\n    tag_66:\n        /* \"#utility.yul\":14226:14263   */\n      tag_263\n        /* \"#utility.yul\":14259:14262   */\n      dup3\n        /* \"#utility.yul\":14226:14263   */\n      tag_75\n      jump\t// in\n    tag_263:\n        /* \"#utility.yul\":14328:14346   */\n      0xffffffffffffffff\n        /* \"#utility.yul\":14320:14326   */\n      dup2\n        /* \"#utility.yul\":14317:14347   */\n      gt\n        /* \"#utility.yul\":14314:14370   */\n      iszero\n      tag_264\n      jumpi\n        /* \"#utility.yul\":14350:14368   */\n      tag_265\n      tag_82\n      jump\t// in\n    tag_265:\n        /* \"#utility.yul\":14314:14370   */\n    tag_264:\n        /* \"#utility.yul\":14394:14432   */\n      tag_266\n        /* \"#utility.yul\":14426:14430   */\n      dup3\n        /* \"#utility.yul\":14420:14431   */\n      sload\n        /* \"#utility.yul\":14394:14432   */\n      tag_44\n      jump\t// in\n    tag_266:\n        /* \"#utility.yul\":14479:14546   */\n      tag_267\n        /* \"#utility.yul\":14539:14545   */\n      dup3\n        /* \"#utility.yul\":14531:14537   */\n      dup3\n        /* \"#utility.yul\":14525:14529   */\n      dup6\n        /* \"#utility.yul\":14479:14546   */\n      tag_113\n      jump\t// in\n    tag_267:\n        /* \"#utility.yul\":14573:14574   */\n      0x00\n        /* \"#utility.yul\":14597:14601   */\n      0x20\n        /* \"#utility.yul\":14584:14601   */\n      swap1\n      pop\n        /* \"#utility.yul\":14629:14631   */\n      0x1f\n        /* \"#utility.yul\":14621:14627   */\n      dup4\n        /* \"#utility.yul\":14618:14632   */\n      gt\n        /* \"#utility.yul\":14646:14647   */\n      0x01\n        /* \"#utility.yul\":14641:15259   */\n      dup2\n      eq\n      tag_269\n      jumpi\n        /* \"#utility.yul\":15303:15304   */\n      0x00\n        /* \"#utility.yul\":15320:15326   */\n      dup5\n        /* \"#utility.yul\":15317:15394   */\n      iszero\n      tag_270\n      jumpi\n        /* \"#utility.yul\":15369:15378   */\n      dup3\n        /* \"#utility.yul\":15364:15367   */\n      dup8\n        /* \"#utility.yul\":15360:15379   */\n      add\n        /* \"#utility.yul\":15354:15380   */\n      mload\n        /* \"#utility.yul\":15345:15380   */\n      swap1\n      pop\n        /* \"#utility.yul\":15317:15394   */\n    tag_270:\n        /* \"#utility.yul\":15420:15487   */\n      tag_271\n        /* \"#utility.yul\":15480:15486   */\n      dup6\n        /* \"#utility.yul\":15473:15478   */\n      dup3\n        /* \"#utility.yul\":15420:15487   */\n      tag_116\n      jump\t// in\n    tag_271:\n        /* \"#utility.yul\":15414:15418   */\n      dup7\n        /* \"#utility.yul\":15407:15488   */\n      sstore\n        /* \"#utility.yul\":15276:15498   */\n      pop\n        /* \"#utility.yul\":14611:15498   */\n      jump(tag_268)\n        /* \"#utility.yul\":14641:15259   */\n    tag_269:\n        /* \"#utility.yul\":14693:14697   */\n      0x1f\n        /* \"#utility.yul\":14689:14698   */\n      not\n        /* \"#utility.yul\":14681:14687   */\n      dup5\n        /* \"#utility.yul\":14677:14699   */\n      and\n        /* \"#utility.yul\":14727:14764   */\n      tag_272\n        /* \"#utility.yul\":14759:14763   */\n      dup7\n        /* \"#utility.yul\":14727:14764   */\n      tag_102\n      jump\t// in\n    tag_272:\n        /* \"#utility.yul\":14786:14787   */\n      0x00\n        /* \"#utility.yul\":14800:15008   */\n    tag_273:\n        /* \"#utility.yul\":14814:14821   */\n      dup3\n        /* \"#utility.yul\":14811:14812   */\n      dup2\n        /* \"#utility.yul\":14808:14822   */\n      lt\n        /* \"#utility.yul\":14800:15008   */\n      iszero\n      tag_275\n      jumpi\n        /* \"#utility.yul\":14893:14902   */\n      dup5\n        /* \"#utility.yul\":14888:14891   */\n      dup10\n        /* \"#utility.yul\":14884:14903   */\n      add\n        /* \"#utility.yul\":14878:14904   */\n      mload\n        /* \"#utility.yul\":14870:14876   */\n      dup3\n        /* \"#utility.yul\":14863:14905   */\n      sstore\n        /* \"#utility.yul\":14944:14945   */\n      0x01\n        /* \"#utility.yul\":14936:14942   */\n      dup3\n        /* \"#utility.yul\":14932:14946   */\n      add\n        /* \"#utility.yul\":14922:14946   */\n      swap2\n      pop\n        /* \"#utility.yul\":14991:14993   */\n      0x20\n        /* \"#utility.yul\":14980:14989   */\n      dup6\n        /* \"#utility.yul\":14976:14994   */\n      add\n        /* \"#utility.yul\":14963:14994   */\n      swap5\n      pop\n        /* \"#utility.yul\":14837:14841   */\n      0x20\n        /* \"#utility.yul\":14834:14835   */\n      dup2\n        /* \"#utility.yul\":14830:14842   */\n      add\n        /* \"#utility.yul\":14825:14842   */\n      swap1\n      pop\n        /* \"#utility.yul\":14800:15008   */\n      jump(tag_273)\n    tag_275:\n        /* \"#utility.yul\":15036:15042   */\n      dup7\n        /* \"#utility.yul\":15027:15034   */\n      dup4\n        /* \"#utility.yul\":15024:15043   */\n      lt\n        /* \"#utility.yul\":15021:15200   */\n      iszero\n      tag_276\n      jumpi\n        /* \"#utility.yul\":15094:15103   */\n      dup5\n        /* \"#utility.yul\":15089:15092   */\n      dup10\n        /* \"#utility.yul\":15085:15104   */\n      add\n        /* \"#utility.yul\":15079:15105   */\n      mload\n        /* \"#utility.yul\":15137:15185   */\n      tag_277\n        /* \"#utility.yul\":15179:15183   */\n      0x1f\n        /* \"#utility.yul\":15171:15177   */\n      dup10\n        /* \"#utility.yul\":15167:15184   */\n      and\n        /* \"#utility.yul\":15156:15165   */\n      dup3\n        /* \"#utility.yul\":15137:15185   */\n      tag_115\n      jump\t// in\n    tag_277:\n        /* \"#utility.yul\":15129:15135   */\n      dup4\n        /* \"#utility.yul\":15122:15186   */\n      sstore\n        /* \"#utility.yul\":15044:15200   */\n      pop\n        /* \"#utility.yul\":15021:15200   */\n    tag_276:\n        /* \"#utility.yul\":15246:15247   */\n      0x01\n        /* \"#utility.yul\":15242:15243   */\n      0x02\n        /* \"#utility.yul\":15234:15240   */\n      dup9\n        /* \"#utility.yul\":15230:15244   */\n      mul\n        /* \"#utility.yul\":15226:15248   */\n      add\n        /* \"#utility.yul\":15220:15224   */\n      dup9\n        /* \"#utility.yul\":15213:15249   */\n      sstore\n        /* \"#utility.yul\":14648:15259   */\n      pop\n      pop\n      pop\n        /* \"#utility.yul\":14611:15498   */\n    tag_268:\n      pop\n        /* \"#utility.yul\":14201:15504   */\n      pop\n      pop\n      pop\n        /* \"#utility.yul\":14109:15504   */\n      pop\n      pop\n      jump\t// out\n\n    auxdata: 0xa264697066735822122032f65c91965f8b9c613ec2e3c1cdebc628dacb092fd69b388cf77f49dd22f37664736f6c634300081e0033\n}\n",
				"bytecode": {
					"linkReferences": {},
					"object": "6080604052348015600e575f5ffd5b50610bd78061001c5f395ff3fe608060405234801561000f575f5ffd5b506004361061007b575f3560e01c8063791fa7bd11610059578063791fa7bd146100ea57806390c3ee4d1461011a5780639fcaa7151461014a578063d44db066146101685761007b565b80635a7374801461007f5780636057361d146100b05780636d4ce63c146100cc575b5f5ffd5b6100996004803603810190610094919061045b565b610184565b6040516100a7929190610505565b60405180910390f35b6100ca60048036038101906100c5919061045b565b610239565b005b6100d4610242565b6040516100e19190610533565b60405180910390f35b61010460048036038101906100ff9190610678565b61024a565b6040516101119190610533565b60405180910390f35b610134600480360381019061012f9190610678565b610271565b6040516101419190610533565b60405180910390f35b61015261029e565b60405161015f919061080b565b60405180910390f35b610182600480360381019061017d919061082b565b610393565b005b60018181548110610193575f80fd5b905f5260205f2090600202015f91509050805f0154908060010180546101b8906108b2565b80601f01602080910402602001604051908101604052809291908181526020018280546101e4906108b2565b801561022f5780601f106102065761010080835404028352916020019161022f565b820191905f5260205f20905b81548152906001019060200180831161021257829003601f168201915b5050505050905082565b805f8190555050565b5f5f54905090565b5f60028260405161025b919061091c565b9081526020016040518091039020549050919050565b6002818051602081018201805184825260208301602085012081835280955050505050505f915090505481565b60606001805480602002602001604051908101604052809291908181526020015f905b8282101561038a578382905f5260205f2090600202016040518060400160405290815f82015481526020016001820180546102fb906108b2565b80601f0160208091040260200160405190810160405280929190818152602001828054610327906108b2565b80156103725780601f1061034957610100808354040283529160200191610372565b820191905f5260205f20905b81548152906001019060200180831161035557829003601f168201915b505050505081525050815260200190600101906102c1565b50505050905090565b6001604051806040016040528084815260200183815250908060018154018082558091505060019003905f5260205f2090600202015f909190919091505f820151815f015560208201518160010190816103ed9190610ad2565b50505081600282604051610401919061091c565b9081526020016040518091039020819055505050565b5f604051905090565b5f5ffd5b5f5ffd5b5f819050919050565b61043a81610428565b8114610444575f5ffd5b50565b5f8135905061045581610431565b92915050565b5f602082840312156104705761046f610420565b5b5f61047d84828501610447565b91505092915050565b61048f81610428565b82525050565b5f81519050919050565b5f82825260208201905092915050565b8281835e5f83830152505050565b5f601f19601f8301169050919050565b5f6104d782610495565b6104e1818561049f565b93506104f18185602086016104af565b6104fa816104bd565b840191505092915050565b5f6040820190506105185f830185610486565b818103602083015261052a81846104cd565b90509392505050565b5f6020820190506105465f830184610486565b92915050565b5f5ffd5b5f5ffd5b7f4e487b71000000000000000000000000000000000000000000000000000000005f52604160045260245ffd5b61058a826104bd565b810181811067ffffffffffffffff821117156105a9576105a8610554565b5b80604052505050565b5f6105bb610417565b90506105c78282610581565b919050565b5f67ffffffffffffffff8211156105e6576105e5610554565b5b6105ef826104bd565b9050602081019050919050565b828183375f83830152505050565b5f61061c610617846105cc565b6105b2565b90508281526020810184848401111561063857610637610550565b5b6106438482856105fc565b509392505050565b5f82601f83011261065f5761065e61054c565b5b813561066f84826020860161060a565b91505092915050565b5f6020828403121561068d5761068c610420565b5b5f82013567ffffffffffffffff8111156106aa576106a9610424565b5b6106b68482850161064b565b91505092915050565b5f81519050919050565b5f82825260208201905092915050565b5f819050602082019050919050565b6106f181610428565b82525050565b5f82825260208201905092915050565b5f61071182610495565b61071b81856106f7565b935061072b8185602086016104af565b610734816104bd565b840191505092915050565b5f604083015f8301516107545f8601826106e8565b506020830151848203602086015261076c8282610707565b9150508091505092915050565b5f610784838361073f565b905092915050565b5f602082019050919050565b5f6107a2826106bf565b6107ac81856106c9565b9350836020820285016107be856106d9565b805f5b858110156107f957848403895281516107da8582610779565b94506107e58361078c565b925060208a019950506001810190506107c1565b50829750879550505050505092915050565b5f6020820190508181035f8301526108238184610798565b905092915050565b5f5f6040838503121561084157610840610420565b5b5f61084e85828601610447565b925050602083013567ffffffffffffffff81111561086f5761086e610424565b5b61087b8582860161064b565b9150509250929050565b7f4e487b71000000000000000000000000000000000000000000000000000000005f52602260045260245ffd5b5f60028204905060018216806108c957607f821691505b6020821081036108dc576108db610885565b5b50919050565b5f81905092915050565b5f6108f682610495565b61090081856108e2565b93506109108185602086016104af565b80840191505092915050565b5f61092782846108ec565b915081905092915050565b5f819050815f5260205f209050919050565b5f6020601f8301049050919050565b5f82821b905092915050565b5f6008830261098e7fffffffffffffffffffffffffffffffffffffffffffffffffffffffffffffffff82610953565b6109988683610953565b95508019841693508086168417925050509392505050565b5f819050919050565b5f6109d36109ce6109c984610428565b6109b0565b610428565b9050919050565b5f819050919050565b6109ec836109b9565b610a006109f8826109da565b84845461095f565b825550505050565b5f5f905090565b610a17610a08565b610a228184846109e3565b505050565b5b81811015610a4557610a3a5f82610a0f565b600181019050610a28565b5050565b601f821115610a8a57610a5b81610932565b610a6484610944565b81016020851015610a73578190505b610a87610a7f85610944565b830182610a27565b50505b505050565b5f82821c905092915050565b5f610aaa5f1984600802610a8f565b1980831691505092915050565b5f610ac28383610a9b565b9150826002028217905092915050565b610adb82610495565b67ffffffffffffffff811115610af457610af3610554565b5b610afe82546108b2565b610b09828285610a49565b5f60209050601f831160018114610b3a575f8415610b28578287015190505b610b328582610ab7565b865550610b99565b601f198416610b4886610932565b5f5b82811015610b6f57848901518255600182019150602085019450602081019050610b4a565b86831015610b8c5784890151610b88601f891682610a9b565b8355505b6001600288020188555050505b50505050505056fea264697066735822122032f65c91965f8b9c613ec2e3c1cdebc628dacb092fd69b388cf77f49dd22f37664736f6c634300081e0033",
					"opcodes": "PUSH1 0x80 PUSH1 0x40 MSTORE CALLVALUE DUP1 ISZERO PUSH1 0xE JUMPI PUSH0 PUSH0 REVERT JUMPDEST POP PUSH2 0xBD7 DUP1 PUSH2 0x1C PUSH0 CODECOPY PUSH0 RETURN INVALID PUSH1 0x80 PUSH1 0x40 MSTORE CALLVALUE DUP1 ISZERO PUSH2 0xF JUMPI PUSH0 PUSH0 REVERT JUMPDEST POP PUSH1 0x4 CALLDATASIZE LT PUSH2 0x7B JUMPI PUSH0 CALLDATALOAD PUSH1 0xE0 SHR DUP1 PUSH4 0x791FA7BD GT PUSH2 0x59 JUMPI DUP1 PUSH4 0x791FA7BD EQ PUSH2 0xEA JUMPI DUP1 PUSH4 0x90C3EE4D EQ PUSH2 0x11A JUMPI DUP1 PUSH4 0x9FCAA715 EQ PUSH2 0x14A JUMPI DUP1 PUSH4 0xD44DB066 EQ PUSH2 0x168 JUMPI PUSH2 0x7B JUMP JUMPDEST DUP1 PUSH4 0x5A737480 EQ PUSH2 0x7F JUMPI DUP1 PUSH4 0x6057361D EQ PUSH2 0xB0 JUMPI DUP1 PUSH4 0x6D4CE63C EQ PUSH2 0xCC JUMPI JUMPDEST PUSH0 PUSH0 REVERT JUMPDEST PUSH2 0x99 PUSH1 0x4 DUP1 CALLDATASIZE SUB DUP2 ADD SWAP1 PUSH2 0x94 SWAP2 SWAP1 PUSH2 0x45B JUMP JUMPDEST PUSH2 0x184 JUMP JUMPDEST PUSH1 0x40 MLOAD PUSH2 0xA7 SWAP3 SWAP2 SWAP1 PUSH2 0x505 JUMP JUMPDEST PUSH1 0x40 MLOAD DUP1 SWAP2 SUB SWAP1 RETURN JUMPDEST PUSH2 0xCA PUSH1 0x4 DUP1 CALLDATASIZE SUB DUP2 ADD SWAP1 PUSH2 0xC5 SWAP2 SWAP1 PUSH2 0x45B JUMP JUMPDEST PUSH2 0x239 JUMP JUMPDEST STOP JUMPDEST PUSH2 0xD4 PUSH2 0x242 JUMP JUMPDEST PUSH1 0x40 MLOAD PUSH2 0xE1 SWAP2 SWAP1 PUSH2 0x533 JUMP JUMPDEST PUSH1 0x40 MLOAD DUP1 SWAP2 SUB SWAP1 RETURN JUMPDEST PUSH2 0x104 PUSH1 0x4 DUP1 CALLDATASIZE SUB DUP2 ADD SWAP1 PUSH2 0xFF SWAP2 SWAP1 PUSH2 0x678 JUMP JUMPDEST PUSH2 0x24A JUMP JUMPDEST PUSH1 0x40 MLOAD PUSH2 0x111 SWAP2 SWAP1 PUSH2 0x533 JUMP JUMPDEST PUSH1 0x40 MLOAD DUP1 SWAP2 SUB SWAP1 RETURN JUMPDEST PUSH2 0x134 PUSH1 0x4 DUP1 CALLDATASIZE SUB DUP2 ADD SWAP1 PUSH2 0x12F SWAP2 SWAP1 PUSH2 0x678 JUMP JUMPDEST PUSH2 0x271 JUMP JUMPDEST PUSH1 0x40 MLOAD PUSH2 0x141 SWAP2 SWAP1 PUSH2 0x533 JUMP JUMPDEST PUSH1 0x40 MLOAD DUP1 SWAP2 SUB SWAP1 RETURN JUMPDEST PUSH2 0x152 PUSH2 0x29E JUMP JUMPDEST PUSH1 0x40 MLOAD PUSH2 0x15F SWAP2 SWAP1 PUSH2 0x80B JUMP JUMPDEST PUSH1 0x40 MLOAD DUP1 SWAP2 SUB SWAP1 RETURN JUMPDEST PUSH2 0x182 PUSH1 0x4 DUP1 CALLDATASIZE SUB DUP2 ADD SWAP1 PUSH2 0x17D SWAP2 SWAP1 PUSH2 0x82B JUMP JUMPDEST PUSH2 0x393 JUMP JUMPDEST STOP JUMPDEST PUSH1 0x1 DUP2 DUP2 SLOAD DUP2 LT PUSH2 0x193 JUMPI PUSH0 DUP1 REVERT JUMPDEST SWAP1 PUSH0 MSTORE PUSH1 0x20 PUSH0 KECCAK256 SWAP1 PUSH1 0x2 MUL ADD PUSH0 SWAP2 POP SWAP1 POP DUP1 PUSH0 ADD SLOAD SWAP1 DUP1 PUSH1 0x1 ADD DUP1 SLOAD PUSH2 0x1B8 SWAP1 PUSH2 0x8B2 JUMP JUMPDEST DUP1 PUSH1 0x1F ADD PUSH1 0x20 DUP1 SWAP2 DIV MUL PUSH1 0x20 ADD PUSH1 0x40 MLOAD SWAP1 DUP2 ADD PUSH1 0x40 MSTORE DUP1 SWAP3 SWAP2 SWAP1 DUP2 DUP2 MSTORE PUSH1 0x20 ADD DUP3 DUP1 SLOAD PUSH2 0x1E4 SWAP1 PUSH2 0x8B2 JUMP JUMPDEST DUP1 ISZERO PUSH2 0x22F JUMPI DUP1 PUSH1 0x1F LT PUSH2 0x206 JUMPI PUSH2 0x100 DUP1 DUP4 SLOAD DIV MUL DUP4 MSTORE SWAP2 PUSH1 0x20 ADD SWAP2 PUSH2 0x22F JUMP JUMPDEST DUP3 ADD SWAP2 SWAP1 PUSH0 MSTORE PUSH1 0x20 PUSH0 KECCAK256 SWAP1 JUMPDEST DUP2 SLOAD DUP2 MSTORE SWAP1 PUSH1 0x1 ADD SWAP1 PUSH1 0x20 ADD DUP1 DUP4 GT PUSH2 0x212 JUMPI DUP3 SWAP1 SUB PUSH1 0x1F AND DUP3 ADD SWAP2 JUMPDEST POP POP POP POP POP SWAP1 POP DUP3 JUMP JUMPDEST DUP1 PUSH0 DUP2 SWAP1 SSTORE POP POP JUMP JUMPDEST PUSH0 PUSH0 SLOAD SWAP1 POP SWAP1 JUMP JUMPDEST PUSH0 PUSH1 0x2 DUP3 PUSH1 0x40 MLOAD PUSH2 0x25B SWAP2 SWAP1 PUSH2 0x91C JUMP JUMPDEST SWAP1 DUP2 MSTORE PUSH1 0x20 ADD PUSH1 0x40 MLOAD DUP1 SWAP2 SUB SWAP1 KECCAK256 SLOAD SWAP1 POP SWAP2 SWAP1 POP JUMP JUMPDEST PUSH1 0x2 DUP2 DUP1 MLOAD PUSH1 0x20 DUP2 ADD DUP3 ADD DUP1 MLOAD DUP5 DUP3 MSTORE PUSH1 0x20 DUP4 ADD PUSH1 0x20 DUP6 ADD KECCAK256 DUP2 DUP4 MSTORE DUP1 SWAP6 POP POP POP POP POP POP PUSH0 SWAP2 POP SWAP1 POP SLOAD DUP2 JUMP JUMPDEST PUSH1 0x60 PUSH1 0x1 DUP1 SLOAD DUP1 PUSH1 0x20 MUL PUSH1 0x20 ADD PUSH1 0x40 MLOAD SWAP1 DUP2 ADD PUSH1 0x40 MSTORE DUP1 SWAP3 SWAP2 SWAP1 DUP2 DUP2 MSTORE PUSH1 0x20 ADD PUSH0 SWAP1 JUMPDEST DUP3 DUP3 LT ISZERO PUSH2 0x38A JUMPI DUP4 DUP3 SWAP1 PUSH0 MSTORE PUSH1 0x20 PUSH0 KECCAK256 SWAP1 PUSH1 0x2 MUL ADD PUSH1 0x40 MLOAD DUP1 PUSH1 0x40 ADD PUSH1 0x40 MSTORE SWAP1 DUP2 PUSH0 DUP3 ADD SLOAD DUP2 MSTORE PUSH1 0x20 ADD PUSH1 0x1 DUP3 ADD DUP1 SLOAD PUSH2 0x2FB SWAP1 PUSH2 0x8B2 JUMP JUMPDEST DUP1 PUSH1 0x1F ADD PUSH1 0x20 DUP1 SWAP2 DIV MUL PUSH1 0x20 ADD PUSH1 0x40 MLOAD SWAP1 DUP2 ADD PUSH1 0x40 MSTORE DUP1 SWAP3 SWAP2 SWAP1 DUP2 DUP2 MSTORE PUSH1 0x20 ADD DUP3 DUP1 SLOAD PUSH2 0x327 SWAP1 PUSH2 0x8B2 JUMP JUMPDEST DUP1 ISZERO PUSH2 0x372 JUMPI DUP1 PUSH1 0x1F LT PUSH2 0x349 JUMPI PUSH2 0x100 DUP1 DUP4 SLOAD DIV MUL DUP4 MSTORE SWAP2 PUSH1 0x20 ADD SWAP2 PUSH2 0x372 JUMP JUMPDEST DUP3 ADD SWAP2 SWAP1 PUSH0 MSTORE PUSH1 0x20 PUSH0 KECCAK256 SWAP1 JUMPDEST DUP2 SLOAD DUP2 MSTORE SWAP1 PUSH1 0x1 ADD SWAP1 PUSH1 0x20 ADD DUP1 DUP4 GT PUSH2 0x355 JUMPI DUP3 SWAP1 SUB PUSH1 0x1F AND DUP3 ADD SWAP2 JUMPDEST POP POP POP POP POP DUP2 MSTORE POP POP DUP2 MSTORE PUSH1 0x20 ADD SWAP1 PUSH1 0x1 ADD SWAP1 PUSH2 0x2C1 JUMP JUMPDEST POP POP POP POP SWAP1 POP SWAP1 JUMP JUMPDEST PUSH1 0x1 PUSH1 0x40 MLOAD DUP1 PUSH1 0x40 ADD PUSH1 0x40 MSTORE DUP1 DUP5 DUP2 MSTORE PUSH1 0x20 ADD DUP4 DUP2 MSTORE POP SWAP1 DUP1 PUSH1 0x1 DUP2 SLOAD ADD DUP1 DUP3 SSTORE DUP1 SWAP2 POP POP PUSH1 0x1 SWAP1 SUB SWAP1 PUSH0 MSTORE PUSH1 0x20 PUSH0 KECCAK256 SWAP1 PUSH1 0x2 MUL ADD PUSH0 SWAP1 SWAP2 SWAP1 SWAP2 SWAP1 SWAP2 POP PUSH0 DUP3 ADD MLOAD DUP2 PUSH0 ADD SSTORE PUSH1 0x20 DUP3 ADD MLOAD DUP2 PUSH1 0x1 ADD SWAP1 DUP2 PUSH2 0x3ED SWAP2 SWAP1 PUSH2 0xAD2 JUMP JUMPDEST POP POP POP DUP2 PUSH1 0x2 DUP3 PUSH1 0x40 MLOAD PUSH2 0x401 SWAP2 SWAP1 PUSH2 0x91C JUMP JUMPDEST SWAP1 DUP2 MSTORE PUSH1 0x20 ADD PUSH1 0x40 MLOAD DUP1 SWAP2 SUB SWAP1 KECCAK256 DUP2 SWAP1 SSTORE POP POP POP JUMP JUMPDEST PUSH0 PUSH1 0x40 MLOAD SWAP1 POP SWAP1 JUMP JUMPDEST PUSH0 PUSH0 REVERT JUMPDEST PUSH0 PUSH0 REVERT JUMPDEST PUSH0 DUP2 SWAP1 POP SWAP2 SWAP1 POP JUMP JUMPDEST PUSH2 0x43A DUP2 PUSH2 0x428 JUMP JUMPDEST DUP2 EQ PUSH2 0x444 JUMPI PUSH0 PUSH0 REVERT JUMPDEST POP JUMP JUMPDEST PUSH0 DUP2 CALLDATALOAD SWAP1 POP PUSH2 0x455 DUP2 PUSH2 0x431 JUMP JUMPDEST SWAP3 SWAP2 POP POP JUMP JUMPDEST PUSH0 PUSH1 0x20 DUP3 DUP5 SUB SLT ISZERO PUSH2 0x470 JUMPI PUSH2 0x46F PUSH2 0x420 JUMP JUMPDEST JUMPDEST PUSH0 PUSH2 0x47D DUP5 DUP3 DUP6 ADD PUSH2 0x447 JUMP JUMPDEST SWAP2 POP POP SWAP3 SWAP2 POP POP JUMP JUMPDEST PUSH2 0x48F DUP2 PUSH2 0x428 JUMP JUMPDEST DUP3 MSTORE POP POP JUMP JUMPDEST PUSH0 DUP2 MLOAD SWAP1 POP SWAP2 SWAP1 POP JUMP JUMPDEST PUSH0 DUP3 DUP3 MSTORE PUSH1 0x20 DUP3 ADD SWAP1 POP SWAP3 SWAP2 POP POP JUMP JUMPDEST DUP3 DUP2 DUP4 MCOPY PUSH0 DUP4 DUP4 ADD MSTORE POP POP POP JUMP JUMPDEST PUSH0 PUSH1 0x1F NOT PUSH1 0x1F DUP4 ADD AND SWAP1 POP SWAP2 SWAP1 POP JUMP JUMPDEST PUSH0 PUSH2 0x4D7 DUP3 PUSH2 0x495 JUMP JUMPDEST PUSH2 0x4E1 DUP2 DUP6 PUSH2 0x49F JUMP JUMPDEST SWAP4 POP PUSH2 0x4F1 DUP2 DUP6 PUSH1 0x20 DUP7 ADD PUSH2 0x4AF JUMP JUMPDEST PUSH2 0x4FA DUP2 PUSH2 0x4BD JUMP JUMPDEST DUP5 ADD SWAP2 POP POP SWAP3 SWAP2 POP POP JUMP JUMPDEST PUSH0 PUSH1 0x40 DUP3 ADD SWAP1 POP PUSH2 0x518 PUSH0 DUP4 ADD DUP6 PUSH2 0x486 JUMP JUMPDEST DUP2 DUP2 SUB PUSH1 0x20 DUP4 ADD MSTORE PUSH2 0x52A DUP2 DUP5 PUSH2 0x4CD JUMP JUMPDEST SWAP1 POP SWAP4 SWAP3 POP POP POP JUMP JUMPDEST PUSH0 PUSH1 0x20 DUP3 ADD SWAP1 POP PUSH2 0x546 PUSH0 DUP4 ADD DUP5 PUSH2 0x486 JUMP JUMPDEST SWAP3 SWAP2 POP POP JUMP JUMPDEST PUSH0 PUSH0 REVERT JUMPDEST PUSH0 PUSH0 REVERT JUMPDEST PUSH32 0x4E487B7100000000000000000000000000000000000000000000000000000000 PUSH0 MSTORE PUSH1 0x41 PUSH1 0x4 MSTORE PUSH1 0x24 PUSH0 REVERT JUMPDEST PUSH2 0x58A DUP3 PUSH2 0x4BD JUMP JUMPDEST DUP2 ADD DUP2 DUP2 LT PUSH8 0xFFFFFFFFFFFFFFFF DUP3 GT OR ISZERO PUSH2 0x5A9 JUMPI PUSH2 0x5A8 PUSH2 0x554 JUMP JUMPDEST JUMPDEST DUP1 PUSH1 0x40 MSTORE POP POP POP JUMP JUMPDEST PUSH0 PUSH2 0x5BB PUSH2 0x417 JUMP JUMPDEST SWAP1 POP PUSH2 0x5C7 DUP3 DUP3 PUSH2 0x581 JUMP JUMPDEST SWAP2 SWAP1 POP JUMP JUMPDEST PUSH0 PUSH8 0xFFFFFFFFFFFFFFFF DUP3 GT ISZERO PUSH2 0x5E6 JUMPI PUSH2 0x5E5 PUSH2 0x554 JUMP JUMPDEST JUMPDEST PUSH2 0x5EF DUP3 PUSH2 0x4BD JUMP JUMPDEST SWAP1 POP PUSH1 0x20 DUP2 ADD SWAP1 POP SWAP2 SWAP1 POP JUMP JUMPDEST DUP3 DUP2 DUP4 CALLDATACOPY PUSH0 DUP4 DUP4 ADD MSTORE POP POP POP JUMP JUMPDEST PUSH0 PUSH2 0x61C PUSH2 0x617 DUP5 PUSH2 0x5CC JUMP JUMPDEST PUSH2 0x5B2 JUMP JUMPDEST SWAP1 POP DUP3 DUP2 MSTORE PUSH1 0x20 DUP2 ADD DUP5 DUP5 DUP5 ADD GT ISZERO PUSH2 0x638 JUMPI PUSH2 0x637 PUSH2 0x550 JUMP JUMPDEST JUMPDEST PUSH2 0x643 DUP5 DUP3 DUP6 PUSH2 0x5FC JUMP JUMPDEST POP SWAP4 SWAP3 POP POP POP JUMP JUMPDEST PUSH0 DUP3 PUSH1 0x1F DUP4 ADD SLT PUSH2 0x65F JUMPI PUSH2 0x65E PUSH2 0x54C JUMP JUMPDEST JUMPDEST DUP2 CALLDATALOAD PUSH2 0x66F DUP5 DUP3 PUSH1 0x20 DUP7 ADD PUSH2 0x60A JUMP JUMPDEST SWAP2 POP POP SWAP3 SWAP2 POP POP JUMP JUMPDEST PUSH0 PUSH1 0x20 DUP3 DUP5 SUB SLT ISZERO PUSH2 0x68D JUMPI PUSH2 0x68C PUSH2 0x420 JUMP JUMPDEST JUMPDEST PUSH0 DUP3 ADD CALLDATALOAD PUSH8 0xFFFFFFFFFFFFFFFF DUP2 GT ISZERO PUSH2 0x6AA JUMPI PUSH2 0x6A9 PUSH2 0x424 JUMP JUMPDEST JUMPDEST PUSH2 0x6B6 DUP5 DUP3 DUP6 ADD PUSH2 0x64B JUMP JUMPDEST SWAP2 POP POP SWAP3 SWAP2 POP POP JUMP JUMPDEST PUSH0 DUP2 MLOAD SWAP1 POP SWAP2 SWAP1 POP JUMP JUMPDEST PUSH0 DUP3 DUP3 MSTORE PUSH1 0x20 DUP3 ADD SWAP1 POP SWAP3 SWAP2 POP POP JUMP JUMPDEST PUSH0 DUP2 SWAP1 POP PUSH1 0x20 DUP3 ADD SWAP1 POP SWAP2 SWAP1 POP JUMP JUMPDEST PUSH2 0x6F1 DUP2 PUSH2 0x428 JUMP JUMPDEST DUP3 MSTORE POP POP JUMP JUMPDEST PUSH0 DUP3 DUP3 MSTORE PUSH1 0x20 DUP3 ADD SWAP1 POP SWAP3 SWAP2 POP POP JUMP JUMPDEST PUSH0 PUSH2 0x711 DUP3 PUSH2 0x495 JUMP JUMPDEST PUSH2 0x71B DUP2 DUP6 PUSH2 0x6F7 JUMP JUMPDEST SWAP4 POP PUSH2 0x72B DUP2 DUP6 PUSH1 0x20 DUP7 ADD PUSH2 0x4AF JUMP JUMPDEST PUSH2 0x734 DUP2 PUSH2 0x4BD JUMP JUMPDEST DUP5 ADD SWAP2 POP POP SWAP3 SWAP2 POP POP JUMP JUMPDEST PUSH0 PUSH1 0x40 DUP4 ADD PUSH0 DUP4 ADD MLOAD PUSH2 0x754 PUSH0 DUP7 ADD DUP3 PUSH2 0x6E8 JUMP JUMPDEST POP PUSH1 0x20 DUP4 ADD MLOAD DUP5 DUP3 SUB PUSH1 0x20 DUP7 ADD MSTORE PUSH2 0x76C DUP3 DUP3 PUSH2 0x707 JUMP JUMPDEST SWAP2 POP POP DUP1 SWAP2 POP POP SWAP3 SWAP2 POP POP JUMP JUMPDEST PUSH0 PUSH2 0x784 DUP4 DUP4 PUSH2 0x73F JUMP JUMPDEST SWAP1 POP SWAP3 SWAP2 POP POP JUMP JUMPDEST PUSH0 PUSH1 0x20 DUP3 ADD SWAP1 POP SWAP2 SWAP1 POP JUMP JUMPDEST PUSH0 PUSH2 0x7A2 DUP3 PUSH2 0x6BF JUMP JUMPDEST PUSH2 0x7AC DUP2 DUP6 PUSH2 0x6C9 JUMP JUMPDEST SWAP4 POP DUP4 PUSH1 0x20 DUP3 MUL DUP6 ADD PUSH2 0x7BE DUP6 PUSH2 0x6D9 JUMP JUMPDEST DUP1 PUSH0 JUMPDEST DUP6 DUP2 LT ISZERO PUSH2 0x7F9 JUMPI DUP5 DUP5 SUB DUP10 MSTORE DUP2 MLOAD PUSH2 0x7DA DUP6 DUP3 PUSH2 0x779 JUMP JUMPDEST SWAP5 POP PUSH2 0x7E5 DUP4 PUSH2 0x78C JUMP JUMPDEST SWAP3 POP PUSH1 0x20 DUP11 ADD SWAP10 POP POP PUSH1 0x1 DUP2 ADD SWAP1 POP PUSH2 0x7C1 JUMP JUMPDEST POP DUP3 SWAP8 POP DUP8 SWAP6 POP POP POP POP POP POP SWAP3 SWAP2 POP POP JUMP JUMPDEST PUSH0 PUSH1 0x20 DUP3 ADD SWAP1 POP DUP2 DUP2 SUB PUSH0 DUP4 ADD MSTORE PUSH2 0x823 DUP2 DUP5 PUSH2 0x798 JUMP JUMPDEST SWAP1 POP SWAP3 SWAP2 POP POP JUMP JUMPDEST PUSH0 PUSH0 PUSH1 0x40 DUP4 DUP6 SUB SLT ISZERO PUSH2 0x841 JUMPI PUSH2 0x840 PUSH2 0x420 JUMP JUMPDEST JUMPDEST PUSH0 PUSH2 0x84E DUP6 DUP3 DUP7 ADD PUSH2 0x447 JUMP JUMPDEST SWAP3 POP POP PUSH1 0x20 DUP4 ADD CALLDATALOAD PUSH8 0xFFFFFFFFFFFFFFFF DUP2 GT ISZERO PUSH2 0x86F JUMPI PUSH2 0x86E PUSH2 0x424 JUMP JUMPDEST JUMPDEST PUSH2 0x87B DUP6 DUP3 DUP7 ADD PUSH2 0x64B JUMP JUMPDEST SWAP2 POP POP SWAP3 POP SWAP3 SWAP1 POP JUMP JUMPDEST PUSH32 0x4E487B7100000000000000000000000000000000000000000000000000000000 PUSH0 MSTORE PUSH1 0x22 PUSH1 0x4 MSTORE PUSH1 0x24 PUSH0 REVERT JUMPDEST PUSH0 PUSH1 0x2 DUP3 DIV SWAP1 POP PUSH1 0x1 DUP3 AND DUP1 PUSH2 0x8C9 JUMPI PUSH1 0x7F DUP3 AND SWAP2 POP JUMPDEST PUSH1 0x20 DUP3 LT DUP2 SUB PUSH2 0x8DC JUMPI PUSH2 0x8DB PUSH2 0x885 JUMP JUMPDEST JUMPDEST POP SWAP2 SWAP1 POP JUMP JUMPDEST PUSH0 DUP2 SWAP1 POP SWAP3 SWAP2 POP POP JUMP JUMPDEST PUSH0 PUSH2 0x8F6 DUP3 PUSH2 0x495 JUMP JUMPDEST PUSH2 0x900 DUP2 DUP6 PUSH2 0x8E2 JUMP JUMPDEST SWAP4 POP PUSH2 0x910 DUP2 DUP6 PUSH1 0x20 DUP7 ADD PUSH2 0x4AF JUMP JUMPDEST DUP1 DUP5 ADD SWAP2 POP POP SWAP3 SWAP2 POP POP JUMP JUMPDEST PUSH0 PUSH2 0x927 DUP3 DUP5 PUSH2 0x8EC JUMP JUMPDEST SWAP2 POP DUP2 SWAP1 POP SWAP3 SWAP2 POP POP JUMP JUMPDEST PUSH0 DUP2 SWAP1 POP DUP2 PUSH0 MSTORE PUSH1 0x20 PUSH0 KECCAK256 SWAP1 POP SWAP2 SWAP1 POP JUMP JUMPDEST PUSH0 PUSH1 0x20 PUSH1 0x1F DUP4 ADD DIV SWAP1 POP SWAP2 SWAP1 POP JUMP JUMPDEST PUSH0 DUP3 DUP3 SHL SWAP1 POP SWAP3 SWAP2 POP POP JUMP JUMPDEST PUSH0 PUSH1 0x8 DUP4 MUL PUSH2 0x98E PUSH32 0xFFFFFFFFFFFFFFFFFFFFFFFFFFFFFFFFFFFFFFFFFFFFFFFFFFFFFFFFFFFFFFFF DUP3 PUSH2 0x953 JUMP JUMPDEST PUSH2 0x998 DUP7 DUP4 PUSH2 0x953 JUMP JUMPDEST SWAP6 POP DUP1 NOT DUP5 AND SWAP4 POP DUP1 DUP7 AND DUP5 OR SWAP3 POP POP POP SWAP4 SWAP3 POP POP POP JUMP JUMPDEST PUSH0 DUP2 SWAP1 POP SWAP2 SWAP1 POP JUMP JUMPDEST PUSH0 PUSH2 0x9D3 PUSH2 0x9CE PUSH2 0x9C9 DUP5 PUSH2 0x428 JUMP JUMPDEST PUSH2 0x9B0 JUMP JUMPDEST PUSH2 0x428 JUMP JUMPDEST SWAP1 POP SWAP2 SWAP1 POP JUMP JUMPDEST PUSH0 DUP2 SWAP1 POP SWAP2 SWAP1 POP JUMP JUMPDEST PUSH2 0x9EC DUP4 PUSH2 0x9B9 JUMP JUMPDEST PUSH2 0xA00 PUSH2 0x9F8 DUP3 PUSH2 0x9DA JUMP JUMPDEST DUP5 DUP5 SLOAD PUSH2 0x95F JUMP JUMPDEST DUP3 SSTORE POP POP POP POP JUMP JUMPDEST PUSH0 PUSH0 SWAP1 POP SWAP1 JUMP JUMPDEST PUSH2 0xA17 PUSH2 0xA08 JUMP JUMPDEST PUSH2 0xA22 DUP2 DUP5 DUP5 PUSH2 0x9E3 JUMP JUMPDEST POP POP POP JUMP JUMPDEST JUMPDEST DUP2 DUP2 LT ISZERO PUSH2 0xA45 JUMPI PUSH2 0xA3A PUSH0 DUP3 PUSH2 0xA0F JUMP JUMPDEST PUSH1 0x1 DUP2 ADD SWAP1 POP PUSH2 0xA28 JUMP JUMPDEST POP POP JUMP JUMPDEST PUSH1 0x1F DUP3 GT ISZERO PUSH2 0xA8A JUMPI PUSH2 0xA5B DUP2 PUSH2 0x932 JUMP JUMPDEST PUSH2 0xA64 DUP5 PUSH2 0x944 JUMP JUMPDEST DUP2 ADD PUSH1 0x20 DUP6 LT ISZERO PUSH2 0xA73 JUMPI DUP2 SWAP1 POP JUMPDEST PUSH2 0xA87 PUSH2 0xA7F DUP6 PUSH2 0x944 JUMP JUMPDEST DUP4 ADD DUP3 PUSH2 0xA27 JUMP JUMPDEST POP POP JUMPDEST POP POP POP JUMP JUMPDEST PUSH0 DUP3 DUP3 SHR SWAP1 POP SWAP3 SWAP2 POP POP JUMP JUMPDEST PUSH0 PUSH2 0xAAA PUSH0 NOT DUP5 PUSH1 0x8 MUL PUSH2 0xA8F JUMP JUMPDEST NOT DUP1 DUP4 AND SWAP2 POP POP SWAP3 SWAP2 POP POP JUMP JUMPDEST PUSH0 PUSH2 0xAC2 DUP4 DUP4 PUSH2 0xA9B JUMP JUMPDEST SWAP2 POP DUP3 PUSH1 0x2 MUL DUP3 OR SWAP1 POP SWAP3 SWAP2 POP POP JUMP JUMPDEST PUSH2 0xADB DUP3 PUSH2 0x495 JUMP JUMPDEST PUSH8 0xFFFFFFFFFFFFFFFF DUP2 GT ISZERO PUSH2 0xAF4 JUMPI PUSH2 0xAF3 PUSH2 0x554 JUMP JUMPDEST JUMPDEST PUSH2 0xAFE DUP3 SLOAD PUSH2 0x8B2 JUMP JUMPDEST PUSH2 0xB09 DUP3 DUP3 DUP6 PUSH2 0xA49 JUMP JUMPDEST PUSH0 PUSH1 0x20 SWAP1 POP PUSH1 0x1F DUP4 GT PUSH1 0x1 DUP2 EQ PUSH2 0xB3A JUMPI PUSH0 DUP5 ISZERO PUSH2 0xB28 JUMPI DUP3 DUP8 ADD MLOAD SWAP1 POP JUMPDEST PUSH2 0xB32 DUP6 DUP3 PUSH2 0xAB7 JUMP JUMPDEST DUP7 SSTORE POP PUSH2 0xB99 JUMP JUMPDEST PUSH1 0x1F NOT DUP5 AND PUSH2 0xB48 DUP7 PUSH2 0x932 JUMP JUMPDEST PUSH0 JUMPDEST DUP3 DUP2 LT ISZERO PUSH2 0xB6F JUMPI DUP5 DUP10 ADD MLOAD DUP3 SSTORE PUSH1 0x1 DUP3 ADD SWAP2 POP PUSH1 0x20 DUP6 ADD SWAP5 POP PUSH1 0x20 DUP2 ADD SWAP1 POP PUSH2 0xB4A JUMP JUMPDEST DUP7 DUP4 LT ISZERO PUSH2 0xB8C JUMPI DUP5 DUP10 ADD MLOAD PUSH2 0xB88 PUSH1 0x1F DUP10 AND DUP3 PUSH2 0xA9B JUMP JUMPDEST DUP4 SSTORE POP JUMPDEST PUSH1 0x1 PUSH1 0x2 DUP9 MUL ADD DUP9 SSTORE POP POP POP JUMPDEST POP POP POP POP POP POP JUMP INVALID LOG2 PUSH5 0x6970667358 0x22 SLT KECCAK256 ORIGIN 0xF6 TLOAD SWAP2 SWAP7 PUSH0 DUP12 SWAP13 PUSH2 0x3EC2 CALLF 0xC1CD 0xEB 0xC6 0x28 0xDA 0xCB MULMOD 0x2F 0xD6 SWAP12 CODESIZE DUP13 0xF7 PUSH32 0x49DD22F37664736F6C634300081E003300000000000000000000000000000000 "
				},
				"gasEstimates": {
					"creation": {
						"codeDepositCost": "606200",
						"executionCost": "636",
						"totalCost": "606836"
					},
					"external": {
						"AddPeson(uint256,string)": "infinite",
						"GetAgeByName(string)": "infinite",
						"GetPeson()": "infinite",
						"get()": "2476",
						"nameToAge(string)": "infinite",
						"pesons(uint256)": "infinite",
						"store(uint256)": "22537"
					}
				},
				"methodIdentifiers": {
					"AddPeson(uint256,string)": "d44db066",
					"GetAgeByName(string)": "791fa7bd",
					"GetPeson()": "9fcaa715",
					"get()": "6d4ce63c",
					"nameToAge(string)": "90c3ee4d",
					"pesons(uint256)": "5a737480",
					"store(uint256)": "6057361d"
				}
			},
			"storageLayout": {
				"storage": [
					{
						"astId": 3,
						"contract": "example/simpleStorage.sol:SimpleStorage",
						"label": "num",
						"offset": 0,
						"slot": "0",
						"type": "t_uint256"
					},
					{
						"astId": 12,
						"contract": "example/simpleStorage.sol:SimpleStorage",
						"label": "pesons",
						"offset": 0,
						"slot": "1",
						"type": "t_array(t_struct(People)8_storage)dyn_storage"
					},
					{
						"astId": 16,
						"contract": "example/simpleStorage.sol:SimpleStorage",
						"label": "nameToAge",
						"offset": 0,
						"slot": "2",
						"type": "t_mapping(t_string_memory_ptr,t_uint256)"
					}
				],
				"types": {
					"t_array(t_struct(People)8_storage)dyn_storage": {
						"base": "t_struct(People)8_storage",
						"encoding": "dynamic_array",
						"label": "struct SimpleStorage.People[]",
						"numberOfBytes": "32"
					},
					"t_mapping(t_string_memory_ptr,t_uint256)": {
						"encoding": "mapping",
						"key": "t_string_memory_ptr",
						"label": "mapping(string => uint256)",
						"numberOfBytes": "32",
						"value": "t_uint256"
					},
					"t_string_memory_ptr": {
						"encoding": "bytes",
						"label": "string",
						"numberOfBytes": "32"
					},
					"t_string_storage": {
						"encoding": "bytes",
						"label": "string",
						"numberOfBytes": "32"
					},
					"t_struct(People)8_storage": {
						"encoding": "inplace",
						"label": "struct SimpleStorage.People",
						"members": [
							{
								"astId": 5,
								"contract": "example/simpleStorage.sol:SimpleStorage",
								"label": "age",
								"offset": 0,
								"slot": "0",
								"type": "t_uint256"
							},
							{
								"astId": 7,
								"contract": "example/simpleStorage.sol:SimpleStorage",
								"label": "name",
								"offset": 0,
								"slot": "1",
								"type": "t_string_storage"
							}
						],
						"numberOfBytes": "64"
					},
					"t_uint256": {
						"encoding": "inplace",
						"label": "uint256",
						"numberOfBytes": "32"
					}
				}
			},
			"userdoc": {
				"kind": "user",
				"methods": {},
				"version": 1
			}
		}
	}
}