{
	"example/variable.sol": {
		"Veriables": {
			"abi": [
				{
					"inputs": [],
					"stateMutability": "nonpayable",
					"type": "constructor"
				},
				{
					"inputs": [],
					"name": "MY_NUM",
					"outputs": [
						{
							"internalType": "uint256",
							"name": "",
							"type": "uint256"
						}
					],
					"stateMutability": "view",
					"type": "function"
				},
				{
					"inputs": [],
					"name": "MY_NUM2",
					"outputs": [
						{
							"internalType": "uint256",
							"name": "",
							"type": "uint256"
						}
					],
					"stateMutability": "view",
					"type": "function"
				},
				{
					"inputs": [],
					"name": "a",
					"outputs": [
						{
							"internalType": "uint8",
							"name": "",
							"type": "uint8"
						}
					],
					"stateMutability": "view",
					"type": "function"
				},
				{
					"inputs": [],
					"name": "b",
					"outputs": [
						{
							"internalType": "uint16",
							"name": "",
							"type": "uint16"
						}
					],
					"stateMutability": "view",
					"type": "function"
				},
				{
					"inputs": [],
					"name": "c",
					"outputs": [
						{
							"internalType": "int32",
							"name": "",
							"type": "int32"
						}
					],
					"stateMutability": "view",
					"type": "function"
				},
				{
					"inputs": [],
					"name": "dosomething",
					"outputs": [
						{
							"internalType": "uint256",
							"name": "",
							"type": "uint256"
						},
						{
							"internalType": "uint256",
							"name": "",
							"type": "uint256"
						},
						{
							"internalType": "address",
							"name": "",
							"type": "address"
						}
					],
					"stateMutability": "view",
					"type": "function"
				},
				{
					"inputs": [],
					"name": "getName",
					"outputs": [
						{
							"internalType": "uint256",
							"name": "",
							"type": "uint256"
						}
					],
					"stateMutability": "view",
					"type": "function"
				},
				{
					"inputs": [],
					"name": "text",
					"outputs": [
						{
							"internalType": "string",
							"name": "",
							"type": "string"
						}
					],
					"stateMutability": "view",
					"type": "function"
				}
			],
			"devdoc": {
				"kind": "dev",
				"methods": {},
				"version": 1
			},
			"evm": {
				"assembly": "    /* \"example/variable.sol\":73:1266  contract Veriables {... */\n  mstore(0x40, 0xa0)\n    /* \"example/variable.sol\":185:200  type(uint8).max */\n  0xff\n    /* \"example/variable.sol\":168:200  uint8 public a = type(uint8).max */\n  0x00\n  exp(0x0100, 0x00)\n  dup2\n  sload\n  dup2\n  0xff\n  mul\n  not\n  and\n  swap1\n  dup4\n  0xff\n  and\n  mul\n  or\n  swap1\n  sstore\n  pop\n    /* \"example/variable.sol\":225:241  type(uint16).max */\n  0xffff\n    /* \"example/variable.sol\":207:241  uint16 public b = type(uint16).max */\n  0x00\n  exp(0x0100, 0x01)\n  dup2\n  sload\n  dup2\n  0xffff\n  mul\n  not\n  and\n  swap1\n  dup4\n  0xffff\n  and\n  mul\n  or\n  swap1\n  sstore\n  pop\n    /* \"example/variable.sol\":265:280  type(int32).min */\n  0xffffffffffffffffffffffffffffffffffffffffffffffffffffffff80000000\n    /* \"example/variable.sol\":248:280  int32 public c = type(int32).min */\n  0x00\n  exp(0x0100, 0x03)\n  dup2\n  sload\n  dup2\n  0xffffffff\n  mul\n  not\n  and\n  swap1\n  dup4\n  0x03\n  signextend\n  0xffffffff\n  and\n  mul\n  or\n  swap1\n  sstore\n  pop\n    /* \"example/variable.sol\":477:511  string public text = \"hello world\" */\n  mload(0x40)\n  dup1\n  0x40\n  add\n  0x40\n  mstore\n  dup1\n  0x0b\n  dup2\n  mstore\n  0x20\n  add\n  0x68656c6c6f20776f726c64000000000000000000000000000000000000000000\n  dup2\n  mstore\n  pop\n  0x01\n  swap1\n  dup2\n  tag_1\n  swap2\n  swap1\n  tag_2\n  jump\t// in\ntag_1:\n  pop\n    /* \"example/variable.sol\":1120:1123  100 */\n  0x64\n    /* \"example/variable.sol\":1088:1123  uint public immutable MY_NUM2 = 100 */\n  0x80\n  swap1\n  dup2\n  mstore\n  pop\n    /* \"example/variable.sol\":1130:1177  constructor() {... */\n  callvalue\n  dup1\n  iszero\n  tag_3\n  jumpi\n  revert(0x00, 0x00)\ntag_3:\n  pop\n    /* \"example/variable.sol\":1165:1169  1000 */\n  0x03e8\n    /* \"example/variable.sol\":1155:1169  MY_NUM2 = 1000 */\n  0x80\n  dup2\n  dup2\n  mstore\n  pop\n  pop\n    /* \"example/variable.sol\":73:1266  contract Veriables {... */\n  jump(tag_6)\n    /* \"#utility.yul\":7:106   */\ntag_7:\n    /* \"#utility.yul\":59:65   */\n  0x00\n    /* \"#utility.yul\":93:98   */\n  dup2\n    /* \"#utility.yul\":87:99   */\n  mload\n    /* \"#utility.yul\":77:99   */\n  swap1\n  pop\n    /* \"#utility.yul\":7:106   */\n  swap2\n  swap1\n  pop\n  jump\t// out\n    /* \"#utility.yul\":112:292   */\ntag_8:\n    /* \"#utility.yul\":160:237   */\n  0x4e487b7100000000000000000000000000000000000000000000000000000000\n    /* \"#utility.yul\":157:158   */\n  0x00\n    /* \"#utility.yul\":150:238   */\n  mstore\n    /* \"#utility.yul\":257:261   */\n  0x41\n    /* \"#utility.yul\":254:255   */\n  0x04\n    /* \"#utility.yul\":247:262   */\n  mstore\n    /* \"#utility.yul\":281:285   */\n  0x24\n    /* \"#utility.yul\":278:279   */\n  0x00\n    /* \"#utility.yul\":271:286   */\n  revert\n    /* \"#utility.yul\":298:478   */\ntag_9:\n    /* \"#utility.yul\":346:423   */\n  0x4e487b7100000000000000000000000000000000000000000000000000000000\n    /* \"#utility.yul\":343:344   */\n  0x00\n    /* \"#utility.yul\":336:424   */\n  mstore\n    /* \"#utility.yul\":443:447   */\n  0x22\n    /* \"#utility.yul\":440:441   */\n  0x04\n    /* \"#utility.yul\":433:448   */\n  mstore\n    /* \"#utility.yul\":467:471   */\n  0x24\n    /* \"#utility.yul\":464:465   */\n  0x00\n    /* \"#utility.yul\":457:472   */\n  revert\n    /* \"#utility.yul\":484:804   */\ntag_10:\n    /* \"#utility.yul\":528:534   */\n  0x00\n    /* \"#utility.yul\":565:566   */\n  0x02\n    /* \"#utility.yul\":559:563   */\n  dup3\n    /* \"#utility.yul\":555:567   */\n  div\n    /* \"#utility.yul\":545:567   */\n  swap1\n  pop\n    /* \"#utility.yul\":612:613   */\n  0x01\n    /* \"#utility.yul\":606:610   */\n  dup3\n    /* \"#utility.yul\":602:614   */\n  and\n    /* \"#utility.yul\":633:651   */\n  dup1\n    /* \"#utility.yul\":623:704   */\n  tag_32\n  jumpi\n    /* \"#utility.yul\":689:693   */\n  0x7f\n    /* \"#utility.yul\":681:687   */\n  dup3\n    /* \"#utility.yul\":677:694   */\n  and\n    /* \"#utility.yul\":667:694   */\n  swap2\n  pop\n    /* \"#utility.yul\":623:704   */\ntag_32:\n    /* \"#utility.yul\":751:753   */\n  0x20\n    /* \"#utility.yul\":743:749   */\n  dup3\n    /* \"#utility.yul\":740:754   */\n  lt\n    /* \"#utility.yul\":720:738   */\n  dup2\n    /* \"#utility.yul\":717:755   */\n  sub\n    /* \"#utility.yul\":714:798   */\n  tag_33\n  jumpi\n    /* \"#utility.yul\":770:788   */\n  tag_34\n  tag_9\n  jump\t// in\ntag_34:\n    /* \"#utility.yul\":714:798   */\ntag_33:\n    /* \"#utility.yul\":535:804   */\n  pop\n    /* \"#utility.yul\":484:804   */\n  swap2\n  swap1\n  pop\n  jump\t// out\n    /* \"#utility.yul\":810:951   */\ntag_11:\n    /* \"#utility.yul\":859:863   */\n  0x00\n    /* \"#utility.yul\":882:885   */\n  dup2\n    /* \"#utility.yul\":874:885   */\n  swap1\n  pop\n    /* \"#utility.yul\":905:908   */\n  dup2\n    /* \"#utility.yul\":902:903   */\n  0x00\n    /* \"#utility.yul\":895:909   */\n  mstore\n    /* \"#utility.yul\":939:943   */\n  0x20\n    /* \"#utility.yul\":936:937   */\n  0x00\n    /* \"#utility.yul\":926:944   */\n  keccak256\n    /* \"#utility.yul\":918:944   */\n  swap1\n  pop\n    /* \"#utility.yul\":810:951   */\n  swap2\n  swap1\n  pop\n  jump\t// out\n    /* \"#utility.yul\":957:1050   */\ntag_12:\n    /* \"#utility.yul\":994:1000   */\n  0x00\n    /* \"#utility.yul\":1041:1043   */\n  0x20\n    /* \"#utility.yul\":1036:1038   */\n  0x1f\n    /* \"#utility.yul\":1029:1034   */\n  dup4\n    /* \"#utility.yul\":1025:1039   */\n  add\n    /* \"#utility.yul\":1021:1044   */\n  div\n    /* \"#utility.yul\":1011:1044   */\n  swap1\n  pop\n    /* \"#utility.yul\":957:1050   */\n  swap2\n  swap1\n  pop\n  jump\t// out\n    /* \"#utility.yul\":1056:1163   */\ntag_13:\n    /* \"#utility.yul\":1100:1108   */\n  0x00\n    /* \"#utility.yul\":1150:1155   */\n  dup3\n    /* \"#utility.yul\":1144:1148   */\n  dup3\n    /* \"#utility.yul\":1140:1156   */\n  shl\n    /* \"#utility.yul\":1119:1156   */\n  swap1\n  pop\n    /* \"#utility.yul\":1056:1163   */\n  swap3\n  swap2\n  pop\n  pop\n  jump\t// out\n    /* \"#utility.yul\":1169:1562   */\ntag_14:\n    /* \"#utility.yul\":1238:1244   */\n  0x00\n    /* \"#utility.yul\":1288:1289   */\n  0x08\n    /* \"#utility.yul\":1276:1286   */\n  dup4\n    /* \"#utility.yul\":1272:1290   */\n  mul\n    /* \"#utility.yul\":1311:1408   */\n  tag_39\n    /* \"#utility.yul\":1341:1407   */\n  0xffffffffffffffffffffffffffffffffffffffffffffffffffffffffffffffff\n    /* \"#utility.yul\":1330:1339   */\n  dup3\n    /* \"#utility.yul\":1311:1408   */\n  tag_13\n  jump\t// in\ntag_39:\n    /* \"#utility.yul\":1429:1468   */\n  tag_40\n    /* \"#utility.yul\":1459:1467   */\n  dup7\n    /* \"#utility.yul\":1448:1457   */\n  dup4\n    /* \"#utility.yul\":1429:1468   */\n  tag_13\n  jump\t// in\ntag_40:\n    /* \"#utility.yul\":1417:1468   */\n  swap6\n  pop\n    /* \"#utility.yul\":1501:1505   */\n  dup1\n    /* \"#utility.yul\":1497:1506   */\n  not\n    /* \"#utility.yul\":1490:1495   */\n  dup5\n    /* \"#utility.yul\":1486:1507   */\n  and\n    /* \"#utility.yul\":1477:1507   */\n  swap4\n  pop\n    /* \"#utility.yul\":1550:1554   */\n  dup1\n    /* \"#utility.yul\":1540:1548   */\n  dup7\n    /* \"#utility.yul\":1536:1555   */\n  and\n    /* \"#utility.yul\":1529:1534   */\n  dup5\n    /* \"#utility.yul\":1526:1556   */\n  or\n    /* \"#utility.yul\":1516:1556   */\n  swap3\n  pop\n    /* \"#utility.yul\":1245:1562   */\n  pop\n  pop\n    /* \"#utility.yul\":1169:1562   */\n  swap4\n  swap3\n  pop\n  pop\n  pop\n  jump\t// out\n    /* \"#utility.yul\":1568:1645   */\ntag_15:\n    /* \"#utility.yul\":1605:1612   */\n  0x00\n    /* \"#utility.yul\":1634:1639   */\n  dup2\n    /* \"#utility.yul\":1623:1639   */\n  swap1\n  pop\n    /* \"#utility.yul\":1568:1645   */\n  swap2\n  swap1\n  pop\n  jump\t// out\n    /* \"#utility.yul\":1651:1711   */\ntag_16:\n    /* \"#utility.yul\":1679:1682   */\n  0x00\n    /* \"#utility.yul\":1700:1705   */\n  dup2\n    /* \"#utility.yul\":1693:1705   */\n  swap1\n  pop\n    /* \"#utility.yul\":1651:1711   */\n  swap2\n  swap1\n  pop\n  jump\t// out\n    /* \"#utility.yul\":1717:1859   */\ntag_17:\n    /* \"#utility.yul\":1767:1776   */\n  0x00\n    /* \"#utility.yul\":1800:1853   */\n  tag_44\n    /* \"#utility.yul\":1818:1852   */\n  tag_45\n    /* \"#utility.yul\":1827:1851   */\n  tag_46\n    /* \"#utility.yul\":1845:1850   */\n  dup5\n    /* \"#utility.yul\":1827:1851   */\n  tag_15\n  jump\t// in\ntag_46:\n    /* \"#utility.yul\":1818:1852   */\n  tag_16\n  jump\t// in\ntag_45:\n    /* \"#utility.yul\":1800:1853   */\n  tag_15\n  jump\t// in\ntag_44:\n    /* \"#utility.yul\":1787:1853   */\n  swap1\n  pop\n    /* \"#utility.yul\":1717:1859   */\n  swap2\n  swap1\n  pop\n  jump\t// out\n    /* \"#utility.yul\":1865:1940   */\ntag_18:\n    /* \"#utility.yul\":1908:1911   */\n  0x00\n    /* \"#utility.yul\":1929:1934   */\n  dup2\n    /* \"#utility.yul\":1922:1934   */\n  swap1\n  pop\n    /* \"#utility.yul\":1865:1940   */\n  swap2\n  swap1\n  pop\n  jump\t// out\n    /* \"#utility.yul\":1946:2215   */\ntag_19:\n    /* \"#utility.yul\":2056:2095   */\n  tag_49\n    /* \"#utility.yul\":2087:2094   */\n  dup4\n    /* \"#utility.yul\":2056:2095   */\n  tag_17\n  jump\t// in\ntag_49:\n    /* \"#utility.yul\":2117:2208   */\n  tag_50\n    /* \"#utility.yul\":2166:2207   */\n  tag_51\n    /* \"#utility.yul\":2190:2206   */\n  dup3\n    /* \"#utility.yul\":2166:2207   */\n  tag_18\n  jump\t// in\ntag_51:\n    /* \"#utility.yul\":2158:2164   */\n  dup5\n    /* \"#utility.yul\":2151:2155   */\n  dup5\n    /* \"#utility.yul\":2145:2156   */\n  sload\n    /* \"#utility.yul\":2117:2208   */\n  tag_14\n  jump\t// in\ntag_50:\n    /* \"#utility.yul\":2111:2115   */\n  dup3\n    /* \"#utility.yul\":2104:2209   */\n  sstore\n    /* \"#utility.yul\":2022:2215   */\n  pop\n    /* \"#utility.yul\":1946:2215   */\n  pop\n  pop\n  pop\n  jump\t// out\n    /* \"#utility.yul\":2221:2294   */\ntag_20:\n    /* \"#utility.yul\":2266:2269   */\n  0x00\n    /* \"#utility.yul\":2287:2288   */\n  0x00\n    /* \"#utility.yul\":2280:2288   */\n  swap1\n  pop\n    /* \"#utility.yul\":2221:2294   */\n  swap1\n  jump\t// out\n    /* \"#utility.yul\":2300:2489   */\ntag_21:\n    /* \"#utility.yul\":2377:2409   */\n  tag_54\n  tag_20\n  jump\t// in\ntag_54:\n    /* \"#utility.yul\":2418:2483   */\n  tag_55\n    /* \"#utility.yul\":2476:2482   */\n  dup2\n    /* \"#utility.yul\":2468:2474   */\n  dup5\n    /* \"#utility.yul\":2462:2466   */\n  dup5\n    /* \"#utility.yul\":2418:2483   */\n  tag_19\n  jump\t// in\ntag_55:\n    /* \"#utility.yul\":2353:2489   */\n  pop\n    /* \"#utility.yul\":2300:2489   */\n  pop\n  pop\n  jump\t// out\n    /* \"#utility.yul\":2495:2681   */\ntag_22:\n    /* \"#utility.yul\":2555:2675   */\ntag_57:\n    /* \"#utility.yul\":2572:2575   */\n  dup2\n    /* \"#utility.yul\":2565:2570   */\n  dup2\n    /* \"#utility.yul\":2562:2576   */\n  lt\n    /* \"#utility.yul\":2555:2675   */\n  iszero\n  tag_59\n  jumpi\n    /* \"#utility.yul\":2626:2665   */\n  tag_60\n    /* \"#utility.yul\":2663:2664   */\n  0x00\n    /* \"#utility.yul\":2656:2661   */\n  dup3\n    /* \"#utility.yul\":2626:2665   */\n  tag_21\n  jump\t// in\ntag_60:\n    /* \"#utility.yul\":2599:2600   */\n  0x01\n    /* \"#utility.yul\":2592:2597   */\n  dup2\n    /* \"#utility.yul\":2588:2601   */\n  add\n    /* \"#utility.yul\":2579:2601   */\n  swap1\n  pop\n    /* \"#utility.yul\":2555:2675   */\n  jump(tag_57)\ntag_59:\n    /* \"#utility.yul\":2495:2681   */\n  pop\n  pop\n  jump\t// out\n    /* \"#utility.yul\":2687:3230   */\ntag_23:\n    /* \"#utility.yul\":2788:2790   */\n  0x1f\n    /* \"#utility.yul\":2783:2786   */\n  dup3\n    /* \"#utility.yul\":2780:2791   */\n  gt\n    /* \"#utility.yul\":2777:3223   */\n  iszero\n  tag_62\n  jumpi\n    /* \"#utility.yul\":2822:2860   */\n  tag_63\n    /* \"#utility.yul\":2854:2859   */\n  dup2\n    /* \"#utility.yul\":2822:2860   */\n  tag_11\n  jump\t// in\ntag_63:\n    /* \"#utility.yul\":2906:2935   */\n  tag_64\n    /* \"#utility.yul\":2924:2934   */\n  dup5\n    /* \"#utility.yul\":2906:2935   */\n  tag_12\n  jump\t// in\ntag_64:\n    /* \"#utility.yul\":2896:2904   */\n  dup2\n    /* \"#utility.yul\":2892:2936   */\n  add\n    /* \"#utility.yul\":3089:3091   */\n  0x20\n    /* \"#utility.yul\":3077:3087   */\n  dup6\n    /* \"#utility.yul\":3074:3092   */\n  lt\n    /* \"#utility.yul\":3071:3120   */\n  iszero\n  tag_65\n  jumpi\n    /* \"#utility.yul\":3110:3118   */\n  dup2\n    /* \"#utility.yul\":3095:3118   */\n  swap1\n  pop\n    /* \"#utility.yul\":3071:3120   */\ntag_65:\n    /* \"#utility.yul\":3133:3213   */\n  tag_66\n    /* \"#utility.yul\":3189:3211   */\n  tag_67\n    /* \"#utility.yul\":3207:3210   */\n  dup6\n    /* \"#utility.yul\":3189:3211   */\n  tag_12\n  jump\t// in\ntag_67:\n    /* \"#utility.yul\":3179:3187   */\n  dup4\n    /* \"#utility.yul\":3175:3212   */\n  add\n    /* \"#utility.yul\":3162:3173   */\n  dup3\n    /* \"#utility.yul\":3133:3213   */\n  tag_22\n  jump\t// in\ntag_66:\n    /* \"#utility.yul\":2792:3223   */\n  pop\n  pop\n    /* \"#utility.yul\":2777:3223   */\ntag_62:\n    /* \"#utility.yul\":2687:3230   */\n  pop\n  pop\n  pop\n  jump\t// out\n    /* \"#utility.yul\":3236:3353   */\ntag_24:\n    /* \"#utility.yul\":3290:3298   */\n  0x00\n    /* \"#utility.yul\":3340:3345   */\n  dup3\n    /* \"#utility.yul\":3334:3338   */\n  dup3\n    /* \"#utility.yul\":3330:3346   */\n  shr\n    /* \"#utility.yul\":3309:3346   */\n  swap1\n  pop\n    /* \"#utility.yul\":3236:3353   */\n  swap3\n  swap2\n  pop\n  pop\n  jump\t// out\n    /* \"#utility.yul\":3359:3528   */\ntag_25:\n    /* \"#utility.yul\":3403:3409   */\n  0x00\n    /* \"#utility.yul\":3436:3487   */\n  tag_70\n    /* \"#utility.yul\":3484:3485   */\n  0x00\n    /* \"#utility.yul\":3480:3486   */\n  not\n    /* \"#utility.yul\":3472:3477   */\n  dup5\n    /* \"#utility.yul\":3469:3470   */\n  0x08\n    /* \"#utility.yul\":3465:3478   */\n  mul\n    /* \"#utility.yul\":3436:3487   */\n  tag_24\n  jump\t// in\ntag_70:\n    /* \"#utility.yul\":3432:3488   */\n  not\n    /* \"#utility.yul\":3517:3521   */\n  dup1\n    /* \"#utility.yul\":3511:3515   */\n  dup4\n    /* \"#utility.yul\":3507:3522   */\n  and\n    /* \"#utility.yul\":3497:3522   */\n  swap2\n  pop\n    /* \"#utility.yul\":3410:3528   */\n  pop\n    /* \"#utility.yul\":3359:3528   */\n  swap3\n  swap2\n  pop\n  pop\n  jump\t// out\n    /* \"#utility.yul\":3533:3828   */\ntag_26:\n    /* \"#utility.yul\":3609:3613   */\n  0x00\n    /* \"#utility.yul\":3755:3784   */\n  tag_72\n    /* \"#utility.yul\":3780:3783   */\n  dup4\n    /* \"#utility.yul\":3774:3778   */\n  dup4\n    /* \"#utility.yul\":3755:3784   */\n  tag_25\n  jump\t// in\ntag_72:\n    /* \"#utility.yul\":3747:3784   */\n  swap2\n  pop\n    /* \"#utility.yul\":3817:3820   */\n  dup3\n    /* \"#utility.yul\":3814:3815   */\n  0x02\n    /* \"#utility.yul\":3810:3821   */\n  mul\n    /* \"#utility.yul\":3804:3808   */\n  dup3\n    /* \"#utility.yul\":3801:3822   */\n  or\n    /* \"#utility.yul\":3793:3822   */\n  swap1\n  pop\n    /* \"#utility.yul\":3533:3828   */\n  swap3\n  swap2\n  pop\n  pop\n  jump\t// out\n    /* \"#utility.yul\":3833:5228   */\ntag_2:\n    /* \"#utility.yul\":3950:3987   */\n  tag_74\n    /* \"#utility.yul\":3983:3986   */\n  dup3\n    /* \"#utility.yul\":3950:3987   */\n  tag_7\n  jump\t// in\ntag_74:\n    /* \"#utility.yul\":4052:4070   */\n  0xffffffffffffffff\n    /* \"#utility.yul\":4044:4050   */\n  dup2\n    /* \"#utility.yul\":4041:4071   */\n  gt\n    /* \"#utility.yul\":4038:4094   */\n  iszero\n  tag_75\n  jumpi\n    /* \"#utility.yul\":4074:4092   */\n  tag_76\n  tag_8\n  jump\t// in\ntag_76:\n    /* \"#utility.yul\":4038:4094   */\ntag_75:\n    /* \"#utility.yul\":4118:4156   */\n  tag_77\n    /* \"#utility.yul\":4150:4154   */\n  dup3\n    /* \"#utility.yul\":4144:4155   */\n  sload\n    /* \"#utility.yul\":4118:4156   */\n  tag_10\n  jump\t// in\ntag_77:\n    /* \"#utility.yul\":4203:4270   */\n  tag_78\n    /* \"#utility.yul\":4263:4269   */\n  dup3\n    /* \"#utility.yul\":4255:4261   */\n  dup3\n    /* \"#utility.yul\":4249:4253   */\n  dup6\n    /* \"#utility.yul\":4203:4270   */\n  tag_23\n  jump\t// in\ntag_78:\n    /* \"#utility.yul\":4297:4298   */\n  0x00\n    /* \"#utility.yul\":4321:4325   */\n  0x20\n    /* \"#utility.yul\":4308:4325   */\n  swap1\n  pop\n    /* \"#utility.yul\":4353:4355   */\n  0x1f\n    /* \"#utility.yul\":4345:4351   */\n  dup4\n    /* \"#utility.yul\":4342:4356   */\n  gt\n    /* \"#utility.yul\":4370:4371   */\n  0x01\n    /* \"#utility.yul\":4365:4983   */\n  dup2\n  eq\n  tag_80\n  jumpi\n    /* \"#utility.yul\":5027:5028   */\n  0x00\n    /* \"#utility.yul\":5044:5050   */\n  dup5\n    /* \"#utility.yul\":5041:5118   */\n  iszero\n  tag_81\n  jumpi\n    /* \"#utility.yul\":5093:5102   */\n  dup3\n    /* \"#utility.yul\":5088:5091   */\n  dup8\n    /* \"#utility.yul\":5084:5103   */\n  add\n    /* \"#utility.yul\":5078:5104   */\n  mload\n    /* \"#utility.yul\":5069:5104   */\n  swap1\n  pop\n    /* \"#utility.yul\":5041:5118   */\ntag_81:\n    /* \"#utility.yul\":5144:5211   */\n  tag_82\n    /* \"#utility.yul\":5204:5210   */\n  dup6\n    /* \"#utility.yul\":5197:5202   */\n  dup3\n    /* \"#utility.yul\":5144:5211   */\n  tag_26\n  jump\t// in\ntag_82:\n    /* \"#utility.yul\":5138:5142   */\n  dup7\n    /* \"#utility.yul\":5131:5212   */\n  sstore\n    /* \"#utility.yul\":5000:5222   */\n  pop\n    /* \"#utility.yul\":4335:5222   */\n  jump(tag_79)\n    /* \"#utility.yul\":4365:4983   */\ntag_80:\n    /* \"#utility.yul\":4417:4421   */\n  0x1f\n    /* \"#utility.yul\":4413:4422   */\n  not\n    /* \"#utility.yul\":4405:4411   */\n  dup5\n    /* \"#utility.yul\":4401:4423   */\n  and\n    /* \"#utility.yul\":4451:4488   */\n  tag_83\n    /* \"#utility.yul\":4483:4487   */\n  dup7\n    /* \"#utility.yul\":4451:4488   */\n  tag_11\n  jump\t// in\ntag_83:\n    /* \"#utility.yul\":4510:4511   */\n  0x00\n    /* \"#utility.yul\":4524:4732   */\ntag_84:\n    /* \"#utility.yul\":4538:4545   */\n  dup3\n    /* \"#utility.yul\":4535:4536   */\n  dup2\n    /* \"#utility.yul\":4532:4546   */\n  lt\n    /* \"#utility.yul\":4524:4732   */\n  iszero\n  tag_86\n  jumpi\n    /* \"#utility.yul\":4617:4626   */\n  dup5\n    /* \"#utility.yul\":4612:4615   */\n  dup10\n    /* \"#utility.yul\":4608:4627   */\n  add\n    /* \"#utility.yul\":4602:4628   */\n  mload\n    /* \"#utility.yul\":4594:4600   */\n  dup3\n    /* \"#utility.yul\":4587:4629   */\n  sstore\n    /* \"#utility.yul\":4668:4669   */\n  0x01\n    /* \"#utility.yul\":4660:4666   */\n  dup3\n    /* \"#utility.yul\":4656:4670   */\n  add\n    /* \"#utility.yul\":4646:4670   */\n  swap2\n  pop\n    /* \"#utility.yul\":4715:4717   */\n  0x20\n    /* \"#utility.yul\":4704:4713   */\n  dup6\n    /* \"#utility.yul\":4700:4718   */\n  add\n    /* \"#utility.yul\":4687:4718   */\n  swap5\n  pop\n    /* \"#utility.yul\":4561:4565   */\n  0x20\n    /* \"#utility.yul\":4558:4559   */\n  dup2\n    /* \"#utility.yul\":4554:4566   */\n  add\n    /* \"#utility.yul\":4549:4566   */\n  swap1\n  pop\n    /* \"#utility.yul\":4524:4732   */\n  jump(tag_84)\ntag_86:\n    /* \"#utility.yul\":4760:4766   */\n  dup7\n    /* \"#utility.yul\":4751:4758   */\n  dup4\n    /* \"#utility.yul\":4748:4767   */\n  lt\n    /* \"#utility.yul\":4745:4924   */\n  iszero\n  tag_87\n  jumpi\n    /* \"#utility.yul\":4818:4827   */\n  dup5\n    /* \"#utility.yul\":4813:4816   */\n  dup10\n    /* \"#utility.yul\":4809:4828   */\n  add\n    /* \"#utility.yul\":4803:4829   */\n  mload\n    /* \"#utility.yul\":4861:4909   */\n  tag_88\n    /* \"#utility.yul\":4903:4907   */\n  0x1f\n    /* \"#utility.yul\":4895:4901   */\n  dup10\n    /* \"#utility.yul\":4891:4908   */\n  and\n    /* \"#utility.yul\":4880:4889   */\n  dup3\n    /* \"#utility.yul\":4861:4909   */\n  tag_25\n  jump\t// in\ntag_88:\n    /* \"#utility.yul\":4853:4859   */\n  dup4\n    /* \"#utility.yul\":4846:4910   */\n  sstore\n    /* \"#utility.yul\":4768:4924   */\n  pop\n    /* \"#utility.yul\":4745:4924   */\ntag_87:\n    /* \"#utility.yul\":4970:4971   */\n  0x01\n    /* \"#utility.yul\":4966:4967   */\n  0x02\n    /* \"#utility.yul\":4958:4964   */\n  dup9\n    /* \"#utility.yul\":4954:4968   */\n  mul\n    /* \"#utility.yul\":4950:4972   */\n  add\n    /* \"#utility.yul\":4944:4948   */\n  dup9\n    /* \"#utility.yul\":4937:4973   */\n  sstore\n    /* \"#utility.yul\":4372:4983   */\n  pop\n  pop\n  pop\n    /* \"#utility.yul\":4335:5222   */\ntag_79:\n  pop\n    /* \"#utility.yul\":3925:5228   */\n  pop\n  pop\n  pop\n    /* \"#utility.yul\":3833:5228   */\n  pop\n  pop\n  jump\t// out\n    /* \"example/variable.sol\":73:1266  contract Veriables {... */\ntag_6:\n  mload(0x80)\n  codecopy(0x00, dataOffset(sub_0), dataSize(sub_0))\n  0x00\n  assignImmutable(\"0x7446b42d7fe1689ec32fc1ca65129d9f21f1979742315d34500a6886f6986bea\")\n  return(0x00, dataSize(sub_0))\nstop\n\nsub_0: assembly {\n        /* \"example/variable.sol\":73:1266  contract Veriables {... */\n      mstore(0x40, 0x80)\n      callvalue\n      dup1\n      iszero\n      tag_1\n      jumpi\n      revert(0x00, 0x00)\n    tag_1:\n      pop\n      jumpi(tag_2, lt(calldatasize, 0x04))\n      shr(0xe0, calldataload(0x00))\n      dup1\n      0x4df7e3d0\n      gt\n      tag_11\n      jumpi\n      dup1\n      0x4df7e3d0\n      eq\n      tag_7\n      jumpi\n      dup1\n      0xbd03ed04\n      eq\n      tag_8\n      jumpi\n      dup1\n      0xc3da42b8\n      eq\n      tag_9\n      jumpi\n      dup1\n      0xdc0a1231\n      eq\n      tag_10\n      jumpi\n      jump(tag_2)\n    tag_11:\n      dup1\n      0x0dbe671f\n      eq\n      tag_3\n      jumpi\n      dup1\n      0x17d7de7c\n      eq\n      tag_4\n      jumpi\n      dup1\n      0x1f1bd692\n      eq\n      tag_5\n      jumpi\n      dup1\n      0x229c7a49\n      eq\n      tag_6\n      jumpi\n    tag_2:\n      revert(0x00, 0x00)\n        /* \"example/variable.sol\":168:200  uint8 public a = type(uint8).max */\n    tag_3:\n      tag_12\n      tag_13\n      jump\t// in\n    tag_12:\n      mload(0x40)\n      tag_14\n      swap2\n      swap1\n      tag_15\n      jump\t// in\n    tag_14:\n      mload(0x40)\n      dup1\n      swap2\n      sub\n      swap1\n      return\n        /* \"example/variable.sol\":1183:1260  function getName() public view returns(uint){... */\n    tag_4:\n      tag_16\n      tag_17\n      jump\t// in\n    tag_16:\n      mload(0x40)\n      tag_18\n      swap2\n      swap1\n      tag_19\n      jump\t// in\n    tag_18:\n      mload(0x40)\n      dup1\n      swap2\n      sub\n      swap1\n      return\n        /* \"example/variable.sol\":477:511  string public text = \"hello world\" */\n    tag_5:\n      tag_20\n      tag_21\n      jump\t// in\n    tag_20:\n      mload(0x40)\n      tag_22\n      swap2\n      swap1\n      tag_23\n      jump\t// in\n    tag_22:\n      mload(0x40)\n      dup1\n      swap2\n      sub\n      swap1\n      return\n        /* \"example/variable.sol\":1088:1123  uint public immutable MY_NUM2 = 100 */\n    tag_6:\n      tag_24\n      tag_25\n      jump\t// in\n    tag_24:\n      mload(0x40)\n      tag_26\n      swap2\n      swap1\n      tag_19\n      jump\t// in\n    tag_26:\n      mload(0x40)\n      dup1\n      swap2\n      sub\n      swap1\n      return\n        /* \"example/variable.sol\":207:241  uint16 public b = type(uint16).max */\n    tag_7:\n      tag_27\n      tag_28\n      jump\t// in\n    tag_27:\n      mload(0x40)\n      tag_29\n      swap2\n      swap1\n      tag_30\n      jump\t// in\n    tag_29:\n      mload(0x40)\n      dup1\n      swap2\n      sub\n      swap1\n      return\n        /* \"example/variable.sol\":930:962  uint public constant MY_NUM = 10 */\n    tag_8:\n      tag_31\n      tag_32\n      jump\t// in\n    tag_31:\n      mload(0x40)\n      tag_33\n      swap2\n      swap1\n      tag_19\n      jump\t// in\n    tag_33:\n      mload(0x40)\n      dup1\n      swap2\n      sub\n      swap1\n      return\n        /* \"example/variable.sol\":248:280  int32 public c = type(int32).min */\n    tag_9:\n      tag_34\n      tag_35\n      jump\t// in\n    tag_34:\n      mload(0x40)\n      tag_36\n      swap2\n      swap1\n      tag_37\n      jump\t// in\n    tag_36:\n      mload(0x40)\n      dup1\n      swap2\n      sub\n      swap1\n      return\n        /* \"example/variable.sol\":571:845  function dosomething() public view returns(uint, uint,address) {... */\n    tag_10:\n      tag_38\n      tag_39\n      jump\t// in\n    tag_38:\n      mload(0x40)\n      tag_40\n      swap4\n      swap3\n      swap2\n      swap1\n      tag_41\n      jump\t// in\n    tag_40:\n      mload(0x40)\n      dup1\n      swap2\n      sub\n      swap1\n      return\n        /* \"example/variable.sol\":168:200  uint8 public a = type(uint8).max */\n    tag_13:\n      0x00\n      0x00\n      swap1\n      sload\n      swap1\n      0x0100\n      exp\n      swap1\n      div\n      0xff\n      and\n      dup2\n      jump\t// out\n        /* \"example/variable.sol\":1183:1260  function getName() public view returns(uint){... */\n    tag_17:\n        /* \"example/variable.sol\":1222:1226  uint */\n      0x00\n        /* \"example/variable.sol\":1245:1252  MY_NUM2 */\n      immutable(\"0x7446b42d7fe1689ec32fc1ca65129d9f21f1979742315d34500a6886f6986bea\")\n        /* \"example/variable.sol\":1238:1252  return MY_NUM2 */\n      swap1\n      pop\n        /* \"example/variable.sol\":1183:1260  function getName() public view returns(uint){... */\n      swap1\n      jump\t// out\n        /* \"example/variable.sol\":477:511  string public text = \"hello world\" */\n    tag_21:\n      0x01\n      dup1\n      sload\n      tag_43\n      swap1\n      tag_44\n      jump\t// in\n    tag_43:\n      dup1\n      0x1f\n      add\n      0x20\n      dup1\n      swap2\n      div\n      mul\n      0x20\n      add\n      mload(0x40)\n      swap1\n      dup2\n      add\n      0x40\n      mstore\n      dup1\n      swap3\n      swap2\n      swap1\n      dup2\n      dup2\n      mstore\n      0x20\n      add\n      dup3\n      dup1\n      sload\n      tag_45\n      swap1\n      tag_44\n      jump\t// in\n    tag_45:\n      dup1\n      iszero\n      tag_46\n      jumpi\n      dup1\n      0x1f\n      lt\n      tag_47\n      jumpi\n      0x0100\n      dup1\n      dup4\n      sload\n      div\n      mul\n      dup4\n      mstore\n      swap2\n      0x20\n      add\n      swap2\n      jump(tag_46)\n    tag_47:\n      dup3\n      add\n      swap2\n      swap1\n      0x00\n      mstore\n      keccak256(0x00, 0x20)\n      swap1\n    tag_48:\n      dup2\n      sload\n      dup2\n      mstore\n      swap1\n      0x01\n      add\n      swap1\n      0x20\n      add\n      dup1\n      dup4\n      gt\n      tag_48\n      jumpi\n      dup3\n      swap1\n      sub\n      0x1f\n      and\n      dup3\n      add\n      swap2\n    tag_46:\n      pop\n      pop\n      pop\n      pop\n      pop\n      dup2\n      jump\t// out\n        /* \"example/variable.sol\":1088:1123  uint public immutable MY_NUM2 = 100 */\n    tag_25:\n      immutable(\"0x7446b42d7fe1689ec32fc1ca65129d9f21f1979742315d34500a6886f6986bea\")\n      dup2\n      jump\t// out\n        /* \"example/variable.sol\":207:241  uint16 public b = type(uint16).max */\n    tag_28:\n      0x00\n      0x01\n      swap1\n      sload\n      swap1\n      0x0100\n      exp\n      swap1\n      div\n      0xffff\n      and\n      dup2\n      jump\t// out\n        /* \"example/variable.sol\":930:962  uint public constant MY_NUM = 10 */\n    tag_32:\n        /* \"example/variable.sol\":960:962  10 */\n      0x0a\n        /* \"example/variable.sol\":930:962  uint public constant MY_NUM = 10 */\n      dup2\n      jump\t// out\n        /* \"example/variable.sol\":248:280  int32 public c = type(int32).min */\n    tag_35:\n      0x00\n      0x03\n      swap1\n      sload\n      swap1\n      0x0100\n      exp\n      swap1\n      div\n      0x03\n      signextend\n      dup2\n      jump\t// out\n        /* \"example/variable.sol\":571:845  function dosomething() public view returns(uint, uint,address) {... */\n    tag_39:\n        /* \"example/variable.sol\":614:618  uint */\n      0x00\n        /* \"example/variable.sol\":620:624  uint */\n      0x00\n        /* \"example/variable.sol\":625:632  address */\n      0x00\n        /* \"example/variable.sol\":645:656  uint number */\n      0x00\n        /* \"example/variable.sol\":659:661  10 */\n      0x0a\n        /* \"example/variable.sol\":645:661  uint number = 10 */\n      swap1\n      pop\n        /* \"example/variable.sol\":698:706  uint now */\n      0x00\n        /* \"example/variable.sol\":709:724  block.timestamp */\n      timestamp\n        /* \"example/variable.sol\":698:724  uint now = block.timestamp */\n      swap1\n      pop\n        /* \"example/variable.sol\":756:768  address addr */\n      0x00\n        /* \"example/variable.sol\":771:781  msg.sender */\n      caller\n        /* \"example/variable.sol\":756:781  address addr = msg.sender */\n      swap1\n      pop\n        /* \"example/variable.sol\":818:824  number */\n      dup3\n        /* \"example/variable.sol\":826:829  now */\n      dup3\n        /* \"example/variable.sol\":832:836  addr */\n      dup3\n        /* \"example/variable.sol\":810:837  return (number, now,  addr) */\n      swap6\n      pop\n      swap6\n      pop\n      swap6\n      pop\n      pop\n      pop\n      pop\n        /* \"example/variable.sol\":571:845  function dosomething() public view returns(uint, uint,address) {... */\n      swap1\n      swap2\n      swap3\n      jump\t// out\n        /* \"#utility.yul\":7:93   */\n    tag_50:\n        /* \"#utility.yul\":42:49   */\n      0x00\n        /* \"#utility.yul\":82:86   */\n      0xff\n        /* \"#utility.yul\":75:80   */\n      dup3\n        /* \"#utility.yul\":71:87   */\n      and\n        /* \"#utility.yul\":60:87   */\n      swap1\n      pop\n        /* \"#utility.yul\":7:93   */\n      swap2\n      swap1\n      pop\n      jump\t// out\n        /* \"#utility.yul\":99:211   */\n    tag_51:\n        /* \"#utility.yul\":182:204   */\n      tag_70\n        /* \"#utility.yul\":198:203   */\n      dup2\n        /* \"#utility.yul\":182:204   */\n      tag_50\n      jump\t// in\n    tag_70:\n        /* \"#utility.yul\":177:180   */\n      dup3\n        /* \"#utility.yul\":170:205   */\n      mstore\n        /* \"#utility.yul\":99:211   */\n      pop\n      pop\n      jump\t// out\n        /* \"#utility.yul\":217:431   */\n    tag_15:\n        /* \"#utility.yul\":306:310   */\n      0x00\n        /* \"#utility.yul\":344:346   */\n      0x20\n        /* \"#utility.yul\":333:342   */\n      dup3\n        /* \"#utility.yul\":329:347   */\n      add\n        /* \"#utility.yul\":321:347   */\n      swap1\n      pop\n        /* \"#utility.yul\":357:424   */\n      tag_72\n        /* \"#utility.yul\":421:422   */\n      0x00\n        /* \"#utility.yul\":410:419   */\n      dup4\n        /* \"#utility.yul\":406:423   */\n      add\n        /* \"#utility.yul\":397:403   */\n      dup5\n        /* \"#utility.yul\":357:424   */\n      tag_51\n      jump\t// in\n    tag_72:\n        /* \"#utility.yul\":217:431   */\n      swap3\n      swap2\n      pop\n      pop\n      jump\t// out\n        /* \"#utility.yul\":437:514   */\n    tag_52:\n        /* \"#utility.yul\":474:481   */\n      0x00\n        /* \"#utility.yul\":503:508   */\n      dup2\n        /* \"#utility.yul\":492:508   */\n      swap1\n      pop\n        /* \"#utility.yul\":437:514   */\n      swap2\n      swap1\n      pop\n      jump\t// out\n        /* \"#utility.yul\":520:638   */\n    tag_53:\n        /* \"#utility.yul\":607:631   */\n      tag_75\n        /* \"#utility.yul\":625:630   */\n      dup2\n        /* \"#utility.yul\":607:631   */\n      tag_52\n      jump\t// in\n    tag_75:\n        /* \"#utility.yul\":602:605   */\n      dup3\n        /* \"#utility.yul\":595:632   */\n      mstore\n        /* \"#utility.yul\":520:638   */\n      pop\n      pop\n      jump\t// out\n        /* \"#utility.yul\":644:866   */\n    tag_19:\n        /* \"#utility.yul\":737:741   */\n      0x00\n        /* \"#utility.yul\":775:777   */\n      0x20\n        /* \"#utility.yul\":764:773   */\n      dup3\n        /* \"#utility.yul\":760:778   */\n      add\n        /* \"#utility.yul\":752:778   */\n      swap1\n      pop\n        /* \"#utility.yul\":788:859   */\n      tag_77\n        /* \"#utility.yul\":856:857   */\n      0x00\n        /* \"#utility.yul\":845:854   */\n      dup4\n        /* \"#utility.yul\":841:858   */\n      add\n        /* \"#utility.yul\":832:838   */\n      dup5\n        /* \"#utility.yul\":788:859   */\n      tag_53\n      jump\t// in\n    tag_77:\n        /* \"#utility.yul\":644:866   */\n      swap3\n      swap2\n      pop\n      pop\n      jump\t// out\n        /* \"#utility.yul\":872:971   */\n    tag_54:\n        /* \"#utility.yul\":924:930   */\n      0x00\n        /* \"#utility.yul\":958:963   */\n      dup2\n        /* \"#utility.yul\":952:964   */\n      mload\n        /* \"#utility.yul\":942:964   */\n      swap1\n      pop\n        /* \"#utility.yul\":872:971   */\n      swap2\n      swap1\n      pop\n      jump\t// out\n        /* \"#utility.yul\":977:1146   */\n    tag_55:\n        /* \"#utility.yul\":1061:1072   */\n      0x00\n        /* \"#utility.yul\":1095:1101   */\n      dup3\n        /* \"#utility.yul\":1090:1093   */\n      dup3\n        /* \"#utility.yul\":1083:1102   */\n      mstore\n        /* \"#utility.yul\":1135:1139   */\n      0x20\n        /* \"#utility.yul\":1130:1133   */\n      dup3\n        /* \"#utility.yul\":1126:1140   */\n      add\n        /* \"#utility.yul\":1111:1140   */\n      swap1\n      pop\n        /* \"#utility.yul\":977:1146   */\n      swap3\n      swap2\n      pop\n      pop\n      jump\t// out\n        /* \"#utility.yul\":1152:1291   */\n    tag_56:\n        /* \"#utility.yul\":1241:1247   */\n      dup3\n        /* \"#utility.yul\":1236:1239   */\n      dup2\n        /* \"#utility.yul\":1231:1234   */\n      dup4\n        /* \"#utility.yul\":1225:1248   */\n      mcopy\n        /* \"#utility.yul\":1282:1283   */\n      0x00\n        /* \"#utility.yul\":1273:1279   */\n      dup4\n        /* \"#utility.yul\":1268:1271   */\n      dup4\n        /* \"#utility.yul\":1264:1280   */\n      add\n        /* \"#utility.yul\":1257:1284   */\n      mstore\n        /* \"#utility.yul\":1152:1291   */\n      pop\n      pop\n      pop\n      jump\t// out\n        /* \"#utility.yul\":1297:1399   */\n    tag_57:\n        /* \"#utility.yul\":1338:1344   */\n      0x00\n        /* \"#utility.yul\":1389:1391   */\n      0x1f\n        /* \"#utility.yul\":1385:1392   */\n      not\n        /* \"#utility.yul\":1380:1382   */\n      0x1f\n        /* \"#utility.yul\":1373:1378   */\n      dup4\n        /* \"#utility.yul\":1369:1383   */\n      add\n        /* \"#utility.yul\":1365:1393   */\n      and\n        /* \"#utility.yul\":1355:1393   */\n      swap1\n      pop\n        /* \"#utility.yul\":1297:1399   */\n      swap2\n      swap1\n      pop\n      jump\t// out\n        /* \"#utility.yul\":1405:1782   */\n    tag_58:\n        /* \"#utility.yul\":1493:1496   */\n      0x00\n        /* \"#utility.yul\":1521:1560   */\n      tag_83\n        /* \"#utility.yul\":1554:1559   */\n      dup3\n        /* \"#utility.yul\":1521:1560   */\n      tag_54\n      jump\t// in\n    tag_83:\n        /* \"#utility.yul\":1576:1647   */\n      tag_84\n        /* \"#utility.yul\":1640:1646   */\n      dup2\n        /* \"#utility.yul\":1635:1638   */\n      dup6\n        /* \"#utility.yul\":1576:1647   */\n      tag_55\n      jump\t// in\n    tag_84:\n        /* \"#utility.yul\":1569:1647   */\n      swap4\n      pop\n        /* \"#utility.yul\":1656:1721   */\n      tag_85\n        /* \"#utility.yul\":1714:1720   */\n      dup2\n        /* \"#utility.yul\":1709:1712   */\n      dup6\n        /* \"#utility.yul\":1702:1706   */\n      0x20\n        /* \"#utility.yul\":1695:1700   */\n      dup7\n        /* \"#utility.yul\":1691:1707   */\n      add\n        /* \"#utility.yul\":1656:1721   */\n      tag_56\n      jump\t// in\n    tag_85:\n        /* \"#utility.yul\":1746:1775   */\n      tag_86\n        /* \"#utility.yul\":1768:1774   */\n      dup2\n        /* \"#utility.yul\":1746:1775   */\n      tag_57\n      jump\t// in\n    tag_86:\n        /* \"#utility.yul\":1741:1744   */\n      dup5\n        /* \"#utility.yul\":1737:1776   */\n      add\n        /* \"#utility.yul\":1730:1776   */\n      swap2\n      pop\n        /* \"#utility.yul\":1497:1782   */\n      pop\n        /* \"#utility.yul\":1405:1782   */\n      swap3\n      swap2\n      pop\n      pop\n      jump\t// out\n        /* \"#utility.yul\":1788:2101   */\n    tag_23:\n        /* \"#utility.yul\":1901:1905   */\n      0x00\n        /* \"#utility.yul\":1939:1941   */\n      0x20\n        /* \"#utility.yul\":1928:1937   */\n      dup3\n        /* \"#utility.yul\":1924:1942   */\n      add\n        /* \"#utility.yul\":1916:1942   */\n      swap1\n      pop\n        /* \"#utility.yul\":1988:1997   */\n      dup2\n        /* \"#utility.yul\":1982:1986   */\n      dup2\n        /* \"#utility.yul\":1978:1998   */\n      sub\n        /* \"#utility.yul\":1974:1975   */\n      0x00\n        /* \"#utility.yul\":1963:1972   */\n      dup4\n        /* \"#utility.yul\":1959:1976   */\n      add\n        /* \"#utility.yul\":1952:1999   */\n      mstore\n        /* \"#utility.yul\":2016:2094   */\n      tag_88\n        /* \"#utility.yul\":2089:2093   */\n      dup2\n        /* \"#utility.yul\":2080:2086   */\n      dup5\n        /* \"#utility.yul\":2016:2094   */\n      tag_58\n      jump\t// in\n    tag_88:\n        /* \"#utility.yul\":2008:2094   */\n      swap1\n      pop\n        /* \"#utility.yul\":1788:2101   */\n      swap3\n      swap2\n      pop\n      pop\n      jump\t// out\n        /* \"#utility.yul\":2107:2196   */\n    tag_59:\n        /* \"#utility.yul\":2143:2150   */\n      0x00\n        /* \"#utility.yul\":2183:2189   */\n      0xffff\n        /* \"#utility.yul\":2176:2181   */\n      dup3\n        /* \"#utility.yul\":2172:2190   */\n      and\n        /* \"#utility.yul\":2161:2190   */\n      swap1\n      pop\n        /* \"#utility.yul\":2107:2196   */\n      swap2\n      swap1\n      pop\n      jump\t// out\n        /* \"#utility.yul\":2202:2317   */\n    tag_60:\n        /* \"#utility.yul\":2287:2310   */\n      tag_91\n        /* \"#utility.yul\":2304:2309   */\n      dup2\n        /* \"#utility.yul\":2287:2310   */\n      tag_59\n      jump\t// in\n    tag_91:\n        /* \"#utility.yul\":2282:2285   */\n      dup3\n        /* \"#utility.yul\":2275:2311   */\n      mstore\n        /* \"#utility.yul\":2202:2317   */\n      pop\n      pop\n      jump\t// out\n        /* \"#utility.yul\":2323:2541   */\n    tag_30:\n        /* \"#utility.yul\":2414:2418   */\n      0x00\n        /* \"#utility.yul\":2452:2454   */\n      0x20\n        /* \"#utility.yul\":2441:2450   */\n      dup3\n        /* \"#utility.yul\":2437:2455   */\n      add\n        /* \"#utility.yul\":2429:2455   */\n      swap1\n      pop\n        /* \"#utility.yul\":2465:2534   */\n      tag_93\n        /* \"#utility.yul\":2531:2532   */\n      0x00\n        /* \"#utility.yul\":2520:2529   */\n      dup4\n        /* \"#utility.yul\":2516:2533   */\n      add\n        /* \"#utility.yul\":2507:2513   */\n      dup5\n        /* \"#utility.yul\":2465:2534   */\n      tag_60\n      jump\t// in\n    tag_93:\n        /* \"#utility.yul\":2323:2541   */\n      swap3\n      swap2\n      pop\n      pop\n      jump\t// out\n        /* \"#utility.yul\":2547:2637   */\n    tag_61:\n        /* \"#utility.yul\":2582:2589   */\n      0x00\n        /* \"#utility.yul\":2625:2630   */\n      dup2\n        /* \"#utility.yul\":2622:2623   */\n      0x03\n        /* \"#utility.yul\":2611:2631   */\n      signextend\n        /* \"#utility.yul\":2600:2631   */\n      swap1\n      pop\n        /* \"#utility.yul\":2547:2637   */\n      swap2\n      swap1\n      pop\n      jump\t// out\n        /* \"#utility.yul\":2643:2755   */\n    tag_62:\n        /* \"#utility.yul\":2726:2748   */\n      tag_96\n        /* \"#utility.yul\":2742:2747   */\n      dup2\n        /* \"#utility.yul\":2726:2748   */\n      tag_61\n      jump\t// in\n    tag_96:\n        /* \"#utility.yul\":2721:2724   */\n      dup3\n        /* \"#utility.yul\":2714:2749   */\n      mstore\n        /* \"#utility.yul\":2643:2755   */\n      pop\n      pop\n      jump\t// out\n        /* \"#utility.yul\":2761:2975   */\n    tag_37:\n        /* \"#utility.yul\":2850:2854   */\n      0x00\n        /* \"#utility.yul\":2888:2890   */\n      0x20\n        /* \"#utility.yul\":2877:2886   */\n      dup3\n        /* \"#utility.yul\":2873:2891   */\n      add\n        /* \"#utility.yul\":2865:2891   */\n      swap1\n      pop\n        /* \"#utility.yul\":2901:2968   */\n      tag_98\n        /* \"#utility.yul\":2965:2966   */\n      0x00\n        /* \"#utility.yul\":2954:2963   */\n      dup4\n        /* \"#utility.yul\":2950:2967   */\n      add\n        /* \"#utility.yul\":2941:2947   */\n      dup5\n        /* \"#utility.yul\":2901:2968   */\n      tag_62\n      jump\t// in\n    tag_98:\n        /* \"#utility.yul\":2761:2975   */\n      swap3\n      swap2\n      pop\n      pop\n      jump\t// out\n        /* \"#utility.yul\":2981:3107   */\n    tag_63:\n        /* \"#utility.yul\":3018:3025   */\n      0x00\n        /* \"#utility.yul\":3058:3100   */\n      0xffffffffffffffffffffffffffffffffffffffff\n        /* \"#utility.yul\":3051:3056   */\n      dup3\n        /* \"#utility.yul\":3047:3101   */\n      and\n        /* \"#utility.yul\":3036:3101   */\n      swap1\n      pop\n        /* \"#utility.yul\":2981:3107   */\n      swap2\n      swap1\n      pop\n      jump\t// out\n        /* \"#utility.yul\":3113:3209   */\n    tag_64:\n        /* \"#utility.yul\":3150:3157   */\n      0x00\n        /* \"#utility.yul\":3179:3203   */\n      tag_101\n        /* \"#utility.yul\":3197:3202   */\n      dup3\n        /* \"#utility.yul\":3179:3203   */\n      tag_63\n      jump\t// in\n    tag_101:\n        /* \"#utility.yul\":3168:3203   */\n      swap1\n      pop\n        /* \"#utility.yul\":3113:3209   */\n      swap2\n      swap1\n      pop\n      jump\t// out\n        /* \"#utility.yul\":3215:3333   */\n    tag_65:\n        /* \"#utility.yul\":3302:3326   */\n      tag_103\n        /* \"#utility.yul\":3320:3325   */\n      dup2\n        /* \"#utility.yul\":3302:3326   */\n      tag_64\n      jump\t// in\n    tag_103:\n        /* \"#utility.yul\":3297:3300   */\n      dup3\n        /* \"#utility.yul\":3290:3327   */\n      mstore\n        /* \"#utility.yul\":3215:3333   */\n      pop\n      pop\n      jump\t// out\n        /* \"#utility.yul\":3339:3781   */\n    tag_41:\n        /* \"#utility.yul\":3488:3492   */\n      0x00\n        /* \"#utility.yul\":3526:3528   */\n      0x60\n        /* \"#utility.yul\":3515:3524   */\n      dup3\n        /* \"#utility.yul\":3511:3529   */\n      add\n        /* \"#utility.yul\":3503:3529   */\n      swap1\n      pop\n        /* \"#utility.yul\":3539:3610   */\n      tag_105\n        /* \"#utility.yul\":3607:3608   */\n      0x00\n        /* \"#utility.yul\":3596:3605   */\n      dup4\n        /* \"#utility.yul\":3592:3609   */\n      add\n        /* \"#utility.yul\":3583:3589   */\n      dup7\n        /* \"#utility.yul\":3539:3610   */\n      tag_53\n      jump\t// in\n    tag_105:\n        /* \"#utility.yul\":3620:3692   */\n      tag_106\n        /* \"#utility.yul\":3688:3690   */\n      0x20\n        /* \"#utility.yul\":3677:3686   */\n      dup4\n        /* \"#utility.yul\":3673:3691   */\n      add\n        /* \"#utility.yul\":3664:3670   */\n      dup6\n        /* \"#utility.yul\":3620:3692   */\n      tag_53\n      jump\t// in\n    tag_106:\n        /* \"#utility.yul\":3702:3774   */\n      tag_107\n        /* \"#utility.yul\":3770:3772   */\n      0x40\n        /* \"#utility.yul\":3759:3768   */\n      dup4\n        /* \"#utility.yul\":3755:3773   */\n      add\n        /* \"#utility.yul\":3746:3752   */\n      dup5\n        /* \"#utility.yul\":3702:3774   */\n      tag_65\n      jump\t// in\n    tag_107:\n        /* \"#utility.yul\":3339:3781   */\n      swap5\n      swap4\n      pop\n      pop\n      pop\n      pop\n      jump\t// out\n        /* \"#utility.yul\":3787:3967   */\n    tag_66:\n        /* \"#utility.yul\":3835:3912   */\n      0x4e487b7100000000000000000000000000000000000000000000000000000000\n        /* \"#utility.yul\":3832:3833   */\n      0x00\n        /* \"#utility.yul\":3825:3913   */\n      mstore\n        /* \"#utility.yul\":3932:3936   */\n      0x22\n        /* \"#utility.yul\":3929:3930   */\n      0x04\n        /* \"#utility.yul\":3922:3937   */\n      mstore\n        /* \"#utility.yul\":3956:3960   */\n      0x24\n        /* \"#utility.yul\":3953:3954   */\n      0x00\n        /* \"#utility.yul\":3946:3961   */\n      revert\n        /* \"#utility.yul\":3973:4293   */\n    tag_44:\n        /* \"#utility.yul\":4017:4023   */\n      0x00\n        /* \"#utility.yul\":4054:4055   */\n      0x02\n        /* \"#utility.yul\":4048:4052   */\n      dup3\n        /* \"#utility.yul\":4044:4056   */\n      div\n        /* \"#utility.yul\":4034:4056   */\n      swap1\n      pop\n        /* \"#utility.yul\":4101:4102   */\n      0x01\n        /* \"#utility.yul\":4095:4099   */\n      dup3\n        /* \"#utility.yul\":4091:4103   */\n      and\n        /* \"#utility.yul\":4122:4140   */\n      dup1\n        /* \"#utility.yul\":4112:4193   */\n      tag_110\n      jumpi\n        /* \"#utility.yul\":4178:4182   */\n      0x7f\n        /* \"#utility.yul\":4170:4176   */\n      dup3\n        /* \"#utility.yul\":4166:4183   */\n      and\n        /* \"#utility.yul\":4156:4183   */\n      swap2\n      pop\n        /* \"#utility.yul\":4112:4193   */\n    tag_110:\n        /* \"#utility.yul\":4240:4242   */\n      0x20\n        /* \"#utility.yul\":4232:4238   */\n      dup3\n        /* \"#utility.yul\":4229:4243   */\n      lt\n        /* \"#utility.yul\":4209:4227   */\n      dup2\n        /* \"#utility.yul\":4206:4244   */\n      sub\n        /* \"#utility.yul\":4203:4287   */\n      tag_111\n      jumpi\n        /* \"#utility.yul\":4259:4277   */\n      tag_112\n      tag_66\n      jump\t// in\n    tag_112:\n        /* \"#utility.yul\":4203:4287   */\n    tag_111:\n        /* \"#utility.yul\":4024:4293   */\n      pop\n        /* \"#utility.yul\":3973:4293   */\n      swap2\n      swap1\n      pop\n      jump\t// out\n\n    auxdata: 0xa2646970667358221220f46606a3e4e1916f56e2c1617668ec9b3e4097a787694daef19ec0bf139fa8fa64736f6c634300081e0033\n}\n",
				"bytecode": {
					"linkReferences": {},
					"object": "60a060405260ff5f5f6101000a81548160ff021916908360ff16021790555061ffff5f60016101000a81548161ffff021916908361ffff1602179055507fffffffffffffffffffffffffffffffffffffffffffffffffffffffff800000005f60036101000a81548163ffffffff021916908360030b63ffffffff1602179055506040518060400160405280600b81526020017f68656c6c6f20776f726c64000000000000000000000000000000000000000000815250600190816100c39190610324565b5060646080908152503480156100d7575f5ffd5b506103e8608081815250506103f3565b5f81519050919050565b7f4e487b71000000000000000000000000000000000000000000000000000000005f52604160045260245ffd5b7f4e487b71000000000000000000000000000000000000000000000000000000005f52602260045260245ffd5b5f600282049050600182168061016257607f821691505b6020821081036101755761017461011e565b5b50919050565b5f819050815f5260205f209050919050565b5f6020601f8301049050919050565b5f82821b905092915050565b5f600883026101d77fffffffffffffffffffffffffffffffffffffffffffffffffffffffffffffffff8261019c565b6101e1868361019c565b95508019841693508086168417925050509392505050565b5f819050919050565b5f819050919050565b5f61022561022061021b846101f9565b610202565b6101f9565b9050919050565b5f819050919050565b61023e8361020b565b61025261024a8261022c565b8484546101a8565b825550505050565b5f5f905090565b61026961025a565b610274818484610235565b505050565b5b818110156102975761028c5f82610261565b60018101905061027a565b5050565b601f8211156102dc576102ad8161017b565b6102b68461018d565b810160208510156102c5578190505b6102d96102d18561018d565b830182610279565b50505b505050565b5f82821c905092915050565b5f6102fc5f19846008026102e1565b1980831691505092915050565b5f61031483836102ed565b9150826002028217905092915050565b61032d826100e7565b67ffffffffffffffff811115610346576103456100f1565b5b610350825461014b565b61035b82828561029b565b5f60209050601f83116001811461038c575f841561037a578287015190505b6103848582610309565b8655506103eb565b601f19841661039a8661017b565b5f5b828110156103c15784890151825560018201915060208501945060208101905061039c565b868310156103de57848901516103da601f8916826102ed565b8355505b6001600288020188555050505b505050505050565b6080516105146104125f395f8181610190015261024201526105145ff3fe608060405234801561000f575f5ffd5b5060043610610086575f3560e01c80634df7e3d0116100595780634df7e3d014610102578063bd03ed0414610120578063c3da42b81461013e578063dc0a12311461015c57610086565b80630dbe671f1461008a57806317d7de7c146100a85780631f1bd692146100c6578063229c7a49146100e4575b5f5ffd5b61009261017c565b60405161009f91906102ca565b60405180910390f35b6100b061018d565b6040516100bd91906102fb565b60405180910390f35b6100ce6101b4565b6040516100db9190610384565b60405180910390f35b6100ec610240565b6040516100f991906102fb565b60405180910390f35b61010a610264565b60405161011791906103c0565b60405180910390f35b610128610277565b60405161013591906102fb565b60405180910390f35b61014661027c565b60405161015391906103f4565b60405180910390f35b61016461028e565b6040516101739392919061044c565b60405180910390f35b5f5f9054906101000a900460ff1681565b5f7f0000000000000000000000000000000000000000000000000000000000000000905090565b600180546101c1906104ae565b80601f01602080910402602001604051908101604052809291908181526020018280546101ed906104ae565b80156102385780601f1061020f57610100808354040283529160200191610238565b820191905f5260205f20905b81548152906001019060200180831161021b57829003601f168201915b505050505081565b7f000000000000000000000000000000000000000000000000000000000000000081565b5f60019054906101000a900461ffff1681565b600a81565b5f60039054906101000a900460030b81565b5f5f5f5f600a90505f4290505f339050828282955095509550505050909192565b5f60ff82169050919050565b6102c4816102af565b82525050565b5f6020820190506102dd5f8301846102bb565b92915050565b5f819050919050565b6102f5816102e3565b82525050565b5f60208201905061030e5f8301846102ec565b92915050565b5f81519050919050565b5f82825260208201905092915050565b8281835e5f83830152505050565b5f601f19601f8301169050919050565b5f61035682610314565b610360818561031e565b935061037081856020860161032e565b6103798161033c565b840191505092915050565b5f6020820190508181035f83015261039c818461034c565b905092915050565b5f61ffff82169050919050565b6103ba816103a4565b82525050565b5f6020820190506103d35f8301846103b1565b92915050565b5f8160030b9050919050565b6103ee816103d9565b82525050565b5f6020820190506104075f8301846103e5565b92915050565b5f73ffffffffffffffffffffffffffffffffffffffff82169050919050565b5f6104368261040d565b9050919050565b6104468161042c565b82525050565b5f60608201905061045f5f8301866102ec565b61046c60208301856102ec565b610479604083018461043d565b949350505050565b7f4e487b71000000000000000000000000000000000000000000000000000000005f52602260045260245ffd5b5f60028204905060018216806104c557607f821691505b6020821081036104d8576104d7610481565b5b5091905056fea2646970667358221220f46606a3e4e1916f56e2c1617668ec9b3e4097a787694daef19ec0bf139fa8fa64736f6c634300081e0033",
					"opcodes": "PUSH1 0xA0 PUSH1 0x40 MSTORE PUSH1 0xFF PUSH0 PUSH0 PUSH2 0x100 EXP DUP2 SLOAD DUP2 PUSH1 0xFF MUL NOT AND SWAP1 DUP4 PUSH1 0xFF AND MUL OR SWAP1 SSTORE POP PUSH2 0xFFFF PUSH0 PUSH1 0x1 PUSH2 0x100 EXP DUP2 SLOAD DUP2 PUSH2 0xFFFF MUL NOT AND SWAP1 DUP4 PUSH2 0xFFFF AND MUL OR SWAP1 SSTORE POP PUSH32 0xFFFFFFFFFFFFFFFFFFFFFFFFFFFFFFFFFFFFFFFFFFFFFFFFFFFFFFFF80000000 PUSH0 PUSH1 0x3 PUSH2 0x100 EXP DUP2 SLOAD DUP2 PUSH4 0xFFFFFFFF MUL NOT AND SWAP1 DUP4 PUSH1 0x3 SIGNEXTEND PUSH4 0xFFFFFFFF AND MUL OR SWAP1 SSTORE POP PUSH1 0x40 MLOAD DUP1 PUSH1 0x40 ADD PUSH1 0x40 MSTORE DUP1 PUSH1 0xB DUP2 MSTORE PUSH1 0x20 ADD PUSH32 0x68656C6C6F20776F726C64000000000000000000000000000000000000000000 DUP2 MSTORE POP PUSH1 0x1 SWAP1 DUP2 PUSH2 0xC3 SWAP2 SWAP1 PUSH2 0x324 JUMP JUMPDEST POP PUSH1 0x64 PUSH1 0x80 SWAP1 DUP2 MSTORE POP CALLVALUE DUP1 ISZERO PUSH2 0xD7 JUMPI PUSH0 PUSH0 REVERT JUMPDEST POP PUSH2 0x3E8 PUSH1 0x80 DUP2 DUP2 MSTORE POP POP PUSH2 0x3F3 JUMP JUMPDEST PUSH0 DUP2 MLOAD SWAP1 POP SWAP2 SWAP1 POP JUMP JUMPDEST PUSH32 0x4E487B7100000000000000000000000000000000000000000000000000000000 PUSH0 MSTORE PUSH1 0x41 PUSH1 0x4 MSTORE PUSH1 0x24 PUSH0 REVERT JUMPDEST PUSH32 0x4E487B7100000000000000000000000000000000000000000000000000000000 PUSH0 MSTORE PUSH1 0x22 PUSH1 0x4 MSTORE PUSH1 0x24 PUSH0 REVERT JUMPDEST PUSH0 PUSH1 0x2 DUP3 DIV SWAP1 POP PUSH1 0x1 DUP3 AND DUP1 PUSH2 0x162 JUMPI PUSH1 0x7F DUP3 AND SWAP2 POP JUMPDEST PUSH1 0x20 DUP3 LT DUP2 SUB PUSH2 0x175 JUMPI PUSH2 0x174 PUSH2 0x11E JUMP JUMPDEST JUMPDEST POP SWAP2 SWAP1 POP JUMP JUMPDEST PUSH0 DUP2 SWAP1 POP DUP2 PUSH0 MSTORE PUSH1 0x20 PUSH0 KECCAK256 SWAP1 POP SWAP2 SWAP1 POP JUMP JUMPDEST PUSH0 PUSH1 0x20 PUSH1 0x1F DUP4 ADD DIV SWAP1 POP SWAP2 SWAP1 POP JUMP JUMPDEST PUSH0 DUP3 DUP3 SHL SWAP1 POP SWAP3 SWAP2 POP POP JUMP JUMPDEST PUSH0 PUSH1 0x8 DUP4 MUL PUSH2 0x1D7 PUSH32 0xFFFFFFFFFFFFFFFFFFFFFFFFFFFFFFFFFFFFFFFFFFFFFFFFFFFFFFFFFFFFFFFF DUP3 PUSH2 0x19C JUMP JUMPDEST PUSH2 0x1E1 DUP7 DUP4 PUSH2 0x19C JUMP JUMPDEST SWAP6 POP DUP1 NOT DUP5 AND SWAP4 POP DUP1 DUP7 AND DUP5 OR SWAP3 POP POP POP SWAP4 SWAP3 POP POP POP JUMP JUMPDEST PUSH0 DUP2 SWAP1 POP SWAP2 SWAP1 POP JUMP JUMPDEST PUSH0 DUP2 SWAP1 POP SWAP2 SWAP1 POP JUMP JUMPDEST PUSH0 PUSH2 0x225 PUSH2 0x220 PUSH2 0x21B DUP5 PUSH2 0x1F9 JUMP JUMPDEST PUSH2 0x202 JUMP JUMPDEST PUSH2 0x1F9 JUMP JUMPDEST SWAP1 POP SWAP2 SWAP1 POP JUMP JUMPDEST PUSH0 DUP2 SWAP1 POP SWAP2 SWAP1 POP JUMP JUMPDEST PUSH2 0x23E DUP4 PUSH2 0x20B JUMP JUMPDEST PUSH2 0x252 PUSH2 0x24A DUP3 PUSH2 0x22C JUMP JUMPDEST DUP5 DUP5 SLOAD PUSH2 0x1A8 JUMP JUMPDEST DUP3 SSTORE POP POP POP POP JUMP JUMPDEST PUSH0 PUSH0 SWAP1 POP SWAP1 JUMP JUMPDEST PUSH2 0x269 PUSH2 0x25A JUMP JUMPDEST PUSH2 0x274 DUP2 DUP5 DUP5 PUSH2 0x235 JUMP JUMPDEST POP POP POP JUMP JUMPDEST JUMPDEST DUP2 DUP2 LT ISZERO PUSH2 0x297 JUMPI PUSH2 0x28C PUSH0 DUP3 PUSH2 0x261 JUMP JUMPDEST PUSH1 0x1 DUP2 ADD SWAP1 POP PUSH2 0x27A JUMP JUMPDEST POP POP JUMP JUMPDEST PUSH1 0x1F DUP3 GT ISZERO PUSH2 0x2DC JUMPI PUSH2 0x2AD DUP2 PUSH2 0x17B JUMP JUMPDEST PUSH2 0x2B6 DUP5 PUSH2 0x18D JUMP JUMPDEST DUP2 ADD PUSH1 0x20 DUP6 LT ISZERO PUSH2 0x2C5 JUMPI DUP2 SWAP1 POP JUMPDEST PUSH2 0x2D9 PUSH2 0x2D1 DUP6 PUSH2 0x18D JUMP JUMPDEST DUP4 ADD DUP3 PUSH2 0x279 JUMP JUMPDEST POP POP JUMPDEST POP POP POP JUMP JUMPDEST PUSH0 DUP3 DUP3 SHR SWAP1 POP SWAP3 SWAP2 POP POP JUMP JUMPDEST PUSH0 PUSH2 0x2FC PUSH0 NOT DUP5 PUSH1 0x8 MUL PUSH2 0x2E1 JUMP JUMPDEST NOT DUP1 DUP4 AND SWAP2 POP POP SWAP3 SWAP2 POP POP JUMP JUMPDEST PUSH0 PUSH2 0x314 DUP4 DUP4 PUSH2 0x2ED JUMP JUMPDEST SWAP2 POP DUP3 PUSH1 0x2 MUL DUP3 OR SWAP1 POP SWAP3 SWAP2 POP POP JUMP JUMPDEST PUSH2 0x32D DUP3 PUSH2 0xE7 JUMP JUMPDEST PUSH8 0xFFFFFFFFFFFFFFFF DUP2 GT ISZERO PUSH2 0x346 JUMPI PUSH2 0x345 PUSH2 0xF1 JUMP JUMPDEST JUMPDEST PUSH2 0x350 DUP3 SLOAD PUSH2 0x14B JUMP JUMPDEST PUSH2 0x35B DUP3 DUP3 DUP6 PUSH2 0x29B JUMP JUMPDEST PUSH0 PUSH1 0x20 SWAP1 POP PUSH1 0x1F DUP4 GT PUSH1 0x1 DUP2 EQ PUSH2 0x38C JUMPI PUSH0 DUP5 ISZERO PUSH2 0x37A JUMPI DUP3 DUP8 ADD MLOAD SWAP1 POP JUMPDEST PUSH2 0x384 DUP6 DUP3 PUSH2 0x309 JUMP JUMPDEST DUP7 SSTORE POP PUSH2 0x3EB JUMP JUMPDEST PUSH1 0x1F NOT DUP5 AND PUSH2 0x39A DUP7 PUSH2 0x17B JUMP JUMPDEST PUSH0 JUMPDEST DUP3 DUP2 LT ISZERO PUSH2 0x3C1 JUMPI DUP5 DUP10 ADD MLOAD DUP3 SSTORE PUSH1 0x1 DUP3 ADD SWAP2 POP PUSH1 0x20 DUP6 ADD SWAP5 POP PUSH1 0x20 DUP2 ADD SWAP1 POP PUSH2 0x39C JUMP JUMPDEST DUP7 DUP4 LT ISZERO PUSH2 0x3DE JUMPI DUP5 DUP10 ADD MLOAD PUSH2 0x3DA PUSH1 0x1F DUP10 AND DUP3 PUSH2 0x2ED JUMP JUMPDEST DUP4 SSTORE POP JUMPDEST PUSH1 0x1 PUSH1 0x2 DUP9 MUL ADD DUP9 SSTORE POP POP POP JUMPDEST POP POP POP POP POP POP JUMP JUMPDEST PUSH1 0x80 MLOAD PUSH2 0x514 PUSH2 0x412 PUSH0 CODECOPY PUSH0 DUP2 DUP2 PUSH2 0x190 ADD MSTORE PUSH2 0x242 ADD MSTORE PUSH2 0x514 PUSH0 RETURN INVALID PUSH1 0x80 PUSH1 0x40 MSTORE CALLVALUE DUP1 ISZERO PUSH2 0xF JUMPI PUSH0 PUSH0 REVERT JUMPDEST POP PUSH1 0x4 CALLDATASIZE LT PUSH2 0x86 JUMPI PUSH0 CALLDATALOAD PUSH1 0xE0 SHR DUP1 PUSH4 0x4DF7E3D0 GT PUSH2 0x59 JUMPI DUP1 PUSH4 0x4DF7E3D0 EQ PUSH2 0x102 JUMPI DUP1 PUSH4 0xBD03ED04 EQ PUSH2 0x120 JUMPI DUP1 PUSH4 0xC3DA42B8 EQ PUSH2 0x13E JUMPI DUP1 PUSH4 0xDC0A1231 EQ PUSH2 0x15C JUMPI PUSH2 0x86 JUMP JUMPDEST DUP1 PUSH4 0xDBE671F EQ PUSH2 0x8A JUMPI DUP1 PUSH4 0x17D7DE7C EQ PUSH2 0xA8 JUMPI DUP1 PUSH4 0x1F1BD692 EQ PUSH2 0xC6 JUMPI DUP1 PUSH4 0x229C7A49 EQ PUSH2 0xE4 JUMPI JUMPDEST PUSH0 PUSH0 REVERT JUMPDEST PUSH2 0x92 PUSH2 0x17C JUMP JUMPDEST PUSH1 0x40 MLOAD PUSH2 0x9F SWAP2 SWAP1 PUSH2 0x2CA JUMP JUMPDEST PUSH1 0x40 MLOAD DUP1 SWAP2 SUB SWAP1 RETURN JUMPDEST PUSH2 0xB0 PUSH2 0x18D JUMP JUMPDEST PUSH1 0x40 MLOAD PUSH2 0xBD SWAP2 SWAP1 PUSH2 0x2FB JUMP JUMPDEST PUSH1 0x40 MLOAD DUP1 SWAP2 SUB SWAP1 RETURN JUMPDEST PUSH2 0xCE PUSH2 0x1B4 JUMP JUMPDEST PUSH1 0x40 MLOAD PUSH2 0xDB SWAP2 SWAP1 PUSH2 0x384 JUMP JUMPDEST PUSH1 0x40 MLOAD DUP1 SWAP2 SUB SWAP1 RETURN JUMPDEST PUSH2 0xEC PUSH2 0x240 JUMP JUMPDEST PUSH1 0x40 MLOAD PUSH2 0xF9 SWAP2 SWAP1 PUSH2 0x2FB JUMP JUMPDEST PUSH1 0x40 MLOAD DUP1 SWAP2 SUB SWAP1 RETURN JUMPDEST PUSH2 0x10A PUSH2 0x264 JUMP JUMPDEST PUSH1 0x40 MLOAD PUSH2 0x117 SWAP2 SWAP1 PUSH2 0x3C0 JUMP JUMPDEST PUSH1 0x40 MLOAD DUP1 SWAP2 SUB SWAP1 RETURN JUMPDEST PUSH2 0x128 PUSH2 0x277 JUMP JUMPDEST PUSH1 0x40 MLOAD PUSH2 0x135 SWAP2 SWAP1 PUSH2 0x2FB JUMP JUMPDEST PUSH1 0x40 MLOAD DUP1 SWAP2 SUB SWAP1 RETURN JUMPDEST PUSH2 0x146 PUSH2 0x27C JUMP JUMPDEST PUSH1 0x40 MLOAD PUSH2 0x153 SWAP2 SWAP1 PUSH2 0x3F4 JUMP JUMPDEST PUSH1 0x40 MLOAD DUP1 SWAP2 SUB SWAP1 RETURN JUMPDEST PUSH2 0x164 PUSH2 0x28E JUMP JUMPDEST PUSH1 0x40 MLOAD PUSH2 0x173 SWAP4 SWAP3 SWAP2 SWAP1 PUSH2 0x44C JUMP JUMPDEST PUSH1 0x40 MLOAD DUP1 SWAP2 SUB SWAP1 RETURN JUMPDEST PUSH0 PUSH0 SWAP1 SLOAD SWAP1 PUSH2 0x100 EXP SWAP1 DIV PUSH1 0xFF AND DUP2 JUMP JUMPDEST PUSH0 PUSH32 0x0 SWAP1 POP SWAP1 JUMP JUMPDEST PUSH1 0x1 DUP1 SLOAD PUSH2 0x1C1 SWAP1 PUSH2 0x4AE JUMP JUMPDEST DUP1 PUSH1 0x1F ADD PUSH1 0x20 DUP1 SWAP2 DIV MUL PUSH1 0x20 ADD PUSH1 0x40 MLOAD SWAP1 DUP2 ADD PUSH1 0x40 MSTORE DUP1 SWAP3 SWAP2 SWAP1 DUP2 DUP2 MSTORE PUSH1 0x20 ADD DUP3 DUP1 SLOAD PUSH2 0x1ED SWAP1 PUSH2 0x4AE JUMP JUMPDEST DUP1 ISZERO PUSH2 0x238 JUMPI DUP1 PUSH1 0x1F LT PUSH2 0x20F JUMPI PUSH2 0x100 DUP1 DUP4 SLOAD DIV MUL DUP4 MSTORE SWAP2 PUSH1 0x20 ADD SWAP2 PUSH2 0x238 JUMP JUMPDEST DUP3 ADD SWAP2 SWAP1 PUSH0 MSTORE PUSH1 0x20 PUSH0 KECCAK256 SWAP1 JUMPDEST DUP2 SLOAD DUP2 MSTORE SWAP1 PUSH1 0x1 ADD SWAP1 PUSH1 0x20 ADD DUP1 DUP4 GT PUSH2 0x21B JUMPI DUP3 SWAP1 SUB PUSH1 0x1F AND DUP3 ADD SWAP2 JUMPDEST POP POP POP POP POP DUP2 JUMP JUMPDEST PUSH32 0x0 DUP2 JUMP JUMPDEST PUSH0 PUSH1 0x1 SWAP1 SLOAD SWAP1 PUSH2 0x100 EXP SWAP1 DIV PUSH2 0xFFFF AND DUP2 JUMP JUMPDEST PUSH1 0xA DUP2 JUMP JUMPDEST PUSH0 PUSH1 0x3 SWAP1 SLOAD SWAP1 PUSH2 0x100 EXP SWAP1 DIV PUSH1 0x3 SIGNEXTEND DUP2 JUMP JUMPDEST PUSH0 PUSH0 PUSH0 PUSH0 PUSH1 0xA SWAP1 POP PUSH0 TIMESTAMP SWAP1 POP PUSH0 CALLER SWAP1 POP DUP3 DUP3 DUP3 SWAP6 POP SWAP6 POP SWAP6 POP POP POP POP SWAP1 SWAP2 SWAP3 JUMP JUMPDEST PUSH0 PUSH1 0xFF DUP3 AND SWAP1 POP SWAP2 SWAP1 POP JUMP JUMPDEST PUSH2 0x2C4 DUP2 PUSH2 0x2AF JUMP JUMPDEST DUP3 MSTORE POP POP JUMP JUMPDEST PUSH0 PUSH1 0x20 DUP3 ADD SWAP1 POP PUSH2 0x2DD PUSH0 DUP4 ADD DUP5 PUSH2 0x2BB JUMP JUMPDEST SWAP3 SWAP2 POP POP JUMP JUMPDEST PUSH0 DUP2 SWAP1 POP SWAP2 SWAP1 POP JUMP JUMPDEST PUSH2 0x2F5 DUP2 PUSH2 0x2E3 JUMP JUMPDEST DUP3 MSTORE POP POP JUMP JUMPDEST PUSH0 PUSH1 0x20 DUP3 ADD SWAP1 POP PUSH2 0x30E PUSH0 DUP4 ADD DUP5 PUSH2 0x2EC JUMP JUMPDEST SWAP3 SWAP2 POP POP JUMP JUMPDEST PUSH0 DUP2 MLOAD SWAP1 POP SWAP2 SWAP1 POP JUMP JUMPDEST PUSH0 DUP3 DUP3 MSTORE PUSH1 0x20 DUP3 ADD SWAP1 POP SWAP3 SWAP2 POP POP JUMP JUMPDEST DUP3 DUP2 DUP4 MCOPY PUSH0 DUP4 DUP4 ADD MSTORE POP POP POP JUMP JUMPDEST PUSH0 PUSH1 0x1F NOT PUSH1 0x1F DUP4 ADD AND SWAP1 POP SWAP2 SWAP1 POP JUMP JUMPDEST PUSH0 PUSH2 0x356 DUP3 PUSH2 0x314 JUMP JUMPDEST PUSH2 0x360 DUP2 DUP6 PUSH2 0x31E JUMP JUMPDEST SWAP4 POP PUSH2 0x370 DUP2 DUP6 PUSH1 0x20 DUP7 ADD PUSH2 0x32E JUMP JUMPDEST PUSH2 0x379 DUP2 PUSH2 0x33C JUMP JUMPDEST DUP5 ADD SWAP2 POP POP SWAP3 SWAP2 POP POP JUMP JUMPDEST PUSH0 PUSH1 0x20 DUP3 ADD SWAP1 POP DUP2 DUP2 SUB PUSH0 DUP4 ADD MSTORE PUSH2 0x39C DUP2 DUP5 PUSH2 0x34C JUMP JUMPDEST SWAP1 POP SWAP3 SWAP2 POP POP JUMP JUMPDEST PUSH0 PUSH2 0xFFFF DUP3 AND SWAP1 POP SWAP2 SWAP1 POP JUMP JUMPDEST PUSH2 0x3BA DUP2 PUSH2 0x3A4 JUMP JUMPDEST DUP3 MSTORE POP POP JUMP JUMPDEST PUSH0 PUSH1 0x20 DUP3 ADD SWAP1 POP PUSH2 0x3D3 PUSH0 DUP4 ADD DUP5 PUSH2 0x3B1 JUMP JUMPDEST SWAP3 SWAP2 POP POP JUMP JUMPDEST PUSH0 DUP2 PUSH1 0x3 SIGNEXTEND SWAP1 POP SWAP2 SWAP1 POP JUMP JUMPDEST PUSH2 0x3EE DUP2 PUSH2 0x3D9 JUMP JUMPDEST DUP3 MSTORE POP POP JUMP JUMPDEST PUSH0 PUSH1 0x20 DUP3 ADD SWAP1 POP PUSH2 0x407 PUSH0 DUP4 ADD DUP5 PUSH2 0x3E5 JUMP JUMPDEST SWAP3 SWAP2 POP POP JUMP JUMPDEST PUSH0 PUSH20 0xFFFFFFFFFFFFFFFFFFFFFFFFFFFFFFFFFFFFFFFF DUP3 AND SWAP1 POP SWAP2 SWAP1 POP JUMP JUMPDEST PUSH0 PUSH2 0x436 DUP3 PUSH2 0x40D JUMP JUMPDEST SWAP1 POP SWAP2 SWAP1 POP JUMP JUMPDEST PUSH2 0x446 DUP2 PUSH2 0x42C JUMP JUMPDEST DUP3 MSTORE POP POP JUMP JUMPDEST PUSH0 PUSH1 0x60 DUP3 ADD SWAP1 POP PUSH2 0x45F PUSH0 DUP4 ADD DUP7 PUSH2 0x2EC JUMP JUMPDEST PUSH2 0x46C PUSH1 0x20 DUP4 ADD DUP6 PUSH2 0x2EC JUMP JUMPDEST PUSH2 0x479 PUSH1 0x40 DUP4 ADD DUP5 PUSH2 0x43D JUMP JUMPDEST SWAP5 SWAP4 POP POP POP POP JUMP JUMPDEST PUSH32 0x4E487B7100000000000000000000000000000000000000000000000000000000 PUSH0 MSTORE PUSH1 0x22 PUSH1 0x4 MSTORE PUSH1 0x24 PUSH0 REVERT JUMPDEST PUSH0 PUSH1 0x2 DUP3 DIV SWAP1 POP PUSH1 0x1 DUP3 AND DUP1 PUSH2 0x4C5 JUMPI PUSH1 0x7F DUP3 AND SWAP2 POP JUMPDEST PUSH1 0x20 DUP3 LT DUP2 SUB PUSH2 0x4D8 JUMPI PUSH2 0x4D7 PUSH2 0x481 JUMP JUMPDEST JUMPDEST POP SWAP2 SWAP1 POP JUMP INVALID LOG2 PUSH5 0x6970667358 0x22 SLT KECCAK256 DELEGATECALL PUSH7 0x6A3E4E1916F56 0xE2 0xC1 PUSH2 0x7668 EOFCREATE 0x9B RETURNDATACOPY BLOCKHASH SWAP8 0xA7 DUP8 PUSH10 0x4DAEF19EC0BF139FA8FA PUSH5 0x736F6C6343 STOP ADDMOD 0x1E STOP CALLER "
				},
				"gasEstimates": {
					"creation": {
						"codeDepositCost": "260000",
						"executionCost": "infinite",
						"totalCost": "infinite"
					},
					"external": {
						"MY_NUM()": "347",
						"MY_NUM2()": "infinite",
						"a()": "2466",
						"b()": "2516",
						"c()": "2564",
						"dosomething()": "infinite",
						"getName()": "infinite",
						"text()": "infinite"
					}
				},
				"methodIdentifiers": {
					"MY_NUM()": "bd03ed04",
					"MY_NUM2()": "229c7a49",
					"a()": "0dbe671f",
					"b()": "4df7e3d0",
					"c()": "c3da42b8",
					"dosomething()": "dc0a1231",
					"getName()": "17d7de7c",
					"text()": "1f1bd692"
				}
			},
			"storageLayout": {
				"storage": [
					{
						"astId": 8,
						"contract": "example/variable.sol:Veriables",
						"label": "a",
						"offset": 0,
						"slot": "0",
						"type": "t_uint8"
					},
					{
						"astId": 15,
						"contract": "example/variable.sol:Veriables",
						"label": "b",
						"offset": 1,
						"slot": "0",
						"type": "t_uint16"
					},
					{
						"astId": 22,
						"contract": "example/variable.sol:Veriables",
						"label": "c",
						"offset": 3,
						"slot": "0",
						"type": "t_int32"
					},
					{
						"astId": 25,
						"contract": "example/variable.sol:Veriables",
						"label": "text",
						"offset": 0,
						"slot": "1",
						"type": "t_string_storage"
					}
				],
				"types": {
					"t_int32": {
						"encoding": "inplace",
						"label": "int32",
						"numberOfBytes": "4"
					},
					"t_string_storage": {
						"encoding": "bytes",
						"label": "string",
						"numberOfBytes": "32"
					},
					"t_uint16": {
						"encoding": "inplace",
						"label": "uint16",
						"numberOfBytes": "2"
					},
					"t_uint8": {
						"encoding": "inplace",
						"label": "uint8",
						"numberOfBytes": "1"
					}
				}
			},
			"userdoc": {
				"kind": "user",
				"methods": {},
				"version": 1
			}
		}
	}
}