{
	"data": {
		"bytecode": {
			"linkReferences": {},
			"object": "6080604052348015600e575f5ffd5b506101958061001c5f395ff3fe608060405234801561000f575f5ffd5b5060043610610034575f3560e01c806366e41cb714610038578063f8a8fd6d14610056575b5f5ffd5b610040610074565b60405161004d91906100e6565b60405180910390f35b61005e61009b565b60405161006b91906100e6565b60405180910390f35b5f5f5b60058110156100945760018161008d919061012c565b9050610077565b8091505090565b5f5f5f5f90505b600a8110156100c65780826100b7919061012c565b915080806001019150506100a2565b508091505090565b5f819050919050565b6100e0816100ce565b82525050565b5f6020820190506100f95f8301846100d7565b92915050565b7f4e487b71000000000000000000000000000000000000000000000000000000005f52601160045260245ffd5b5f610136826100ce565b9150610141836100ce565b9250828201905080821115610159576101586100ff565b5b9291505056fea2646970667358221220f79253ca4a8bad87ce242a4f1a854b77f14b6ecc355bb3c4dfb65bb8100551bc64736f6c634300081e0033",
			"opcodes": "PUSH1 0x80 PUSH1 0x40 MSTORE CALLVALUE DUP1 ISZERO PUSH1 0xE JUMPI PUSH0 PUSH0 REVERT JUMPDEST POP PUSH2 0x195 DUP1 PUSH2 0x1C PUSH0 CODECOPY PUSH0 RETURN INVALID PUSH1 0x80 PUSH1 0x40 MSTORE CALLVALUE DUP1 ISZERO PUSH2 0xF JUMPI PUSH0 PUSH0 REVERT JUMPDEST POP PUSH1 0x4 CALLDATASIZE LT PUSH2 0x34 JUMPI PUSH0 CALLDATALOAD PUSH1 0xE0 SHR DUP1 PUSH4 0x66E41CB7 EQ PUSH2 0x38 JUMPI DUP1 PUSH4 0xF8A8FD6D EQ PUSH2 0x56 JUMPI JUMPDEST PUSH0 PUSH0 REVERT JUMPDEST PUSH2 0x40 PUSH2 0x74 JUMP JUMPDEST PUSH1 0x40 MLOAD PUSH2 0x4D SWAP2 SWAP1 PUSH2 0xE6 JUMP JUMPDEST PUSH1 0x40 MLOAD DUP1 SWAP2 SUB SWAP1 RETURN JUMPDEST PUSH2 0x5E PUSH2 0x9B JUMP JUMPDEST PUSH1 0x40 MLOAD PUSH2 0x6B SWAP2 SWAP1 PUSH2 0xE6 JUMP JUMPDEST PUSH1 0x40 MLOAD DUP1 SWAP2 SUB SWAP1 RETURN JUMPDEST PUSH0 PUSH0 JUMPDEST PUSH1 0x5 DUP2 LT ISZERO PUSH2 0x94 JUMPI PUSH1 0x1 DUP2 PUSH2 0x8D SWAP2 SWAP1 PUSH2 0x12C JUMP JUMPDEST SWAP1 POP PUSH2 0x77 JUMP JUMPDEST DUP1 SWAP2 POP POP SWAP1 JUMP JUMPDEST PUSH0 PUSH0 PUSH0 PUSH0 SWAP1 POP JUMPDEST PUSH1 0xA DUP2 LT ISZERO PUSH2 0xC6 JUMPI DUP1 DUP3 PUSH2 0xB7 SWAP2 SWAP1 PUSH2 0x12C JUMP JUMPDEST SWAP2 POP DUP1 DUP1 PUSH1 0x1 ADD SWAP2 POP POP PUSH2 0xA2 JUMP JUMPDEST POP DUP1 SWAP2 POP POP SWAP1 JUMP JUMPDEST PUSH0 DUP2 SWAP1 POP SWAP2 SWAP1 POP JUMP JUMPDEST PUSH2 0xE0 DUP2 PUSH2 0xCE JUMP JUMPDEST DUP3 MSTORE POP POP JUMP JUMPDEST PUSH0 PUSH1 0x20 DUP3 ADD SWAP1 POP PUSH2 0xF9 PUSH0 DUP4 ADD DUP5 PUSH2 0xD7 JUMP JUMPDEST SWAP3 SWAP2 POP POP JUMP JUMPDEST PUSH32 0x4E487B7100000000000000000000000000000000000000000000000000000000 PUSH0 MSTORE PUSH1 0x11 PUSH1 0x4 MSTORE PUSH1 0x24 PUSH0 REVERT JUMPDEST PUSH0 PUSH2 0x136 DUP3 PUSH2 0xCE JUMP JUMPDEST SWAP2 POP PUSH2 0x141 DUP4 PUSH2 0xCE JUMP JUMPDEST SWAP3 POP DUP3 DUP3 ADD SWAP1 POP DUP1 DUP3 GT ISZERO PUSH2 0x159 JUMPI PUSH2 0x158 PUSH2 0xFF JUMP JUMPDEST JUMPDEST SWAP3 SWAP2 POP POP JUMP INVALID LOG2 PUSH5 0x6970667358 0x22 SLT KECCAK256 0xF7 SWAP3 MSTORE8 0xCA BLOBBASEFEE DUP12 0xAD DUP8 0xCE 0x24 0x2A 0x4F BYTE DUP6 0x4B PUSH24 0xF14B6ECC355BB3C4DFB65BB8100551BC64736F6C63430008 0x1E STOP CALLER "
		},
		"gasEstimates": {
			"creation": {
				"codeDepositCost": "81000",
				"executionCost": "127",
				"totalCost": "81127"
			},
			"external": {
				"test()": "infinite",
				"test2()": "infinite"
			}
		},
		"methodIdentifiers": {
			"test()": "f8a8fd6d",
			"test2()": "66e41cb7"
		}
	},
	"abi": [
		{
			"inputs": [],
			"name": "test",
			"outputs": [
				{
					"internalType": "uint256",
					"name": "",
					"type": "uint256"
				}
			],
			"stateMutability": "pure",
			"type": "function"
		},
		{
			"inputs": [],
			"name": "test2",
			"outputs": [
				{
					"internalType": "uint256",
					"name": "",
					"type": "uint256"
				}
			],
			"stateMutability": "pure",
			"type": "function"
		}
	]
}